{
	"contracts/1_Storage.sol": {
		"Storage": {
			"abi": [
				{
					"anonymous": false,
					"inputs": [
						{
							"indexed": true,
							"internalType": "bytes32",
							"name": "role",
							"type": "bytes32"
						},
						{
							"indexed": true,
							"internalType": "bytes32",
							"name": "previousAdminRole",
							"type": "bytes32"
						},
						{
							"indexed": true,
							"internalType": "bytes32",
							"name": "newAdminRole",
							"type": "bytes32"
						}
					],
					"name": "RoleAdminChanged",
					"type": "event"
				},
				{
					"anonymous": false,
					"inputs": [
						{
							"indexed": true,
							"internalType": "bytes32",
							"name": "role",
							"type": "bytes32"
						},
						{
							"indexed": true,
							"internalType": "address",
							"name": "account",
							"type": "address"
						},
						{
							"indexed": true,
							"internalType": "address",
							"name": "sender",
							"type": "address"
						}
					],
					"name": "RoleGranted",
					"type": "event"
				},
				{
					"anonymous": false,
					"inputs": [
						{
							"indexed": true,
							"internalType": "bytes32",
							"name": "role",
							"type": "bytes32"
						},
						{
							"indexed": true,
							"internalType": "address",
							"name": "account",
							"type": "address"
						},
						{
							"indexed": true,
							"internalType": "address",
							"name": "sender",
							"type": "address"
						}
					],
					"name": "RoleRevoked",
					"type": "event"
				},
				{
					"inputs": [],
					"name": "ADMIN_ROLE",
					"outputs": [
						{
							"internalType": "bytes32",
							"name": "",
							"type": "bytes32"
						}
					],
					"stateMutability": "view",
					"type": "function"
				},
				{
					"inputs": [],
					"name": "DEFAULT_ADMIN_ROLE",
					"outputs": [
						{
							"internalType": "bytes32",
							"name": "",
							"type": "bytes32"
						}
					],
					"stateMutability": "view",
					"type": "function"
				},
				{
					"inputs": [],
					"name": "WRITER_ROLE",
					"outputs": [
						{
							"internalType": "bytes32",
							"name": "",
							"type": "bytes32"
						}
					],
					"stateMutability": "view",
					"type": "function"
				},
				{
					"inputs": [
						{
							"internalType": "bytes32",
							"name": "role",
							"type": "bytes32"
						},
						{
							"internalType": "address",
							"name": "account",
							"type": "address"
						}
					],
					"name": "add_role",
					"outputs": [],
					"stateMutability": "nonpayable",
					"type": "function"
				},
				{
					"inputs": [
						{
							"internalType": "bytes32",
							"name": "role",
							"type": "bytes32"
						}
					],
					"name": "getRoleAdmin",
					"outputs": [
						{
							"internalType": "bytes32",
							"name": "",
							"type": "bytes32"
						}
					],
					"stateMutability": "view",
					"type": "function"
				},
				{
					"inputs": [
						{
							"internalType": "bytes32",
							"name": "role",
							"type": "bytes32"
						},
						{
							"internalType": "address",
							"name": "account",
							"type": "address"
						}
					],
					"name": "grantRole",
					"outputs": [],
					"stateMutability": "nonpayable",
					"type": "function"
				},
				{
					"inputs": [
						{
							"internalType": "bytes32",
							"name": "role",
							"type": "bytes32"
						},
						{
							"internalType": "address",
							"name": "account",
							"type": "address"
						}
					],
					"name": "hasRole",
					"outputs": [
						{
							"internalType": "bool",
							"name": "",
							"type": "bool"
						}
					],
					"stateMutability": "view",
					"type": "function"
				},
				{
					"inputs": [
						{
							"internalType": "bytes32",
							"name": "role",
							"type": "bytes32"
						},
						{
							"internalType": "address",
							"name": "account",
							"type": "address"
						}
					],
					"name": "renounceRole",
					"outputs": [],
					"stateMutability": "nonpayable",
					"type": "function"
				},
				{
					"inputs": [],
					"name": "retrieve",
					"outputs": [
						{
							"internalType": "uint256",
							"name": "",
							"type": "uint256"
						}
					],
					"stateMutability": "view",
					"type": "function"
				},
				{
					"inputs": [
						{
							"internalType": "bytes32",
							"name": "role",
							"type": "bytes32"
						},
						{
							"internalType": "address",
							"name": "account",
							"type": "address"
						}
					],
					"name": "revokeRole",
					"outputs": [],
					"stateMutability": "nonpayable",
					"type": "function"
				},
				{
					"inputs": [
						{
							"internalType": "uint256",
							"name": "num",
							"type": "uint256"
						}
					],
					"name": "store",
					"outputs": [],
					"stateMutability": "nonpayable",
					"type": "function"
				},
				{
					"inputs": [
						{
							"internalType": "bytes4",
							"name": "interfaceId",
							"type": "bytes4"
						}
					],
					"name": "supportsInterface",
					"outputs": [
						{
							"internalType": "bool",
							"name": "",
							"type": "bool"
						}
					],
					"stateMutability": "view",
					"type": "function"
				}
			],
			"devdoc": {
				"events": {
					"RoleAdminChanged(bytes32,bytes32,bytes32)": {
						"details": "Emitted when `newAdminRole` is set as ``role``'s admin role, replacing `previousAdminRole` `DEFAULT_ADMIN_ROLE` is the starting admin for all roles, despite {RoleAdminChanged} not being emitted signaling this. _Available since v3.1._"
					},
					"RoleGranted(bytes32,address,address)": {
						"details": "Emitted when `account` is granted `role`. `sender` is the account that originated the contract call, an admin role bearer except when using {AccessControl-_setupRole}."
					},
					"RoleRevoked(bytes32,address,address)": {
						"details": "Emitted when `account` is revoked `role`. `sender` is the account that originated the contract call:   - if using `revokeRole`, it is the admin role bearer   - if using `renounceRole`, it is the role bearer (i.e. `account`)"
					}
				},
				"kind": "dev",
				"methods": {
					"getRoleAdmin(bytes32)": {
						"details": "Returns the admin role that controls `role`. See {grantRole} and {revokeRole}. To change a role's admin, use {_setRoleAdmin}."
					},
					"grantRole(bytes32,address)": {
						"details": "Grants `role` to `account`. If `account` had not been already granted `role`, emits a {RoleGranted} event. Requirements: - the caller must have ``role``'s admin role. May emit a {RoleGranted} event."
					},
					"hasRole(bytes32,address)": {
						"details": "Returns `true` if `account` has been granted `role`."
					},
					"renounceRole(bytes32,address)": {
						"details": "Revokes `role` from the calling account. Roles are often managed via {grantRole} and {revokeRole}: this function's purpose is to provide a mechanism for accounts to lose their privileges if they are compromised (such as when a trusted device is misplaced). If the calling account had been revoked `role`, emits a {RoleRevoked} event. Requirements: - the caller must be `account`. May emit a {RoleRevoked} event."
					},
					"retrieve()": {
						"details": "Return value ",
						"returns": {
							"_0": "value of 'number'"
						}
					},
					"revokeRole(bytes32,address)": {
						"details": "Revokes `role` from `account`. If `account` had been granted `role`, emits a {RoleRevoked} event. Requirements: - the caller must have ``role``'s admin role. May emit a {RoleRevoked} event."
					},
					"store(uint256)": {
						"details": "Store value in variable",
						"params": {
							"num": "value to store"
						}
					},
					"supportsInterface(bytes4)": {
						"details": "See {IERC165-supportsInterface}."
					}
				},
				"version": 1
			},
			"evm": {
				"assembly": "    /* \"contracts/1_Storage.sol\":261:1172  contract Storage is AccessControl{... */\n  mstore(0x40, 0x80)\n  callvalue\n  dup1\n  iszero\n  tag_1\n  jumpi\n  0x00\n  dup1\n  revert\ntag_1:\n  pop\n  dataSize(sub_0)\n  dup1\n  dataOffset(sub_0)\n  0x00\n  codecopy\n  0x00\n  return\nstop\n\nsub_0: assembly {\n        /* \"contracts/1_Storage.sol\":261:1172  contract Storage is AccessControl{... */\n      mstore(0x40, 0x80)\n      callvalue\n      dup1\n      iszero\n      tag_1\n      jumpi\n      0x00\n      dup1\n      revert\n    tag_1:\n      pop\n      jumpi(tag_2, lt(calldatasize, 0x04))\n      shr(0xe0, calldataload(0x00))\n      dup1\n      0x6057361d\n      gt\n      tag_15\n      jumpi\n      dup1\n      0x6057361d\n      eq\n      tag_9\n      jumpi\n      dup1\n      0x75b238fc\n      eq\n      tag_10\n      jumpi\n      dup1\n      0x91d14854\n      eq\n      tag_11\n      jumpi\n      dup1\n      0x9beaab7b\n      eq\n      tag_12\n      jumpi\n      dup1\n      0xa217fddf\n      eq\n      tag_13\n      jumpi\n      dup1\n      0xd547741f\n      eq\n      tag_14\n      jumpi\n      jump(tag_2)\n    tag_15:\n      dup1\n      0x01ffc9a7\n      eq\n      tag_3\n      jumpi\n      dup1\n      0x1a72a287\n      eq\n      tag_4\n      jumpi\n      dup1\n      0x248a9ca3\n      eq\n      tag_5\n      jumpi\n      dup1\n      0x2e64cec1\n      eq\n      tag_6\n      jumpi\n      dup1\n      0x2f2ff15d\n      eq\n      tag_7\n      jumpi\n      dup1\n      0x36568abe\n      eq\n      tag_8\n      jumpi\n    tag_2:\n      0x00\n      dup1\n      revert\n        /* \"@openzeppelin/contracts/access/AccessControl.sol\":2606:2808  function supportsInterface(bytes4 interfaceId) public view virtual override returns (bool) {... */\n    tag_3:\n      tag_16\n      0x04\n      dup1\n      calldatasize\n      sub\n      dup2\n      add\n      swap1\n      tag_17\n      swap2\n      swap1\n      tag_18\n      jump\t// in\n    tag_17:\n      tag_19\n      jump\t// in\n    tag_16:\n      mload(0x40)\n      tag_20\n      swap2\n      swap1\n      tag_21\n      jump\t// in\n    tag_20:\n      mload(0x40)\n      dup1\n      swap2\n      sub\n      swap1\n      return\n        /* \"contracts/1_Storage.sol\":711:820  function add_role(bytes32 role, address account) public  just_admin{... */\n    tag_4:\n      tag_22\n      0x04\n      dup1\n      calldatasize\n      sub\n      dup2\n      add\n      swap1\n      tag_23\n      swap2\n      swap1\n      tag_24\n      jump\t// in\n    tag_23:\n      tag_25\n      jump\t// in\n    tag_22:\n      stop\n        /* \"@openzeppelin/contracts/access/AccessControl.sol\":4378:4507  function getRoleAdmin(bytes32 role) public view virtual override returns (bytes32) {... */\n    tag_5:\n      tag_26\n      0x04\n      dup1\n      calldatasize\n      sub\n      dup2\n      add\n      swap1\n      tag_27\n      swap2\n      swap1\n      tag_28\n      jump\t// in\n    tag_27:\n      tag_29\n      jump\t// in\n    tag_26:\n      mload(0x40)\n      tag_30\n      swap2\n      swap1\n      tag_31\n      jump\t// in\n    tag_30:\n      mload(0x40)\n      dup1\n      swap2\n      sub\n      swap1\n      return\n        /* \"contracts/1_Storage.sol\":1091:1170  function retrieve() public view returns (uint256){... */\n    tag_6:\n      tag_32\n      tag_33\n      jump\t// in\n    tag_32:\n      mload(0x40)\n      tag_34\n      swap2\n      swap1\n      tag_35\n      jump\t// in\n    tag_34:\n      mload(0x40)\n      dup1\n      swap2\n      sub\n      swap1\n      return\n        /* \"@openzeppelin/contracts/access/AccessControl.sol\":4803:4948  function grantRole(bytes32 role, address account) public virtual override onlyRole(getRoleAdmin(role)) {... */\n    tag_7:\n      tag_36\n      0x04\n      dup1\n      calldatasize\n      sub\n      dup2\n      add\n      swap1\n      tag_37\n      swap2\n      swap1\n      tag_24\n      jump\t// in\n    tag_37:\n      tag_38\n      jump\t// in\n    tag_36:\n      stop\n        /* \"@openzeppelin/contracts/access/AccessControl.sol\":5912:6126  function renounceRole(bytes32 role, address account) public virtual override {... */\n    tag_8:\n      tag_39\n      0x04\n      dup1\n      calldatasize\n      sub\n      dup2\n      add\n      swap1\n      tag_40\n      swap2\n      swap1\n      tag_24\n      jump\t// in\n    tag_40:\n      tag_41\n      jump\t// in\n    tag_39:\n      stop\n        /* \"contracts/1_Storage.sol\":932:1010  function store(uint256 num) public just_writer() {... */\n    tag_9:\n      tag_42\n      0x04\n      dup1\n      calldatasize\n      sub\n      dup2\n      add\n      swap1\n      tag_43\n      swap2\n      swap1\n      tag_44\n      jump\t// in\n    tag_43:\n      tag_45\n      jump\t// in\n    tag_42:\n      stop\n        /* \"contracts/1_Storage.sol\":302:362  bytes32 public constant ADMIN_ROLE = keccak256(\"ADMIN_ROLE\") */\n    tag_10:\n      tag_46\n      tag_47\n      jump\t// in\n    tag_46:\n      mload(0x40)\n      tag_48\n      swap2\n      swap1\n      tag_31\n      jump\t// in\n    tag_48:\n      mload(0x40)\n      dup1\n      swap2\n      sub\n      swap1\n      return\n        /* \"@openzeppelin/contracts/access/AccessControl.sol\":2895:3040  function hasRole(bytes32 role, address account) public view virtual override returns (bool) {... */\n    tag_11:\n      tag_49\n      0x04\n      dup1\n      calldatasize\n      sub\n      dup2\n      add\n      swap1\n      tag_50\n      swap2\n      swap1\n      tag_24\n      jump\t// in\n    tag_50:\n      tag_51\n      jump\t// in\n    tag_49:\n      mload(0x40)\n      tag_52\n      swap2\n      swap1\n      tag_21\n      jump\t// in\n    tag_52:\n      mload(0x40)\n      dup1\n      swap2\n      sub\n      swap1\n      return\n        /* \"contracts/1_Storage.sol\":368:430  bytes32 public constant WRITER_ROLE = keccak256(\"WRITER_ROLE\") */\n    tag_12:\n      tag_53\n      tag_54\n      jump\t// in\n    tag_53:\n      mload(0x40)\n      tag_55\n      swap2\n      swap1\n      tag_31\n      jump\t// in\n    tag_55:\n      mload(0x40)\n      dup1\n      swap2\n      sub\n      swap1\n      return\n        /* \"@openzeppelin/contracts/access/AccessControl.sol\":2027:2076  bytes32 public constant DEFAULT_ADMIN_ROLE = 0x00 */\n    tag_13:\n      tag_56\n      tag_57\n      jump\t// in\n    tag_56:\n      mload(0x40)\n      tag_58\n      swap2\n      swap1\n      tag_31\n      jump\t// in\n    tag_58:\n      mload(0x40)\n      dup1\n      swap2\n      sub\n      swap1\n      return\n        /* \"@openzeppelin/contracts/access/AccessControl.sol\":5228:5375  function revokeRole(bytes32 role, address account) public virtual override onlyRole(getRoleAdmin(role)) {... */\n    tag_14:\n      tag_59\n      0x04\n      dup1\n      calldatasize\n      sub\n      dup2\n      add\n      swap1\n      tag_60\n      swap2\n      swap1\n      tag_24\n      jump\t// in\n    tag_60:\n      tag_61\n      jump\t// in\n    tag_59:\n      stop\n        /* \"@openzeppelin/contracts/access/AccessControl.sol\":2606:2808  function supportsInterface(bytes4 interfaceId) public view virtual override returns (bool) {... */\n    tag_19:\n        /* \"@openzeppelin/contracts/access/AccessControl.sol\":2691:2695  bool */\n      0x00\n        /* \"@openzeppelin/contracts/access/AccessControl.sol\":2729:2761  type(IAccessControl).interfaceId */\n      0x7965db0b00000000000000000000000000000000000000000000000000000000\n        /* \"@openzeppelin/contracts/access/AccessControl.sol\":2714:2761  interfaceId == type(IAccessControl).interfaceId */\n      not(0xffffffffffffffffffffffffffffffffffffffffffffffffffffffff)\n      and\n        /* \"@openzeppelin/contracts/access/AccessControl.sol\":2714:2725  interfaceId */\n      dup3\n        /* \"@openzeppelin/contracts/access/AccessControl.sol\":2714:2761  interfaceId == type(IAccessControl).interfaceId */\n      not(0xffffffffffffffffffffffffffffffffffffffffffffffffffffffff)\n      and\n      eq\n        /* \"@openzeppelin/contracts/access/AccessControl.sol\":2714:2801  interfaceId == type(IAccessControl).interfaceId || super.supportsInterface(interfaceId) */\n      dup1\n      tag_63\n      jumpi\n      pop\n        /* \"@openzeppelin/contracts/access/AccessControl.sol\":2765:2801  super.supportsInterface(interfaceId) */\n      tag_64\n        /* \"@openzeppelin/contracts/access/AccessControl.sol\":2789:2800  interfaceId */\n      dup3\n        /* \"@openzeppelin/contracts/access/AccessControl.sol\":2765:2788  super.supportsInterface */\n      tag_65\n        /* \"@openzeppelin/contracts/access/AccessControl.sol\":2765:2801  super.supportsInterface(interfaceId) */\n      jump\t// in\n    tag_64:\n        /* \"@openzeppelin/contracts/access/AccessControl.sol\":2714:2801  interfaceId == type(IAccessControl).interfaceId || super.supportsInterface(interfaceId) */\n    tag_63:\n        /* \"@openzeppelin/contracts/access/AccessControl.sol\":2707:2801  return interfaceId == type(IAccessControl).interfaceId || super.supportsInterface(interfaceId) */\n      swap1\n      pop\n        /* \"@openzeppelin/contracts/access/AccessControl.sol\":2606:2808  function supportsInterface(bytes4 interfaceId) public view virtual override returns (bool) {... */\n      swap2\n      swap1\n      pop\n      jump\t// out\n        /* \"contracts/1_Storage.sol\":711:820  function add_role(bytes32 role, address account) public  just_admin{... */\n    tag_25:\n        /* \"contracts/1_Storage.sol\":477:508  hasRole(ADMIN_ROLE, msg.sender) */\n      tag_67\n        /* \"contracts/1_Storage.sol\":339:362  keccak256(\"ADMIN_ROLE\") */\n      0xa49807205ce4d355092ef5a8a18f56e8913cf4a201fbe287825b095693c21775\n        /* \"contracts/1_Storage.sol\":497:507  msg.sender */\n      caller\n        /* \"contracts/1_Storage.sol\":477:484  hasRole */\n      tag_51\n        /* \"contracts/1_Storage.sol\":477:508  hasRole(ADMIN_ROLE, msg.sender) */\n      jump\t// in\n    tag_67:\n        /* \"contracts/1_Storage.sol\":469:549  require(hasRole(ADMIN_ROLE, msg.sender), \"Just the Admin can use this function\") */\n      tag_68\n      jumpi\n      mload(0x40)\n      0x08c379a000000000000000000000000000000000000000000000000000000000\n      dup2\n      mstore\n      0x04\n      add\n      tag_69\n      swap1\n      tag_70\n      jump\t// in\n    tag_69:\n      mload(0x40)\n      dup1\n      swap2\n      sub\n      swap1\n      revert\n    tag_68:\n        /* \"contracts/1_Storage.sol\":788:813  _grantRole(role, account) */\n      tag_72\n        /* \"contracts/1_Storage.sol\":799:803  role */\n      dup3\n        /* \"contracts/1_Storage.sol\":805:812  account */\n      dup3\n        /* \"contracts/1_Storage.sol\":788:798  _grantRole */\n      tag_73\n        /* \"contracts/1_Storage.sol\":788:813  _grantRole(role, account) */\n      jump\t// in\n    tag_72:\n        /* \"contracts/1_Storage.sol\":711:820  function add_role(bytes32 role, address account) public  just_admin{... */\n      pop\n      pop\n      jump\t// out\n        /* \"@openzeppelin/contracts/access/AccessControl.sol\":4378:4507  function getRoleAdmin(bytes32 role) public view virtual override returns (bytes32) {... */\n    tag_29:\n        /* \"@openzeppelin/contracts/access/AccessControl.sol\":4452:4459  bytes32 */\n      0x00\n        /* \"@openzeppelin/contracts/access/AccessControl.sol\":4478:4484  _roles */\n      dup1\n        /* \"@openzeppelin/contracts/access/AccessControl.sol\":4478:4490  _roles[role] */\n      0x00\n        /* \"@openzeppelin/contracts/access/AccessControl.sol\":4485:4489  role */\n      dup4\n        /* \"@openzeppelin/contracts/access/AccessControl.sol\":4478:4490  _roles[role] */\n      dup2\n      mstore\n      0x20\n      add\n      swap1\n      dup2\n      mstore\n      0x20\n      add\n      0x00\n      keccak256\n        /* \"@openzeppelin/contracts/access/AccessControl.sol\":4478:4500  _roles[role].adminRole */\n      0x01\n      add\n      sload\n        /* \"@openzeppelin/contracts/access/AccessControl.sol\":4471:4500  return _roles[role].adminRole */\n      swap1\n      pop\n        /* \"@openzeppelin/contracts/access/AccessControl.sol\":4378:4507  function getRoleAdmin(bytes32 role) public view virtual override returns (bytes32) {... */\n      swap2\n      swap1\n      pop\n      jump\t// out\n        /* \"contracts/1_Storage.sol\":1091:1170  function retrieve() public view returns (uint256){... */\n    tag_33:\n        /* \"contracts/1_Storage.sol\":1132:1139  uint256 */\n      0x00\n        /* \"contracts/1_Storage.sol\":1157:1163  number */\n      sload(0x01)\n        /* \"contracts/1_Storage.sol\":1150:1163  return number */\n      swap1\n      pop\n        /* \"contracts/1_Storage.sol\":1091:1170  function retrieve() public view returns (uint256){... */\n      swap1\n      jump\t// out\n        /* \"@openzeppelin/contracts/access/AccessControl.sol\":4803:4948  function grantRole(bytes32 role, address account) public virtual override onlyRole(getRoleAdmin(role)) {... */\n    tag_38:\n        /* \"@openzeppelin/contracts/access/AccessControl.sol\":4886:4904  getRoleAdmin(role) */\n      tag_76\n        /* \"@openzeppelin/contracts/access/AccessControl.sol\":4899:4903  role */\n      dup3\n        /* \"@openzeppelin/contracts/access/AccessControl.sol\":4886:4898  getRoleAdmin */\n      tag_29\n        /* \"@openzeppelin/contracts/access/AccessControl.sol\":4886:4904  getRoleAdmin(role) */\n      jump\t// in\n    tag_76:\n        /* \"@openzeppelin/contracts/access/AccessControl.sol\":2505:2521  _checkRole(role) */\n      tag_78\n        /* \"@openzeppelin/contracts/access/AccessControl.sol\":2516:2520  role */\n      dup2\n        /* \"@openzeppelin/contracts/access/AccessControl.sol\":2505:2515  _checkRole */\n      tag_79\n        /* \"@openzeppelin/contracts/access/AccessControl.sol\":2505:2521  _checkRole(role) */\n      jump\t// in\n    tag_78:\n        /* \"@openzeppelin/contracts/access/AccessControl.sol\":4916:4941  _grantRole(role, account) */\n      tag_81\n        /* \"@openzeppelin/contracts/access/AccessControl.sol\":4927:4931  role */\n      dup4\n        /* \"@openzeppelin/contracts/access/AccessControl.sol\":4933:4940  account */\n      dup4\n        /* \"@openzeppelin/contracts/access/AccessControl.sol\":4916:4926  _grantRole */\n      tag_73\n        /* \"@openzeppelin/contracts/access/AccessControl.sol\":4916:4941  _grantRole(role, account) */\n      jump\t// in\n    tag_81:\n        /* \"@openzeppelin/contracts/access/AccessControl.sol\":4803:4948  function grantRole(bytes32 role, address account) public virtual override onlyRole(getRoleAdmin(role)) {... */\n      pop\n      pop\n      pop\n      jump\t// out\n        /* \"@openzeppelin/contracts/access/AccessControl.sol\":5912:6126  function renounceRole(bytes32 role, address account) public virtual override {... */\n    tag_41:\n        /* \"@openzeppelin/contracts/access/AccessControl.sol\":6018:6030  _msgSender() */\n      tag_83\n        /* \"@openzeppelin/contracts/access/AccessControl.sol\":6018:6028  _msgSender */\n      tag_84\n        /* \"@openzeppelin/contracts/access/AccessControl.sol\":6018:6030  _msgSender() */\n      jump\t// in\n    tag_83:\n        /* \"@openzeppelin/contracts/access/AccessControl.sol\":6007:6030  account == _msgSender() */\n      0xffffffffffffffffffffffffffffffffffffffff\n      and\n        /* \"@openzeppelin/contracts/access/AccessControl.sol\":6007:6014  account */\n      dup2\n        /* \"@openzeppelin/contracts/access/AccessControl.sol\":6007:6030  account == _msgSender() */\n      0xffffffffffffffffffffffffffffffffffffffff\n      and\n      eq\n        /* \"@openzeppelin/contracts/access/AccessControl.sol\":5999:6082  require(account == _msgSender(), \"AccessControl: can only renounce roles for self\") */\n      tag_85\n      jumpi\n      mload(0x40)\n      0x08c379a000000000000000000000000000000000000000000000000000000000\n      dup2\n      mstore\n      0x04\n      add\n      tag_86\n      swap1\n      tag_87\n      jump\t// in\n    tag_86:\n      mload(0x40)\n      dup1\n      swap2\n      sub\n      swap1\n      revert\n    tag_85:\n        /* \"@openzeppelin/contracts/access/AccessControl.sol\":6093:6119  _revokeRole(role, account) */\n      tag_88\n        /* \"@openzeppelin/contracts/access/AccessControl.sol\":6105:6109  role */\n      dup3\n        /* \"@openzeppelin/contracts/access/AccessControl.sol\":6111:6118  account */\n      dup3\n        /* \"@openzeppelin/contracts/access/AccessControl.sol\":6093:6104  _revokeRole */\n      tag_89\n        /* \"@openzeppelin/contracts/access/AccessControl.sol\":6093:6119  _revokeRole(role, account) */\n      jump\t// in\n    tag_88:\n        /* \"@openzeppelin/contracts/access/AccessControl.sol\":5912:6126  function renounceRole(bytes32 role, address account) public virtual override {... */\n      pop\n      pop\n      jump\t// out\n        /* \"contracts/1_Storage.sol\":932:1010  function store(uint256 num) public just_writer() {... */\n    tag_45:\n        /* \"contracts/1_Storage.sol\":614:646  hasRole(WRITER_ROLE, msg.sender) */\n      tag_91\n        /* \"contracts/1_Storage.sol\":406:430  keccak256(\"WRITER_ROLE\") */\n      0x2b8f168f361ac1393a163ed4adfa899a87be7b7c71645167bdaddd822ae453c8\n        /* \"contracts/1_Storage.sol\":635:645  msg.sender */\n      caller\n        /* \"contracts/1_Storage.sol\":614:621  hasRole */\n      tag_51\n        /* \"contracts/1_Storage.sol\":614:646  hasRole(WRITER_ROLE, msg.sender) */\n      jump\t// in\n    tag_91:\n        /* \"contracts/1_Storage.sol\":606:687  require(hasRole(WRITER_ROLE, msg.sender), \"Just the USERS can use this function\") */\n      tag_92\n      jumpi\n      mload(0x40)\n      0x08c379a000000000000000000000000000000000000000000000000000000000\n      dup2\n      mstore\n      0x04\n      add\n      tag_93\n      swap1\n      tag_94\n      jump\t// in\n    tag_93:\n      mload(0x40)\n      dup1\n      swap2\n      sub\n      swap1\n      revert\n    tag_92:\n        /* \"contracts/1_Storage.sol\":1000:1003  num */\n      dup1\n        /* \"contracts/1_Storage.sol\":991:997  number */\n      0x01\n        /* \"contracts/1_Storage.sol\":991:1003  number = num */\n      dup2\n      swap1\n      sstore\n      pop\n        /* \"contracts/1_Storage.sol\":932:1010  function store(uint256 num) public just_writer() {... */\n      pop\n      jump\t// out\n        /* \"contracts/1_Storage.sol\":302:362  bytes32 public constant ADMIN_ROLE = keccak256(\"ADMIN_ROLE\") */\n    tag_47:\n        /* \"contracts/1_Storage.sol\":339:362  keccak256(\"ADMIN_ROLE\") */\n      0xa49807205ce4d355092ef5a8a18f56e8913cf4a201fbe287825b095693c21775\n        /* \"contracts/1_Storage.sol\":302:362  bytes32 public constant ADMIN_ROLE = keccak256(\"ADMIN_ROLE\") */\n      dup2\n      jump\t// out\n        /* \"@openzeppelin/contracts/access/AccessControl.sol\":2895:3040  function hasRole(bytes32 role, address account) public view virtual override returns (bool) {... */\n    tag_51:\n        /* \"@openzeppelin/contracts/access/AccessControl.sol\":2981:2985  bool */\n      0x00\n        /* \"@openzeppelin/contracts/access/AccessControl.sol\":3004:3010  _roles */\n      dup1\n        /* \"@openzeppelin/contracts/access/AccessControl.sol\":3004:3016  _roles[role] */\n      0x00\n        /* \"@openzeppelin/contracts/access/AccessControl.sol\":3011:3015  role */\n      dup5\n        /* \"@openzeppelin/contracts/access/AccessControl.sol\":3004:3016  _roles[role] */\n      dup2\n      mstore\n      0x20\n      add\n      swap1\n      dup2\n      mstore\n      0x20\n      add\n      0x00\n      keccak256\n        /* \"@openzeppelin/contracts/access/AccessControl.sol\":3004:3024  _roles[role].members */\n      0x00\n      add\n        /* \"@openzeppelin/contracts/access/AccessControl.sol\":3004:3033  _roles[role].members[account] */\n      0x00\n        /* \"@openzeppelin/contracts/access/AccessControl.sol\":3025:3032  account */\n      dup4\n        /* \"@openzeppelin/contracts/access/AccessControl.sol\":3004:3033  _roles[role].members[account] */\n      0xffffffffffffffffffffffffffffffffffffffff\n      and\n      0xffffffffffffffffffffffffffffffffffffffff\n      and\n      dup2\n      mstore\n      0x20\n      add\n      swap1\n      dup2\n      mstore\n      0x20\n      add\n      0x00\n      keccak256\n      0x00\n      swap1\n      sload\n      swap1\n      0x0100\n      exp\n      swap1\n      div\n      0xff\n      and\n        /* \"@openzeppelin/contracts/access/AccessControl.sol\":2997:3033  return _roles[role].members[account] */\n      swap1\n      pop\n        /* \"@openzeppelin/contracts/access/AccessControl.sol\":2895:3040  function hasRole(bytes32 role, address account) public view virtual override returns (bool) {... */\n      swap3\n      swap2\n      pop\n      pop\n      jump\t// out\n        /* \"contracts/1_Storage.sol\":368:430  bytes32 public constant WRITER_ROLE = keccak256(\"WRITER_ROLE\") */\n    tag_54:\n        /* \"contracts/1_Storage.sol\":406:430  keccak256(\"WRITER_ROLE\") */\n      0x2b8f168f361ac1393a163ed4adfa899a87be7b7c71645167bdaddd822ae453c8\n        /* \"contracts/1_Storage.sol\":368:430  bytes32 public constant WRITER_ROLE = keccak256(\"WRITER_ROLE\") */\n      dup2\n      jump\t// out\n        /* \"@openzeppelin/contracts/access/AccessControl.sol\":2027:2076  bytes32 public constant DEFAULT_ADMIN_ROLE = 0x00 */\n    tag_57:\n        /* \"@openzeppelin/contracts/access/AccessControl.sol\":2072:2076  0x00 */\n      0x00\n        /* \"@openzeppelin/contracts/access/AccessControl.sol\":2027:2076  bytes32 public constant DEFAULT_ADMIN_ROLE = 0x00 */\n      dup1\n      shl\n      dup2\n      jump\t// out\n        /* \"@openzeppelin/contracts/access/AccessControl.sol\":5228:5375  function revokeRole(bytes32 role, address account) public virtual override onlyRole(getRoleAdmin(role)) {... */\n    tag_61:\n        /* \"@openzeppelin/contracts/access/AccessControl.sol\":5312:5330  getRoleAdmin(role) */\n      tag_97\n        /* \"@openzeppelin/contracts/access/AccessControl.sol\":5325:5329  role */\n      dup3\n        /* \"@openzeppelin/contracts/access/AccessControl.sol\":5312:5324  getRoleAdmin */\n      tag_29\n        /* \"@openzeppelin/contracts/access/AccessControl.sol\":5312:5330  getRoleAdmin(role) */\n      jump\t// in\n    tag_97:\n        /* \"@openzeppelin/contracts/access/AccessControl.sol\":2505:2521  _checkRole(role) */\n      tag_99\n        /* \"@openzeppelin/contracts/access/AccessControl.sol\":2516:2520  role */\n      dup2\n        /* \"@openzeppelin/contracts/access/AccessControl.sol\":2505:2515  _checkRole */\n      tag_79\n        /* \"@openzeppelin/contracts/access/AccessControl.sol\":2505:2521  _checkRole(role) */\n      jump\t// in\n    tag_99:\n        /* \"@openzeppelin/contracts/access/AccessControl.sol\":5342:5368  _revokeRole(role, account) */\n      tag_101\n        /* \"@openzeppelin/contracts/access/AccessControl.sol\":5354:5358  role */\n      dup4\n        /* \"@openzeppelin/contracts/access/AccessControl.sol\":5360:5367  account */\n      dup4\n        /* \"@openzeppelin/contracts/access/AccessControl.sol\":5342:5353  _revokeRole */\n      tag_89\n        /* \"@openzeppelin/contracts/access/AccessControl.sol\":5342:5368  _revokeRole(role, account) */\n      jump\t// in\n    tag_101:\n        /* \"@openzeppelin/contracts/access/AccessControl.sol\":5228:5375  function revokeRole(bytes32 role, address account) public virtual override onlyRole(getRoleAdmin(role)) {... */\n      pop\n      pop\n      pop\n      jump\t// out\n        /* \"@openzeppelin/contracts/utils/introspection/ERC165.sol\":829:984  function supportsInterface(bytes4 interfaceId) public view virtual override returns (bool) {... */\n    tag_65:\n        /* \"@openzeppelin/contracts/utils/introspection/ERC165.sol\":914:918  bool */\n      0x00\n        /* \"@openzeppelin/contracts/utils/introspection/ERC165.sol\":952:977  type(IERC165).interfaceId */\n      0x01ffc9a700000000000000000000000000000000000000000000000000000000\n        /* \"@openzeppelin/contracts/utils/introspection/ERC165.sol\":937:977  interfaceId == type(IERC165).interfaceId */\n      not(0xffffffffffffffffffffffffffffffffffffffffffffffffffffffff)\n      and\n        /* \"@openzeppelin/contracts/utils/introspection/ERC165.sol\":937:948  interfaceId */\n      dup3\n        /* \"@openzeppelin/contracts/utils/introspection/ERC165.sol\":937:977  interfaceId == type(IERC165).interfaceId */\n      not(0xffffffffffffffffffffffffffffffffffffffffffffffffffffffff)\n      and\n      eq\n        /* \"@openzeppelin/contracts/utils/introspection/ERC165.sol\":930:977  return interfaceId == type(IERC165).interfaceId */\n      swap1\n      pop\n        /* \"@openzeppelin/contracts/utils/introspection/ERC165.sol\":829:984  function supportsInterface(bytes4 interfaceId) public view virtual override returns (bool) {... */\n      swap2\n      swap1\n      pop\n      jump\t// out\n        /* \"@openzeppelin/contracts/access/AccessControl.sol\":7461:7694  function _grantRole(bytes32 role, address account) internal virtual {... */\n    tag_73:\n        /* \"@openzeppelin/contracts/access/AccessControl.sol\":7544:7566  hasRole(role, account) */\n      tag_104\n        /* \"@openzeppelin/contracts/access/AccessControl.sol\":7552:7556  role */\n      dup3\n        /* \"@openzeppelin/contracts/access/AccessControl.sol\":7558:7565  account */\n      dup3\n        /* \"@openzeppelin/contracts/access/AccessControl.sol\":7544:7551  hasRole */\n      tag_51\n        /* \"@openzeppelin/contracts/access/AccessControl.sol\":7544:7566  hasRole(role, account) */\n      jump\t// in\n    tag_104:\n        /* \"@openzeppelin/contracts/access/AccessControl.sol\":7539:7688  if (!hasRole(role, account)) {... */\n      tag_105\n      jumpi\n        /* \"@openzeppelin/contracts/access/AccessControl.sol\":7614:7618  true */\n      0x01\n        /* \"@openzeppelin/contracts/access/AccessControl.sol\":7582:7588  _roles */\n      0x00\n        /* \"@openzeppelin/contracts/access/AccessControl.sol\":7582:7594  _roles[role] */\n      dup1\n        /* \"@openzeppelin/contracts/access/AccessControl.sol\":7589:7593  role */\n      dup5\n        /* \"@openzeppelin/contracts/access/AccessControl.sol\":7582:7594  _roles[role] */\n      dup2\n      mstore\n      0x20\n      add\n      swap1\n      dup2\n      mstore\n      0x20\n      add\n      0x00\n      keccak256\n        /* \"@openzeppelin/contracts/access/AccessControl.sol\":7582:7602  _roles[role].members */\n      0x00\n      add\n        /* \"@openzeppelin/contracts/access/AccessControl.sol\":7582:7611  _roles[role].members[account] */\n      0x00\n        /* \"@openzeppelin/contracts/access/AccessControl.sol\":7603:7610  account */\n      dup4\n        /* \"@openzeppelin/contracts/access/AccessControl.sol\":7582:7611  _roles[role].members[account] */\n      0xffffffffffffffffffffffffffffffffffffffff\n      and\n      0xffffffffffffffffffffffffffffffffffffffff\n      and\n      dup2\n      mstore\n      0x20\n      add\n      swap1\n      dup2\n      mstore\n      0x20\n      add\n      0x00\n      keccak256\n      0x00\n        /* \"@openzeppelin/contracts/access/AccessControl.sol\":7582:7618  _roles[role].members[account] = true */\n      0x0100\n      exp\n      dup2\n      sload\n      dup2\n      0xff\n      mul\n      not\n      and\n      swap1\n      dup4\n      iszero\n      iszero\n      mul\n      or\n      swap1\n      sstore\n      pop\n        /* \"@openzeppelin/contracts/access/AccessControl.sol\":7664:7676  _msgSender() */\n      tag_106\n        /* \"@openzeppelin/contracts/access/AccessControl.sol\":7664:7674  _msgSender */\n      tag_84\n        /* \"@openzeppelin/contracts/access/AccessControl.sol\":7664:7676  _msgSender() */\n      jump\t// in\n    tag_106:\n        /* \"@openzeppelin/contracts/access/AccessControl.sol\":7637:7677  RoleGranted(role, account, _msgSender()) */\n      0xffffffffffffffffffffffffffffffffffffffff\n      and\n        /* \"@openzeppelin/contracts/access/AccessControl.sol\":7655:7662  account */\n      dup2\n        /* \"@openzeppelin/contracts/access/AccessControl.sol\":7637:7677  RoleGranted(role, account, _msgSender()) */\n      0xffffffffffffffffffffffffffffffffffffffff\n      and\n        /* \"@openzeppelin/contracts/access/AccessControl.sol\":7649:7653  role */\n      dup4\n        /* \"@openzeppelin/contracts/access/AccessControl.sol\":7637:7677  RoleGranted(role, account, _msgSender()) */\n      0x2f8788117e7eff1d82e926ec794901d17c78024a50270940304540a733656f0d\n      mload(0x40)\n      mload(0x40)\n      dup1\n      swap2\n      sub\n      swap1\n      log4\n        /* \"@openzeppelin/contracts/access/AccessControl.sol\":7539:7688  if (!hasRole(role, account)) {... */\n    tag_105:\n        /* \"@openzeppelin/contracts/access/AccessControl.sol\":7461:7694  function _grantRole(bytes32 role, address account) internal virtual {... */\n      pop\n      pop\n      jump\t// out\n        /* \"@openzeppelin/contracts/access/AccessControl.sol\":3334:3437  function _checkRole(bytes32 role) internal view virtual {... */\n    tag_79:\n        /* \"@openzeppelin/contracts/access/AccessControl.sol\":3400:3430  _checkRole(role, _msgSender()) */\n      tag_108\n        /* \"@openzeppelin/contracts/access/AccessControl.sol\":3411:3415  role */\n      dup2\n        /* \"@openzeppelin/contracts/access/AccessControl.sol\":3417:3429  _msgSender() */\n      tag_109\n        /* \"@openzeppelin/contracts/access/AccessControl.sol\":3417:3427  _msgSender */\n      tag_84\n        /* \"@openzeppelin/contracts/access/AccessControl.sol\":3417:3429  _msgSender() */\n      jump\t// in\n    tag_109:\n        /* \"@openzeppelin/contracts/access/AccessControl.sol\":3400:3410  _checkRole */\n      tag_110\n        /* \"@openzeppelin/contracts/access/AccessControl.sol\":3400:3430  _checkRole(role, _msgSender()) */\n      jump\t// in\n    tag_108:\n        /* \"@openzeppelin/contracts/access/AccessControl.sol\":3334:3437  function _checkRole(bytes32 role) internal view virtual {... */\n      pop\n      jump\t// out\n        /* \"@openzeppelin/contracts/utils/Context.sol\":640:736  function _msgSender() internal view virtual returns (address) {... */\n    tag_84:\n        /* \"@openzeppelin/contracts/utils/Context.sol\":693:700  address */\n      0x00\n        /* \"@openzeppelin/contracts/utils/Context.sol\":719:729  msg.sender */\n      caller\n        /* \"@openzeppelin/contracts/utils/Context.sol\":712:729  return msg.sender */\n      swap1\n      pop\n        /* \"@openzeppelin/contracts/utils/Context.sol\":640:736  function _msgSender() internal view virtual returns (address) {... */\n      swap1\n      jump\t// out\n        /* \"@openzeppelin/contracts/access/AccessControl.sol\":7865:8099  function _revokeRole(bytes32 role, address account) internal virtual {... */\n    tag_89:\n        /* \"@openzeppelin/contracts/access/AccessControl.sol\":7948:7970  hasRole(role, account) */\n      tag_113\n        /* \"@openzeppelin/contracts/access/AccessControl.sol\":7956:7960  role */\n      dup3\n        /* \"@openzeppelin/contracts/access/AccessControl.sol\":7962:7969  account */\n      dup3\n        /* \"@openzeppelin/contracts/access/AccessControl.sol\":7948:7955  hasRole */\n      tag_51\n        /* \"@openzeppelin/contracts/access/AccessControl.sol\":7948:7970  hasRole(role, account) */\n      jump\t// in\n    tag_113:\n        /* \"@openzeppelin/contracts/access/AccessControl.sol\":7944:8093  if (hasRole(role, account)) {... */\n      iszero\n      tag_114\n      jumpi\n        /* \"@openzeppelin/contracts/access/AccessControl.sol\":8018:8023  false */\n      0x00\n        /* \"@openzeppelin/contracts/access/AccessControl.sol\":7986:7992  _roles */\n      dup1\n        /* \"@openzeppelin/contracts/access/AccessControl.sol\":7986:7998  _roles[role] */\n      0x00\n        /* \"@openzeppelin/contracts/access/AccessControl.sol\":7993:7997  role */\n      dup5\n        /* \"@openzeppelin/contracts/access/AccessControl.sol\":7986:7998  _roles[role] */\n      dup2\n      mstore\n      0x20\n      add\n      swap1\n      dup2\n      mstore\n      0x20\n      add\n      0x00\n      keccak256\n        /* \"@openzeppelin/contracts/access/AccessControl.sol\":7986:8006  _roles[role].members */\n      0x00\n      add\n        /* \"@openzeppelin/contracts/access/AccessControl.sol\":7986:8015  _roles[role].members[account] */\n      0x00\n        /* \"@openzeppelin/contracts/access/AccessControl.sol\":8007:8014  account */\n      dup4\n        /* \"@openzeppelin/contracts/access/AccessControl.sol\":7986:8015  _roles[role].members[account] */\n      0xffffffffffffffffffffffffffffffffffffffff\n      and\n      0xffffffffffffffffffffffffffffffffffffffff\n      and\n      dup2\n      mstore\n      0x20\n      add\n      swap1\n      dup2\n      mstore\n      0x20\n      add\n      0x00\n      keccak256\n      0x00\n        /* \"@openzeppelin/contracts/access/AccessControl.sol\":7986:8023  _roles[role].members[account] = false */\n      0x0100\n      exp\n      dup2\n      sload\n      dup2\n      0xff\n      mul\n      not\n      and\n      swap1\n      dup4\n      iszero\n      iszero\n      mul\n      or\n      swap1\n      sstore\n      pop\n        /* \"@openzeppelin/contracts/access/AccessControl.sol\":8069:8081  _msgSender() */\n      tag_115\n        /* \"@openzeppelin/contracts/access/AccessControl.sol\":8069:8079  _msgSender */\n      tag_84\n        /* \"@openzeppelin/contracts/access/AccessControl.sol\":8069:8081  _msgSender() */\n      jump\t// in\n    tag_115:\n        /* \"@openzeppelin/contracts/access/AccessControl.sol\":8042:8082  RoleRevoked(role, account, _msgSender()) */\n      0xffffffffffffffffffffffffffffffffffffffff\n      and\n        /* \"@openzeppelin/contracts/access/AccessControl.sol\":8060:8067  account */\n      dup2\n        /* \"@openzeppelin/contracts/access/AccessControl.sol\":8042:8082  RoleRevoked(role, account, _msgSender()) */\n      0xffffffffffffffffffffffffffffffffffffffff\n      and\n        /* \"@openzeppelin/contracts/access/AccessControl.sol\":8054:8058  role */\n      dup4\n        /* \"@openzeppelin/contracts/access/AccessControl.sol\":8042:8082  RoleRevoked(role, account, _msgSender()) */\n      0xf6391f5c32d9c69d2a47ea670b442974b53935d1edc7fd64eb21e047a839171b\n      mload(0x40)\n      mload(0x40)\n      dup1\n      swap2\n      sub\n      swap1\n      log4\n        /* \"@openzeppelin/contracts/access/AccessControl.sol\":7944:8093  if (hasRole(role, account)) {... */\n    tag_114:\n        /* \"@openzeppelin/contracts/access/AccessControl.sol\":7865:8099  function _revokeRole(bytes32 role, address account) internal virtual {... */\n      pop\n      pop\n      jump\t// out\n        /* \"@openzeppelin/contracts/access/AccessControl.sol\":3718:4197  function _checkRole(bytes32 role, address account) internal view virtual {... */\n    tag_110:\n        /* \"@openzeppelin/contracts/access/AccessControl.sol\":3806:3828  hasRole(role, account) */\n      tag_117\n        /* \"@openzeppelin/contracts/access/AccessControl.sol\":3814:3818  role */\n      dup3\n        /* \"@openzeppelin/contracts/access/AccessControl.sol\":3820:3827  account */\n      dup3\n        /* \"@openzeppelin/contracts/access/AccessControl.sol\":3806:3813  hasRole */\n      tag_51\n        /* \"@openzeppelin/contracts/access/AccessControl.sol\":3806:3828  hasRole(role, account) */\n      jump\t// in\n    tag_117:\n        /* \"@openzeppelin/contracts/access/AccessControl.sol\":3801:4191  if (!hasRole(role, account)) {... */\n      tag_118\n      jumpi\n        /* \"@openzeppelin/contracts/access/AccessControl.sol\":3989:4017  Strings.toHexString(account) */\n      tag_119\n        /* \"@openzeppelin/contracts/access/AccessControl.sol\":4009:4016  account */\n      dup2\n        /* \"@openzeppelin/contracts/access/AccessControl.sol\":3989:4008  Strings.toHexString */\n      tag_120\n        /* \"@openzeppelin/contracts/access/AccessControl.sol\":3989:4017  Strings.toHexString(account) */\n      jump\t// in\n    tag_119:\n        /* \"@openzeppelin/contracts/access/AccessControl.sol\":4088:4126  Strings.toHexString(uint256(role), 32) */\n      tag_121\n        /* \"@openzeppelin/contracts/access/AccessControl.sol\":4116:4120  role */\n      dup4\n        /* \"@openzeppelin/contracts/access/AccessControl.sol\":4108:4121  uint256(role) */\n      0x00\n      shr\n        /* \"@openzeppelin/contracts/access/AccessControl.sol\":4123:4125  32 */\n      0x20\n        /* \"@openzeppelin/contracts/access/AccessControl.sol\":4088:4107  Strings.toHexString */\n      tag_122\n        /* \"@openzeppelin/contracts/access/AccessControl.sol\":4088:4126  Strings.toHexString(uint256(role), 32) */\n      jump\t// in\n    tag_121:\n        /* \"@openzeppelin/contracts/access/AccessControl.sol\":3896:4148  abi.encodePacked(... */\n      add(0x20, mload(0x40))\n      tag_123\n      swap3\n      swap2\n      swap1\n      tag_124\n      jump\t// in\n    tag_123:\n      mload(0x40)\n      0x20\n      dup2\n      dup4\n      sub\n      sub\n      dup2\n      mstore\n      swap1\n      0x40\n      mstore\n        /* \"@openzeppelin/contracts/access/AccessControl.sol\":3844:4180  revert(... */\n      mload(0x40)\n      0x08c379a000000000000000000000000000000000000000000000000000000000\n      dup2\n      mstore\n      0x04\n      add\n      tag_125\n      swap2\n      swap1\n      tag_126\n      jump\t// in\n    tag_125:\n      mload(0x40)\n      dup1\n      swap2\n      sub\n      swap1\n      revert\n        /* \"@openzeppelin/contracts/access/AccessControl.sol\":3801:4191  if (!hasRole(role, account)) {... */\n    tag_118:\n        /* \"@openzeppelin/contracts/access/AccessControl.sol\":3718:4197  function _checkRole(bytes32 role, address account) internal view virtual {... */\n      pop\n      pop\n      jump\t// out\n        /* \"@openzeppelin/contracts/utils/Strings.sol\":2102:2251  function toHexString(address addr) internal pure returns (string memory) {... */\n    tag_120:\n        /* \"@openzeppelin/contracts/utils/Strings.sol\":2160:2173  string memory */\n      0x60\n        /* \"@openzeppelin/contracts/utils/Strings.sol\":2192:2244  toHexString(uint256(uint160(addr)), _ADDRESS_LENGTH) */\n      tag_128\n        /* \"@openzeppelin/contracts/utils/Strings.sol\":2220:2224  addr */\n      dup3\n        /* \"@openzeppelin/contracts/utils/Strings.sol\":2204:2226  uint256(uint160(addr)) */\n      0xffffffffffffffffffffffffffffffffffffffff\n      and\n        /* \"@openzeppelin/contracts/utils/Strings.sol\":311:313  20 */\n      0x14\n        /* \"@openzeppelin/contracts/utils/Strings.sol\":2192:2244  toHexString(uint256(uint160(addr)), _ADDRESS_LENGTH) */\n      0xff\n      and\n        /* \"@openzeppelin/contracts/utils/Strings.sol\":2192:2203  toHexString */\n      tag_122\n        /* \"@openzeppelin/contracts/utils/Strings.sol\":2192:2244  toHexString(uint256(uint160(addr)), _ADDRESS_LENGTH) */\n      jump\t// in\n    tag_128:\n        /* \"@openzeppelin/contracts/utils/Strings.sol\":2185:2244  return toHexString(uint256(uint160(addr)), _ADDRESS_LENGTH) */\n      swap1\n      pop\n        /* \"@openzeppelin/contracts/utils/Strings.sol\":2102:2251  function toHexString(address addr) internal pure returns (string memory) {... */\n      swap2\n      swap1\n      pop\n      jump\t// out\n        /* \"@openzeppelin/contracts/utils/Strings.sol\":1513:1950  function toHexString(uint256 value, uint256 length) internal pure returns (string memory) {... */\n    tag_122:\n        /* \"@openzeppelin/contracts/utils/Strings.sol\":1588:1601  string memory */\n      0x60\n        /* \"@openzeppelin/contracts/utils/Strings.sol\":1613:1632  bytes memory buffer */\n      0x00\n        /* \"@openzeppelin/contracts/utils/Strings.sol\":1658:1659  2 */\n      0x02\n        /* \"@openzeppelin/contracts/utils/Strings.sol\":1649:1655  length */\n      dup4\n        /* \"@openzeppelin/contracts/utils/Strings.sol\":1645:1646  2 */\n      0x02\n        /* \"@openzeppelin/contracts/utils/Strings.sol\":1645:1655  2 * length */\n      tag_130\n      swap2\n      swap1\n      tag_131\n      jump\t// in\n    tag_130:\n        /* \"@openzeppelin/contracts/utils/Strings.sol\":1645:1659  2 * length + 2 */\n      tag_132\n      swap2\n      swap1\n      tag_133\n      jump\t// in\n    tag_132:\n        /* \"@openzeppelin/contracts/utils/Strings.sol\":1635:1660  new bytes(2 * length + 2) */\n      0xffffffffffffffff\n      dup2\n      gt\n      iszero\n      tag_134\n      jumpi\n      tag_135\n      tag_136\n      jump\t// in\n    tag_135:\n    tag_134:\n      mload(0x40)\n      swap1\n      dup1\n      dup3\n      mstore\n      dup1\n      0x1f\n      add\n      not(0x1f)\n      and\n      0x20\n      add\n      dup3\n      add\n      0x40\n      mstore\n      dup1\n      iszero\n      tag_137\n      jumpi\n      dup2\n      0x20\n      add\n      0x01\n      dup3\n      mul\n      dup1\n      calldatasize\n      dup4\n      calldatacopy\n      dup1\n      dup3\n      add\n      swap2\n      pop\n      pop\n      swap1\n      pop\n    tag_137:\n      pop\n        /* \"@openzeppelin/contracts/utils/Strings.sol\":1613:1660  bytes memory buffer = new bytes(2 * length + 2) */\n      swap1\n      pop\n        /* \"@openzeppelin/contracts/utils/Strings.sol\":1670:1685  buffer[0] = \"0\" */\n      0x3000000000000000000000000000000000000000000000000000000000000000\n        /* \"@openzeppelin/contracts/utils/Strings.sol\":1670:1676  buffer */\n      dup2\n        /* \"@openzeppelin/contracts/utils/Strings.sol\":1677:1678  0 */\n      0x00\n        /* \"@openzeppelin/contracts/utils/Strings.sol\":1670:1679  buffer[0] */\n      dup2\n      mload\n      dup2\n      lt\n      tag_138\n      jumpi\n      tag_139\n      tag_140\n      jump\t// in\n    tag_139:\n    tag_138:\n      0x20\n      add\n      add\n        /* \"@openzeppelin/contracts/utils/Strings.sol\":1670:1685  buffer[0] = \"0\" */\n      swap1\n      not(0xffffffffffffffffffffffffffffffffffffffffffffffffffffffffffffff)\n      and\n      swap1\n      dup2\n      0x00\n      byte\n      swap1\n      mstore8\n      pop\n        /* \"@openzeppelin/contracts/utils/Strings.sol\":1695:1710  buffer[1] = \"x\" */\n      0x7800000000000000000000000000000000000000000000000000000000000000\n        /* \"@openzeppelin/contracts/utils/Strings.sol\":1695:1701  buffer */\n      dup2\n        /* \"@openzeppelin/contracts/utils/Strings.sol\":1702:1703  1 */\n      0x01\n        /* \"@openzeppelin/contracts/utils/Strings.sol\":1695:1704  buffer[1] */\n      dup2\n      mload\n      dup2\n      lt\n      tag_141\n      jumpi\n      tag_142\n      tag_140\n      jump\t// in\n    tag_142:\n    tag_141:\n      0x20\n      add\n      add\n        /* \"@openzeppelin/contracts/utils/Strings.sol\":1695:1710  buffer[1] = \"x\" */\n      swap1\n      not(0xffffffffffffffffffffffffffffffffffffffffffffffffffffffffffffff)\n      and\n      swap1\n      dup2\n      0x00\n      byte\n      swap1\n      mstore8\n      pop\n        /* \"@openzeppelin/contracts/utils/Strings.sol\":1725:1734  uint256 i */\n      0x00\n        /* \"@openzeppelin/contracts/utils/Strings.sol\":1750:1751  1 */\n      0x01\n        /* \"@openzeppelin/contracts/utils/Strings.sol\":1741:1747  length */\n      dup5\n        /* \"@openzeppelin/contracts/utils/Strings.sol\":1737:1738  2 */\n      0x02\n        /* \"@openzeppelin/contracts/utils/Strings.sol\":1737:1747  2 * length */\n      tag_146\n      swap2\n      swap1\n      tag_131\n      jump\t// in\n    tag_146:\n        /* \"@openzeppelin/contracts/utils/Strings.sol\":1737:1751  2 * length + 1 */\n      tag_147\n      swap2\n      swap1\n      tag_133\n      jump\t// in\n    tag_147:\n        /* \"@openzeppelin/contracts/utils/Strings.sol\":1725:1751  uint256 i = 2 * length + 1 */\n      swap1\n      pop\n        /* \"@openzeppelin/contracts/utils/Strings.sol\":1720:1848  for (uint256 i = 2 * length + 1; i > 1; --i) {... */\n    tag_143:\n        /* \"@openzeppelin/contracts/utils/Strings.sol\":1757:1758  1 */\n      0x01\n        /* \"@openzeppelin/contracts/utils/Strings.sol\":1753:1754  i */\n      dup2\n        /* \"@openzeppelin/contracts/utils/Strings.sol\":1753:1758  i > 1 */\n      gt\n        /* \"@openzeppelin/contracts/utils/Strings.sol\":1720:1848  for (uint256 i = 2 * length + 1; i > 1; --i) {... */\n      iszero\n      tag_144\n      jumpi\n        /* \"@openzeppelin/contracts/utils/Strings.sol\":1791:1799  _SYMBOLS */\n      0x3031323334353637383961626364656600000000000000000000000000000000\n        /* \"@openzeppelin/contracts/utils/Strings.sol\":1808:1811  0xf */\n      0x0f\n        /* \"@openzeppelin/contracts/utils/Strings.sol\":1800:1805  value */\n      dup7\n        /* \"@openzeppelin/contracts/utils/Strings.sol\":1800:1811  value & 0xf */\n      and\n        /* \"@openzeppelin/contracts/utils/Strings.sol\":1791:1812  _SYMBOLS[value & 0xf] */\n      0x10\n      dup2\n      lt\n      tag_148\n      jumpi\n      tag_149\n      tag_140\n      jump\t// in\n    tag_149:\n    tag_148:\n      byte\n      0xf8\n      shl\n        /* \"@openzeppelin/contracts/utils/Strings.sol\":1779:1785  buffer */\n      dup3\n        /* \"@openzeppelin/contracts/utils/Strings.sol\":1786:1787  i */\n      dup3\n        /* \"@openzeppelin/contracts/utils/Strings.sol\":1779:1788  buffer[i] */\n      dup2\n      mload\n      dup2\n      lt\n      tag_150\n      jumpi\n      tag_151\n      tag_140\n      jump\t// in\n    tag_151:\n    tag_150:\n      0x20\n      add\n      add\n        /* \"@openzeppelin/contracts/utils/Strings.sol\":1779:1812  buffer[i] = _SYMBOLS[value & 0xf] */\n      swap1\n      not(0xffffffffffffffffffffffffffffffffffffffffffffffffffffffffffffff)\n      and\n      swap1\n      dup2\n      0x00\n      byte\n      swap1\n      mstore8\n      pop\n        /* \"@openzeppelin/contracts/utils/Strings.sol\":1836:1837  4 */\n      0x04\n        /* \"@openzeppelin/contracts/utils/Strings.sol\":1826:1837  value >>= 4 */\n      dup6\n      swap1\n      shr\n      swap5\n      pop\n        /* \"@openzeppelin/contracts/utils/Strings.sol\":1760:1763  --i */\n      dup1\n      tag_152\n      swap1\n      tag_153\n      jump\t// in\n    tag_152:\n      swap1\n      pop\n        /* \"@openzeppelin/contracts/utils/Strings.sol\":1720:1848  for (uint256 i = 2 * length + 1; i > 1; --i) {... */\n      jump(tag_143)\n    tag_144:\n      pop\n        /* \"@openzeppelin/contracts/utils/Strings.sol\":1874:1875  0 */\n      0x00\n        /* \"@openzeppelin/contracts/utils/Strings.sol\":1865:1870  value */\n      dup5\n        /* \"@openzeppelin/contracts/utils/Strings.sol\":1865:1875  value == 0 */\n      eq\n        /* \"@openzeppelin/contracts/utils/Strings.sol\":1857:1912  require(value == 0, \"Strings: hex length insufficient\") */\n      tag_154\n      jumpi\n      mload(0x40)\n      0x08c379a000000000000000000000000000000000000000000000000000000000\n      dup2\n      mstore\n      0x04\n      add\n      tag_155\n      swap1\n      tag_156\n      jump\t// in\n    tag_155:\n      mload(0x40)\n      dup1\n      swap2\n      sub\n      swap1\n      revert\n    tag_154:\n        /* \"@openzeppelin/contracts/utils/Strings.sol\":1936:1942  buffer */\n      dup1\n        /* \"@openzeppelin/contracts/utils/Strings.sol\":1922:1943  return string(buffer) */\n      swap2\n      pop\n      pop\n        /* \"@openzeppelin/contracts/utils/Strings.sol\":1513:1950  function toHexString(uint256 value, uint256 length) internal pure returns (string memory) {... */\n      swap3\n      swap2\n      pop\n      pop\n      jump\t// out\n        /* \"#utility.yul\":88:205   */\n    tag_158:\n        /* \"#utility.yul\":197:198   */\n      0x00\n        /* \"#utility.yul\":194:195   */\n      dup1\n        /* \"#utility.yul\":187:199   */\n      revert\n        /* \"#utility.yul\":334:483   */\n    tag_160:\n        /* \"#utility.yul\":370:377   */\n      0x00\n        /* \"#utility.yul\":410:476   */\n      0xffffffff00000000000000000000000000000000000000000000000000000000\n        /* \"#utility.yul\":403:408   */\n      dup3\n        /* \"#utility.yul\":399:477   */\n      and\n        /* \"#utility.yul\":388:477   */\n      swap1\n      pop\n        /* \"#utility.yul\":334:483   */\n      swap2\n      swap1\n      pop\n      jump\t// out\n        /* \"#utility.yul\":489:609   */\n    tag_161:\n        /* \"#utility.yul\":561:584   */\n      tag_203\n        /* \"#utility.yul\":578:583   */\n      dup2\n        /* \"#utility.yul\":561:584   */\n      tag_160\n      jump\t// in\n    tag_203:\n        /* \"#utility.yul\":554:559   */\n      dup2\n        /* \"#utility.yul\":551:585   */\n      eq\n        /* \"#utility.yul\":541:603   */\n      tag_204\n      jumpi\n        /* \"#utility.yul\":599:600   */\n      0x00\n        /* \"#utility.yul\":596:597   */\n      dup1\n        /* \"#utility.yul\":589:601   */\n      revert\n        /* \"#utility.yul\":541:603   */\n    tag_204:\n        /* \"#utility.yul\":489:609   */\n      pop\n      jump\t// out\n        /* \"#utility.yul\":615:752   */\n    tag_162:\n        /* \"#utility.yul\":660:665   */\n      0x00\n        /* \"#utility.yul\":698:704   */\n      dup2\n        /* \"#utility.yul\":685:705   */\n      calldataload\n        /* \"#utility.yul\":676:705   */\n      swap1\n      pop\n        /* \"#utility.yul\":714:746   */\n      tag_206\n        /* \"#utility.yul\":740:745   */\n      dup2\n        /* \"#utility.yul\":714:746   */\n      tag_161\n      jump\t// in\n    tag_206:\n        /* \"#utility.yul\":615:752   */\n      swap3\n      swap2\n      pop\n      pop\n      jump\t// out\n        /* \"#utility.yul\":758:1085   */\n    tag_18:\n        /* \"#utility.yul\":816:822   */\n      0x00\n        /* \"#utility.yul\":865:867   */\n      0x20\n        /* \"#utility.yul\":853:862   */\n      dup3\n        /* \"#utility.yul\":844:851   */\n      dup5\n        /* \"#utility.yul\":840:863   */\n      sub\n        /* \"#utility.yul\":836:868   */\n      slt\n        /* \"#utility.yul\":833:952   */\n      iszero\n      tag_208\n      jumpi\n        /* \"#utility.yul\":871:950   */\n      tag_209\n      tag_158\n      jump\t// in\n    tag_209:\n        /* \"#utility.yul\":833:952   */\n    tag_208:\n        /* \"#utility.yul\":991:992   */\n      0x00\n        /* \"#utility.yul\":1016:1068   */\n      tag_210\n        /* \"#utility.yul\":1060:1067   */\n      dup5\n        /* \"#utility.yul\":1051:1057   */\n      dup3\n        /* \"#utility.yul\":1040:1049   */\n      dup6\n        /* \"#utility.yul\":1036:1058   */\n      add\n        /* \"#utility.yul\":1016:1068   */\n      tag_162\n      jump\t// in\n    tag_210:\n        /* \"#utility.yul\":1006:1068   */\n      swap2\n      pop\n        /* \"#utility.yul\":962:1078   */\n      pop\n        /* \"#utility.yul\":758:1085   */\n      swap3\n      swap2\n      pop\n      pop\n      jump\t// out\n        /* \"#utility.yul\":1091:1181   */\n    tag_163:\n        /* \"#utility.yul\":1125:1132   */\n      0x00\n        /* \"#utility.yul\":1168:1173   */\n      dup2\n        /* \"#utility.yul\":1161:1174   */\n      iszero\n        /* \"#utility.yul\":1154:1175   */\n      iszero\n        /* \"#utility.yul\":1143:1175   */\n      swap1\n      pop\n        /* \"#utility.yul\":1091:1181   */\n      swap2\n      swap1\n      pop\n      jump\t// out\n        /* \"#utility.yul\":1187:1296   */\n    tag_164:\n        /* \"#utility.yul\":1268:1289   */\n      tag_213\n        /* \"#utility.yul\":1283:1288   */\n      dup2\n        /* \"#utility.yul\":1268:1289   */\n      tag_163\n      jump\t// in\n    tag_213:\n        /* \"#utility.yul\":1263:1266   */\n      dup3\n        /* \"#utility.yul\":1256:1290   */\n      mstore\n        /* \"#utility.yul\":1187:1296   */\n      pop\n      pop\n      jump\t// out\n        /* \"#utility.yul\":1302:1512   */\n    tag_21:\n        /* \"#utility.yul\":1389:1393   */\n      0x00\n        /* \"#utility.yul\":1427:1429   */\n      0x20\n        /* \"#utility.yul\":1416:1425   */\n      dup3\n        /* \"#utility.yul\":1412:1430   */\n      add\n        /* \"#utility.yul\":1404:1430   */\n      swap1\n      pop\n        /* \"#utility.yul\":1440:1505   */\n      tag_215\n        /* \"#utility.yul\":1502:1503   */\n      0x00\n        /* \"#utility.yul\":1491:1500   */\n      dup4\n        /* \"#utility.yul\":1487:1504   */\n      add\n        /* \"#utility.yul\":1478:1484   */\n      dup5\n        /* \"#utility.yul\":1440:1505   */\n      tag_164\n      jump\t// in\n    tag_215:\n        /* \"#utility.yul\":1302:1512   */\n      swap3\n      swap2\n      pop\n      pop\n      jump\t// out\n        /* \"#utility.yul\":1518:1595   */\n    tag_165:\n        /* \"#utility.yul\":1555:1562   */\n      0x00\n        /* \"#utility.yul\":1584:1589   */\n      dup2\n        /* \"#utility.yul\":1573:1589   */\n      swap1\n      pop\n        /* \"#utility.yul\":1518:1595   */\n      swap2\n      swap1\n      pop\n      jump\t// out\n        /* \"#utility.yul\":1601:1723   */\n    tag_166:\n        /* \"#utility.yul\":1674:1698   */\n      tag_218\n        /* \"#utility.yul\":1692:1697   */\n      dup2\n        /* \"#utility.yul\":1674:1698   */\n      tag_165\n      jump\t// in\n    tag_218:\n        /* \"#utility.yul\":1667:1672   */\n      dup2\n        /* \"#utility.yul\":1664:1699   */\n      eq\n        /* \"#utility.yul\":1654:1717   */\n      tag_219\n      jumpi\n        /* \"#utility.yul\":1713:1714   */\n      0x00\n        /* \"#utility.yul\":1710:1711   */\n      dup1\n        /* \"#utility.yul\":1703:1715   */\n      revert\n        /* \"#utility.yul\":1654:1717   */\n    tag_219:\n        /* \"#utility.yul\":1601:1723   */\n      pop\n      jump\t// out\n        /* \"#utility.yul\":1729:1868   */\n    tag_167:\n        /* \"#utility.yul\":1775:1780   */\n      0x00\n        /* \"#utility.yul\":1813:1819   */\n      dup2\n        /* \"#utility.yul\":1800:1820   */\n      calldataload\n        /* \"#utility.yul\":1791:1820   */\n      swap1\n      pop\n        /* \"#utility.yul\":1829:1862   */\n      tag_221\n        /* \"#utility.yul\":1856:1861   */\n      dup2\n        /* \"#utility.yul\":1829:1862   */\n      tag_166\n      jump\t// in\n    tag_221:\n        /* \"#utility.yul\":1729:1868   */\n      swap3\n      swap2\n      pop\n      pop\n      jump\t// out\n        /* \"#utility.yul\":1874:2000   */\n    tag_168:\n        /* \"#utility.yul\":1911:1918   */\n      0x00\n        /* \"#utility.yul\":1951:1993   */\n      0xffffffffffffffffffffffffffffffffffffffff\n        /* \"#utility.yul\":1944:1949   */\n      dup3\n        /* \"#utility.yul\":1940:1994   */\n      and\n        /* \"#utility.yul\":1929:1994   */\n      swap1\n      pop\n        /* \"#utility.yul\":1874:2000   */\n      swap2\n      swap1\n      pop\n      jump\t// out\n        /* \"#utility.yul\":2006:2102   */\n    tag_169:\n        /* \"#utility.yul\":2043:2050   */\n      0x00\n        /* \"#utility.yul\":2072:2096   */\n      tag_224\n        /* \"#utility.yul\":2090:2095   */\n      dup3\n        /* \"#utility.yul\":2072:2096   */\n      tag_168\n      jump\t// in\n    tag_224:\n        /* \"#utility.yul\":2061:2096   */\n      swap1\n      pop\n        /* \"#utility.yul\":2006:2102   */\n      swap2\n      swap1\n      pop\n      jump\t// out\n        /* \"#utility.yul\":2108:2230   */\n    tag_170:\n        /* \"#utility.yul\":2181:2205   */\n      tag_226\n        /* \"#utility.yul\":2199:2204   */\n      dup2\n        /* \"#utility.yul\":2181:2205   */\n      tag_169\n      jump\t// in\n    tag_226:\n        /* \"#utility.yul\":2174:2179   */\n      dup2\n        /* \"#utility.yul\":2171:2206   */\n      eq\n        /* \"#utility.yul\":2161:2224   */\n      tag_227\n      jumpi\n        /* \"#utility.yul\":2220:2221   */\n      0x00\n        /* \"#utility.yul\":2217:2218   */\n      dup1\n        /* \"#utility.yul\":2210:2222   */\n      revert\n        /* \"#utility.yul\":2161:2224   */\n    tag_227:\n        /* \"#utility.yul\":2108:2230   */\n      pop\n      jump\t// out\n        /* \"#utility.yul\":2236:2375   */\n    tag_171:\n        /* \"#utility.yul\":2282:2287   */\n      0x00\n        /* \"#utility.yul\":2320:2326   */\n      dup2\n        /* \"#utility.yul\":2307:2327   */\n      calldataload\n        /* \"#utility.yul\":2298:2327   */\n      swap1\n      pop\n        /* \"#utility.yul\":2336:2369   */\n      tag_229\n        /* \"#utility.yul\":2363:2368   */\n      dup2\n        /* \"#utility.yul\":2336:2369   */\n      tag_170\n      jump\t// in\n    tag_229:\n        /* \"#utility.yul\":2236:2375   */\n      swap3\n      swap2\n      pop\n      pop\n      jump\t// out\n        /* \"#utility.yul\":2381:2855   */\n    tag_24:\n        /* \"#utility.yul\":2449:2455   */\n      0x00\n        /* \"#utility.yul\":2457:2463   */\n      dup1\n        /* \"#utility.yul\":2506:2508   */\n      0x40\n        /* \"#utility.yul\":2494:2503   */\n      dup4\n        /* \"#utility.yul\":2485:2492   */\n      dup6\n        /* \"#utility.yul\":2481:2504   */\n      sub\n        /* \"#utility.yul\":2477:2509   */\n      slt\n        /* \"#utility.yul\":2474:2593   */\n      iszero\n      tag_231\n      jumpi\n        /* \"#utility.yul\":2512:2591   */\n      tag_232\n      tag_158\n      jump\t// in\n    tag_232:\n        /* \"#utility.yul\":2474:2593   */\n    tag_231:\n        /* \"#utility.yul\":2632:2633   */\n      0x00\n        /* \"#utility.yul\":2657:2710   */\n      tag_233\n        /* \"#utility.yul\":2702:2709   */\n      dup6\n        /* \"#utility.yul\":2693:2699   */\n      dup3\n        /* \"#utility.yul\":2682:2691   */\n      dup7\n        /* \"#utility.yul\":2678:2700   */\n      add\n        /* \"#utility.yul\":2657:2710   */\n      tag_167\n      jump\t// in\n    tag_233:\n        /* \"#utility.yul\":2647:2710   */\n      swap3\n      pop\n        /* \"#utility.yul\":2603:2720   */\n      pop\n        /* \"#utility.yul\":2759:2761   */\n      0x20\n        /* \"#utility.yul\":2785:2838   */\n      tag_234\n        /* \"#utility.yul\":2830:2837   */\n      dup6\n        /* \"#utility.yul\":2821:2827   */\n      dup3\n        /* \"#utility.yul\":2810:2819   */\n      dup7\n        /* \"#utility.yul\":2806:2828   */\n      add\n        /* \"#utility.yul\":2785:2838   */\n      tag_171\n      jump\t// in\n    tag_234:\n        /* \"#utility.yul\":2775:2838   */\n      swap2\n      pop\n        /* \"#utility.yul\":2730:2848   */\n      pop\n        /* \"#utility.yul\":2381:2855   */\n      swap3\n      pop\n      swap3\n      swap1\n      pop\n      jump\t// out\n        /* \"#utility.yul\":2861:3190   */\n    tag_28:\n        /* \"#utility.yul\":2920:2926   */\n      0x00\n        /* \"#utility.yul\":2969:2971   */\n      0x20\n        /* \"#utility.yul\":2957:2966   */\n      dup3\n        /* \"#utility.yul\":2948:2955   */\n      dup5\n        /* \"#utility.yul\":2944:2967   */\n      sub\n        /* \"#utility.yul\":2940:2972   */\n      slt\n        /* \"#utility.yul\":2937:3056   */\n      iszero\n      tag_236\n      jumpi\n        /* \"#utility.yul\":2975:3054   */\n      tag_237\n      tag_158\n      jump\t// in\n    tag_237:\n        /* \"#utility.yul\":2937:3056   */\n    tag_236:\n        /* \"#utility.yul\":3095:3096   */\n      0x00\n        /* \"#utility.yul\":3120:3173   */\n      tag_238\n        /* \"#utility.yul\":3165:3172   */\n      dup5\n        /* \"#utility.yul\":3156:3162   */\n      dup3\n        /* \"#utility.yul\":3145:3154   */\n      dup6\n        /* \"#utility.yul\":3141:3163   */\n      add\n        /* \"#utility.yul\":3120:3173   */\n      tag_167\n      jump\t// in\n    tag_238:\n        /* \"#utility.yul\":3110:3173   */\n      swap2\n      pop\n        /* \"#utility.yul\":3066:3183   */\n      pop\n        /* \"#utility.yul\":2861:3190   */\n      swap3\n      swap2\n      pop\n      pop\n      jump\t// out\n        /* \"#utility.yul\":3196:3314   */\n    tag_172:\n        /* \"#utility.yul\":3283:3307   */\n      tag_240\n        /* \"#utility.yul\":3301:3306   */\n      dup2\n        /* \"#utility.yul\":3283:3307   */\n      tag_165\n      jump\t// in\n    tag_240:\n        /* \"#utility.yul\":3278:3281   */\n      dup3\n        /* \"#utility.yul\":3271:3308   */\n      mstore\n        /* \"#utility.yul\":3196:3314   */\n      pop\n      pop\n      jump\t// out\n        /* \"#utility.yul\":3320:3542   */\n    tag_31:\n        /* \"#utility.yul\":3413:3417   */\n      0x00\n        /* \"#utility.yul\":3451:3453   */\n      0x20\n        /* \"#utility.yul\":3440:3449   */\n      dup3\n        /* \"#utility.yul\":3436:3454   */\n      add\n        /* \"#utility.yul\":3428:3454   */\n      swap1\n      pop\n        /* \"#utility.yul\":3464:3535   */\n      tag_242\n        /* \"#utility.yul\":3532:3533   */\n      0x00\n        /* \"#utility.yul\":3521:3530   */\n      dup4\n        /* \"#utility.yul\":3517:3534   */\n      add\n        /* \"#utility.yul\":3508:3514   */\n      dup5\n        /* \"#utility.yul\":3464:3535   */\n      tag_172\n      jump\t// in\n    tag_242:\n        /* \"#utility.yul\":3320:3542   */\n      swap3\n      swap2\n      pop\n      pop\n      jump\t// out\n        /* \"#utility.yul\":3548:3625   */\n    tag_173:\n        /* \"#utility.yul\":3585:3592   */\n      0x00\n        /* \"#utility.yul\":3614:3619   */\n      dup2\n        /* \"#utility.yul\":3603:3619   */\n      swap1\n      pop\n        /* \"#utility.yul\":3548:3625   */\n      swap2\n      swap1\n      pop\n      jump\t// out\n        /* \"#utility.yul\":3631:3749   */\n    tag_174:\n        /* \"#utility.yul\":3718:3742   */\n      tag_245\n        /* \"#utility.yul\":3736:3741   */\n      dup2\n        /* \"#utility.yul\":3718:3742   */\n      tag_173\n      jump\t// in\n    tag_245:\n        /* \"#utility.yul\":3713:3716   */\n      dup3\n        /* \"#utility.yul\":3706:3743   */\n      mstore\n        /* \"#utility.yul\":3631:3749   */\n      pop\n      pop\n      jump\t// out\n        /* \"#utility.yul\":3755:3977   */\n    tag_35:\n        /* \"#utility.yul\":3848:3852   */\n      0x00\n        /* \"#utility.yul\":3886:3888   */\n      0x20\n        /* \"#utility.yul\":3875:3884   */\n      dup3\n        /* \"#utility.yul\":3871:3889   */\n      add\n        /* \"#utility.yul\":3863:3889   */\n      swap1\n      pop\n        /* \"#utility.yul\":3899:3970   */\n      tag_247\n        /* \"#utility.yul\":3967:3968   */\n      0x00\n        /* \"#utility.yul\":3956:3965   */\n      dup4\n        /* \"#utility.yul\":3952:3969   */\n      add\n        /* \"#utility.yul\":3943:3949   */\n      dup5\n        /* \"#utility.yul\":3899:3970   */\n      tag_174\n      jump\t// in\n    tag_247:\n        /* \"#utility.yul\":3755:3977   */\n      swap3\n      swap2\n      pop\n      pop\n      jump\t// out\n        /* \"#utility.yul\":3983:4105   */\n    tag_175:\n        /* \"#utility.yul\":4056:4080   */\n      tag_249\n        /* \"#utility.yul\":4074:4079   */\n      dup2\n        /* \"#utility.yul\":4056:4080   */\n      tag_173\n      jump\t// in\n    tag_249:\n        /* \"#utility.yul\":4049:4054   */\n      dup2\n        /* \"#utility.yul\":4046:4081   */\n      eq\n        /* \"#utility.yul\":4036:4099   */\n      tag_250\n      jumpi\n        /* \"#utility.yul\":4095:4096   */\n      0x00\n        /* \"#utility.yul\":4092:4093   */\n      dup1\n        /* \"#utility.yul\":4085:4097   */\n      revert\n        /* \"#utility.yul\":4036:4099   */\n    tag_250:\n        /* \"#utility.yul\":3983:4105   */\n      pop\n      jump\t// out\n        /* \"#utility.yul\":4111:4250   */\n    tag_176:\n        /* \"#utility.yul\":4157:4162   */\n      0x00\n        /* \"#utility.yul\":4195:4201   */\n      dup2\n        /* \"#utility.yul\":4182:4202   */\n      calldataload\n        /* \"#utility.yul\":4173:4202   */\n      swap1\n      pop\n        /* \"#utility.yul\":4211:4244   */\n      tag_252\n        /* \"#utility.yul\":4238:4243   */\n      dup2\n        /* \"#utility.yul\":4211:4244   */\n      tag_175\n      jump\t// in\n    tag_252:\n        /* \"#utility.yul\":4111:4250   */\n      swap3\n      swap2\n      pop\n      pop\n      jump\t// out\n        /* \"#utility.yul\":4256:4585   */\n    tag_44:\n        /* \"#utility.yul\":4315:4321   */\n      0x00\n        /* \"#utility.yul\":4364:4366   */\n      0x20\n        /* \"#utility.yul\":4352:4361   */\n      dup3\n        /* \"#utility.yul\":4343:4350   */\n      dup5\n        /* \"#utility.yul\":4339:4362   */\n      sub\n        /* \"#utility.yul\":4335:4367   */\n      slt\n        /* \"#utility.yul\":4332:4451   */\n      iszero\n      tag_254\n      jumpi\n        /* \"#utility.yul\":4370:4449   */\n      tag_255\n      tag_158\n      jump\t// in\n    tag_255:\n        /* \"#utility.yul\":4332:4451   */\n    tag_254:\n        /* \"#utility.yul\":4490:4491   */\n      0x00\n        /* \"#utility.yul\":4515:4568   */\n      tag_256\n        /* \"#utility.yul\":4560:4567   */\n      dup5\n        /* \"#utility.yul\":4551:4557   */\n      dup3\n        /* \"#utility.yul\":4540:4549   */\n      dup6\n        /* \"#utility.yul\":4536:4558   */\n      add\n        /* \"#utility.yul\":4515:4568   */\n      tag_176\n      jump\t// in\n    tag_256:\n        /* \"#utility.yul\":4505:4568   */\n      swap2\n      pop\n        /* \"#utility.yul\":4461:4578   */\n      pop\n        /* \"#utility.yul\":4256:4585   */\n      swap3\n      swap2\n      pop\n      pop\n      jump\t// out\n        /* \"#utility.yul\":4591:4760   */\n    tag_177:\n        /* \"#utility.yul\":4675:4686   */\n      0x00\n        /* \"#utility.yul\":4709:4715   */\n      dup3\n        /* \"#utility.yul\":4704:4707   */\n      dup3\n        /* \"#utility.yul\":4697:4716   */\n      mstore\n        /* \"#utility.yul\":4749:4753   */\n      0x20\n        /* \"#utility.yul\":4744:4747   */\n      dup3\n        /* \"#utility.yul\":4740:4754   */\n      add\n        /* \"#utility.yul\":4725:4754   */\n      swap1\n      pop\n        /* \"#utility.yul\":4591:4760   */\n      swap3\n      swap2\n      pop\n      pop\n      jump\t// out\n        /* \"#utility.yul\":4766:4989   */\n    tag_178:\n        /* \"#utility.yul\":4906:4940   */\n      0x4a757374207468652041646d696e2063616e2075736520746869732066756e63\n        /* \"#utility.yul\":4902:4903   */\n      0x00\n        /* \"#utility.yul\":4894:4900   */\n      dup3\n        /* \"#utility.yul\":4890:4904   */\n      add\n        /* \"#utility.yul\":4883:4941   */\n      mstore\n        /* \"#utility.yul\":4975:4981   */\n      0x74696f6e00000000000000000000000000000000000000000000000000000000\n        /* \"#utility.yul\":4970:4972   */\n      0x20\n        /* \"#utility.yul\":4962:4968   */\n      dup3\n        /* \"#utility.yul\":4958:4973   */\n      add\n        /* \"#utility.yul\":4951:4982   */\n      mstore\n        /* \"#utility.yul\":4766:4989   */\n      pop\n      jump\t// out\n        /* \"#utility.yul\":4995:5361   */\n    tag_179:\n        /* \"#utility.yul\":5137:5140   */\n      0x00\n        /* \"#utility.yul\":5158:5225   */\n      tag_260\n        /* \"#utility.yul\":5222:5224   */\n      0x24\n        /* \"#utility.yul\":5217:5220   */\n      dup4\n        /* \"#utility.yul\":5158:5225   */\n      tag_177\n      jump\t// in\n    tag_260:\n        /* \"#utility.yul\":5151:5225   */\n      swap2\n      pop\n        /* \"#utility.yul\":5234:5327   */\n      tag_261\n        /* \"#utility.yul\":5323:5326   */\n      dup3\n        /* \"#utility.yul\":5234:5327   */\n      tag_178\n      jump\t// in\n    tag_261:\n        /* \"#utility.yul\":5352:5354   */\n      0x40\n        /* \"#utility.yul\":5347:5350   */\n      dup3\n        /* \"#utility.yul\":5343:5355   */\n      add\n        /* \"#utility.yul\":5336:5355   */\n      swap1\n      pop\n        /* \"#utility.yul\":4995:5361   */\n      swap2\n      swap1\n      pop\n      jump\t// out\n        /* \"#utility.yul\":5367:5786   */\n    tag_70:\n        /* \"#utility.yul\":5533:5537   */\n      0x00\n        /* \"#utility.yul\":5571:5573   */\n      0x20\n        /* \"#utility.yul\":5560:5569   */\n      dup3\n        /* \"#utility.yul\":5556:5574   */\n      add\n        /* \"#utility.yul\":5548:5574   */\n      swap1\n      pop\n        /* \"#utility.yul\":5620:5629   */\n      dup2\n        /* \"#utility.yul\":5614:5618   */\n      dup2\n        /* \"#utility.yul\":5610:5630   */\n      sub\n        /* \"#utility.yul\":5606:5607   */\n      0x00\n        /* \"#utility.yul\":5595:5604   */\n      dup4\n        /* \"#utility.yul\":5591:5608   */\n      add\n        /* \"#utility.yul\":5584:5631   */\n      mstore\n        /* \"#utility.yul\":5648:5779   */\n      tag_263\n        /* \"#utility.yul\":5774:5778   */\n      dup2\n        /* \"#utility.yul\":5648:5779   */\n      tag_179\n      jump\t// in\n    tag_263:\n        /* \"#utility.yul\":5640:5779   */\n      swap1\n      pop\n        /* \"#utility.yul\":5367:5786   */\n      swap2\n      swap1\n      pop\n      jump\t// out\n        /* \"#utility.yul\":5792:6026   */\n    tag_180:\n        /* \"#utility.yul\":5932:5966   */\n      0x416363657373436f6e74726f6c3a2063616e206f6e6c792072656e6f756e6365\n        /* \"#utility.yul\":5928:5929   */\n      0x00\n        /* \"#utility.yul\":5920:5926   */\n      dup3\n        /* \"#utility.yul\":5916:5930   */\n      add\n        /* \"#utility.yul\":5909:5967   */\n      mstore\n        /* \"#utility.yul\":6001:6018   */\n      0x20726f6c657320666f722073656c660000000000000000000000000000000000\n        /* \"#utility.yul\":5996:5998   */\n      0x20\n        /* \"#utility.yul\":5988:5994   */\n      dup3\n        /* \"#utility.yul\":5984:5999   */\n      add\n        /* \"#utility.yul\":5977:6019   */\n      mstore\n        /* \"#utility.yul\":5792:6026   */\n      pop\n      jump\t// out\n        /* \"#utility.yul\":6032:6398   */\n    tag_181:\n        /* \"#utility.yul\":6174:6177   */\n      0x00\n        /* \"#utility.yul\":6195:6262   */\n      tag_266\n        /* \"#utility.yul\":6259:6261   */\n      0x2f\n        /* \"#utility.yul\":6254:6257   */\n      dup4\n        /* \"#utility.yul\":6195:6262   */\n      tag_177\n      jump\t// in\n    tag_266:\n        /* \"#utility.yul\":6188:6262   */\n      swap2\n      pop\n        /* \"#utility.yul\":6271:6364   */\n      tag_267\n        /* \"#utility.yul\":6360:6363   */\n      dup3\n        /* \"#utility.yul\":6271:6364   */\n      tag_180\n      jump\t// in\n    tag_267:\n        /* \"#utility.yul\":6389:6391   */\n      0x40\n        /* \"#utility.yul\":6384:6387   */\n      dup3\n        /* \"#utility.yul\":6380:6392   */\n      add\n        /* \"#utility.yul\":6373:6392   */\n      swap1\n      pop\n        /* \"#utility.yul\":6032:6398   */\n      swap2\n      swap1\n      pop\n      jump\t// out\n        /* \"#utility.yul\":6404:6823   */\n    tag_87:\n        /* \"#utility.yul\":6570:6574   */\n      0x00\n        /* \"#utility.yul\":6608:6610   */\n      0x20\n        /* \"#utility.yul\":6597:6606   */\n      dup3\n        /* \"#utility.yul\":6593:6611   */\n      add\n        /* \"#utility.yul\":6585:6611   */\n      swap1\n      pop\n        /* \"#utility.yul\":6657:6666   */\n      dup2\n        /* \"#utility.yul\":6651:6655   */\n      dup2\n        /* \"#utility.yul\":6647:6667   */\n      sub\n        /* \"#utility.yul\":6643:6644   */\n      0x00\n        /* \"#utility.yul\":6632:6641   */\n      dup4\n        /* \"#utility.yul\":6628:6645   */\n      add\n        /* \"#utility.yul\":6621:6668   */\n      mstore\n        /* \"#utility.yul\":6685:6816   */\n      tag_269\n        /* \"#utility.yul\":6811:6815   */\n      dup2\n        /* \"#utility.yul\":6685:6816   */\n      tag_181\n      jump\t// in\n    tag_269:\n        /* \"#utility.yul\":6677:6816   */\n      swap1\n      pop\n        /* \"#utility.yul\":6404:6823   */\n      swap2\n      swap1\n      pop\n      jump\t// out\n        /* \"#utility.yul\":6829:7052   */\n    tag_182:\n        /* \"#utility.yul\":6969:7003   */\n      0x4a757374207468652055534552532063616e2075736520746869732066756e63\n        /* \"#utility.yul\":6965:6966   */\n      0x00\n        /* \"#utility.yul\":6957:6963   */\n      dup3\n        /* \"#utility.yul\":6953:6967   */\n      add\n        /* \"#utility.yul\":6946:7004   */\n      mstore\n        /* \"#utility.yul\":7038:7044   */\n      0x74696f6e00000000000000000000000000000000000000000000000000000000\n        /* \"#utility.yul\":7033:7035   */\n      0x20\n        /* \"#utility.yul\":7025:7031   */\n      dup3\n        /* \"#utility.yul\":7021:7036   */\n      add\n        /* \"#utility.yul\":7014:7045   */\n      mstore\n        /* \"#utility.yul\":6829:7052   */\n      pop\n      jump\t// out\n        /* \"#utility.yul\":7058:7424   */\n    tag_183:\n        /* \"#utility.yul\":7200:7203   */\n      0x00\n        /* \"#utility.yul\":7221:7288   */\n      tag_272\n        /* \"#utility.yul\":7285:7287   */\n      0x24\n        /* \"#utility.yul\":7280:7283   */\n      dup4\n        /* \"#utility.yul\":7221:7288   */\n      tag_177\n      jump\t// in\n    tag_272:\n        /* \"#utility.yul\":7214:7288   */\n      swap2\n      pop\n        /* \"#utility.yul\":7297:7390   */\n      tag_273\n        /* \"#utility.yul\":7386:7389   */\n      dup3\n        /* \"#utility.yul\":7297:7390   */\n      tag_182\n      jump\t// in\n    tag_273:\n        /* \"#utility.yul\":7415:7417   */\n      0x40\n        /* \"#utility.yul\":7410:7413   */\n      dup3\n        /* \"#utility.yul\":7406:7418   */\n      add\n        /* \"#utility.yul\":7399:7418   */\n      swap1\n      pop\n        /* \"#utility.yul\":7058:7424   */\n      swap2\n      swap1\n      pop\n      jump\t// out\n        /* \"#utility.yul\":7430:7849   */\n    tag_94:\n        /* \"#utility.yul\":7596:7600   */\n      0x00\n        /* \"#utility.yul\":7634:7636   */\n      0x20\n        /* \"#utility.yul\":7623:7632   */\n      dup3\n        /* \"#utility.yul\":7619:7637   */\n      add\n        /* \"#utility.yul\":7611:7637   */\n      swap1\n      pop\n        /* \"#utility.yul\":7683:7692   */\n      dup2\n        /* \"#utility.yul\":7677:7681   */\n      dup2\n        /* \"#utility.yul\":7673:7693   */\n      sub\n        /* \"#utility.yul\":7669:7670   */\n      0x00\n        /* \"#utility.yul\":7658:7667   */\n      dup4\n        /* \"#utility.yul\":7654:7671   */\n      add\n        /* \"#utility.yul\":7647:7694   */\n      mstore\n        /* \"#utility.yul\":7711:7842   */\n      tag_275\n        /* \"#utility.yul\":7837:7841   */\n      dup2\n        /* \"#utility.yul\":7711:7842   */\n      tag_183\n      jump\t// in\n    tag_275:\n        /* \"#utility.yul\":7703:7842   */\n      swap1\n      pop\n        /* \"#utility.yul\":7430:7849   */\n      swap2\n      swap1\n      pop\n      jump\t// out\n        /* \"#utility.yul\":7855:8003   */\n    tag_184:\n        /* \"#utility.yul\":7957:7968   */\n      0x00\n        /* \"#utility.yul\":7994:7997   */\n      dup2\n        /* \"#utility.yul\":7979:7997   */\n      swap1\n      pop\n        /* \"#utility.yul\":7855:8003   */\n      swap3\n      swap2\n      pop\n      pop\n      jump\t// out\n        /* \"#utility.yul\":8009:8182   */\n    tag_185:\n        /* \"#utility.yul\":8149:8174   */\n      0x416363657373436f6e74726f6c3a206163636f756e7420000000000000000000\n        /* \"#utility.yul\":8145:8146   */\n      0x00\n        /* \"#utility.yul\":8137:8143   */\n      dup3\n        /* \"#utility.yul\":8133:8147   */\n      add\n        /* \"#utility.yul\":8126:8175   */\n      mstore\n        /* \"#utility.yul\":8009:8182   */\n      pop\n      jump\t// out\n        /* \"#utility.yul\":8188:8590   */\n    tag_186:\n        /* \"#utility.yul\":8348:8351   */\n      0x00\n        /* \"#utility.yul\":8369:8454   */\n      tag_279\n        /* \"#utility.yul\":8451:8453   */\n      0x17\n        /* \"#utility.yul\":8446:8449   */\n      dup4\n        /* \"#utility.yul\":8369:8454   */\n      tag_184\n      jump\t// in\n    tag_279:\n        /* \"#utility.yul\":8362:8454   */\n      swap2\n      pop\n        /* \"#utility.yul\":8463:8556   */\n      tag_280\n        /* \"#utility.yul\":8552:8555   */\n      dup3\n        /* \"#utility.yul\":8463:8556   */\n      tag_185\n      jump\t// in\n    tag_280:\n        /* \"#utility.yul\":8581:8583   */\n      0x17\n        /* \"#utility.yul\":8576:8579   */\n      dup3\n        /* \"#utility.yul\":8572:8584   */\n      add\n        /* \"#utility.yul\":8565:8584   */\n      swap1\n      pop\n        /* \"#utility.yul\":8188:8590   */\n      swap2\n      swap1\n      pop\n      jump\t// out\n        /* \"#utility.yul\":8596:8695   */\n    tag_187:\n        /* \"#utility.yul\":8648:8654   */\n      0x00\n        /* \"#utility.yul\":8682:8687   */\n      dup2\n        /* \"#utility.yul\":8676:8688   */\n      mload\n        /* \"#utility.yul\":8666:8688   */\n      swap1\n      pop\n        /* \"#utility.yul\":8596:8695   */\n      swap2\n      swap1\n      pop\n      jump\t// out\n        /* \"#utility.yul\":8701:8947   */\n    tag_188:\n        /* \"#utility.yul\":8782:8783   */\n      0x00\n        /* \"#utility.yul\":8792:8905   */\n    tag_283:\n        /* \"#utility.yul\":8806:8812   */\n      dup4\n        /* \"#utility.yul\":8803:8804   */\n      dup2\n        /* \"#utility.yul\":8800:8813   */\n      lt\n        /* \"#utility.yul\":8792:8905   */\n      iszero\n      tag_285\n      jumpi\n        /* \"#utility.yul\":8891:8892   */\n      dup1\n        /* \"#utility.yul\":8886:8889   */\n      dup3\n        /* \"#utility.yul\":8882:8893   */\n      add\n        /* \"#utility.yul\":8876:8894   */\n      mload\n        /* \"#utility.yul\":8872:8873   */\n      dup2\n        /* \"#utility.yul\":8867:8870   */\n      dup5\n        /* \"#utility.yul\":8863:8874   */\n      add\n        /* \"#utility.yul\":8856:8895   */\n      mstore\n        /* \"#utility.yul\":8828:8830   */\n      0x20\n        /* \"#utility.yul\":8825:8826   */\n      dup2\n        /* \"#utility.yul\":8821:8831   */\n      add\n        /* \"#utility.yul\":8816:8831   */\n      swap1\n      pop\n        /* \"#utility.yul\":8792:8905   */\n      jump(tag_283)\n    tag_285:\n        /* \"#utility.yul\":8939:8940   */\n      0x00\n        /* \"#utility.yul\":8930:8936   */\n      dup5\n        /* \"#utility.yul\":8925:8928   */\n      dup5\n        /* \"#utility.yul\":8921:8937   */\n      add\n        /* \"#utility.yul\":8914:8941   */\n      mstore\n        /* \"#utility.yul\":8763:8947   */\n      pop\n        /* \"#utility.yul\":8701:8947   */\n      pop\n      pop\n      pop\n      jump\t// out\n        /* \"#utility.yul\":8953:9343   */\n    tag_189:\n        /* \"#utility.yul\":9059:9062   */\n      0x00\n        /* \"#utility.yul\":9087:9126   */\n      tag_287\n        /* \"#utility.yul\":9120:9125   */\n      dup3\n        /* \"#utility.yul\":9087:9126   */\n      tag_187\n      jump\t// in\n    tag_287:\n        /* \"#utility.yul\":9142:9231   */\n      tag_288\n        /* \"#utility.yul\":9224:9230   */\n      dup2\n        /* \"#utility.yul\":9219:9222   */\n      dup6\n        /* \"#utility.yul\":9142:9231   */\n      tag_184\n      jump\t// in\n    tag_288:\n        /* \"#utility.yul\":9135:9231   */\n      swap4\n      pop\n        /* \"#utility.yul\":9240:9305   */\n      tag_289\n        /* \"#utility.yul\":9298:9304   */\n      dup2\n        /* \"#utility.yul\":9293:9296   */\n      dup6\n        /* \"#utility.yul\":9286:9290   */\n      0x20\n        /* \"#utility.yul\":9279:9284   */\n      dup7\n        /* \"#utility.yul\":9275:9291   */\n      add\n        /* \"#utility.yul\":9240:9305   */\n      tag_188\n      jump\t// in\n    tag_289:\n        /* \"#utility.yul\":9330:9336   */\n      dup1\n        /* \"#utility.yul\":9325:9328   */\n      dup5\n        /* \"#utility.yul\":9321:9337   */\n      add\n        /* \"#utility.yul\":9314:9337   */\n      swap2\n      pop\n        /* \"#utility.yul\":9063:9343   */\n      pop\n        /* \"#utility.yul\":8953:9343   */\n      swap3\n      swap2\n      pop\n      pop\n      jump\t// out\n        /* \"#utility.yul\":9349:9516   */\n    tag_190:\n        /* \"#utility.yul\":9489:9508   */\n      0x206973206d697373696e6720726f6c6520000000000000000000000000000000\n        /* \"#utility.yul\":9485:9486   */\n      0x00\n        /* \"#utility.yul\":9477:9483   */\n      dup3\n        /* \"#utility.yul\":9473:9487   */\n      add\n        /* \"#utility.yul\":9466:9509   */\n      mstore\n        /* \"#utility.yul\":9349:9516   */\n      pop\n      jump\t// out\n        /* \"#utility.yul\":9522:9924   */\n    tag_191:\n        /* \"#utility.yul\":9682:9685   */\n      0x00\n        /* \"#utility.yul\":9703:9788   */\n      tag_292\n        /* \"#utility.yul\":9785:9787   */\n      0x11\n        /* \"#utility.yul\":9780:9783   */\n      dup4\n        /* \"#utility.yul\":9703:9788   */\n      tag_184\n      jump\t// in\n    tag_292:\n        /* \"#utility.yul\":9696:9788   */\n      swap2\n      pop\n        /* \"#utility.yul\":9797:9890   */\n      tag_293\n        /* \"#utility.yul\":9886:9889   */\n      dup3\n        /* \"#utility.yul\":9797:9890   */\n      tag_190\n      jump\t// in\n    tag_293:\n        /* \"#utility.yul\":9915:9917   */\n      0x11\n        /* \"#utility.yul\":9910:9913   */\n      dup3\n        /* \"#utility.yul\":9906:9918   */\n      add\n        /* \"#utility.yul\":9899:9918   */\n      swap1\n      pop\n        /* \"#utility.yul\":9522:9924   */\n      swap2\n      swap1\n      pop\n      jump\t// out\n        /* \"#utility.yul\":9930:10897   */\n    tag_124:\n        /* \"#utility.yul\":10312:10315   */\n      0x00\n        /* \"#utility.yul\":10334:10482   */\n      tag_295\n        /* \"#utility.yul\":10478:10481   */\n      dup3\n        /* \"#utility.yul\":10334:10482   */\n      tag_186\n      jump\t// in\n    tag_295:\n        /* \"#utility.yul\":10327:10482   */\n      swap2\n      pop\n        /* \"#utility.yul\":10499:10594   */\n      tag_296\n        /* \"#utility.yul\":10590:10593   */\n      dup3\n        /* \"#utility.yul\":10581:10587   */\n      dup6\n        /* \"#utility.yul\":10499:10594   */\n      tag_189\n      jump\t// in\n    tag_296:\n        /* \"#utility.yul\":10492:10594   */\n      swap2\n      pop\n        /* \"#utility.yul\":10611:10759   */\n      tag_297\n        /* \"#utility.yul\":10755:10758   */\n      dup3\n        /* \"#utility.yul\":10611:10759   */\n      tag_191\n      jump\t// in\n    tag_297:\n        /* \"#utility.yul\":10604:10759   */\n      swap2\n      pop\n        /* \"#utility.yul\":10776:10871   */\n      tag_298\n        /* \"#utility.yul\":10867:10870   */\n      dup3\n        /* \"#utility.yul\":10858:10864   */\n      dup5\n        /* \"#utility.yul\":10776:10871   */\n      tag_189\n      jump\t// in\n    tag_298:\n        /* \"#utility.yul\":10769:10871   */\n      swap2\n      pop\n        /* \"#utility.yul\":10888:10891   */\n      dup2\n        /* \"#utility.yul\":10881:10891   */\n      swap1\n      pop\n        /* \"#utility.yul\":9930:10897   */\n      swap4\n      swap3\n      pop\n      pop\n      pop\n      jump\t// out\n        /* \"#utility.yul\":10903:11005   */\n    tag_192:\n        /* \"#utility.yul\":10944:10950   */\n      0x00\n        /* \"#utility.yul\":10995:10997   */\n      0x1f\n        /* \"#utility.yul\":10991:10998   */\n      not\n        /* \"#utility.yul\":10986:10988   */\n      0x1f\n        /* \"#utility.yul\":10979:10984   */\n      dup4\n        /* \"#utility.yul\":10975:10989   */\n      add\n        /* \"#utility.yul\":10971:10999   */\n      and\n        /* \"#utility.yul\":10961:10999   */\n      swap1\n      pop\n        /* \"#utility.yul\":10903:11005   */\n      swap2\n      swap1\n      pop\n      jump\t// out\n        /* \"#utility.yul\":11011:11388   */\n    tag_193:\n        /* \"#utility.yul\":11099:11102   */\n      0x00\n        /* \"#utility.yul\":11127:11166   */\n      tag_301\n        /* \"#utility.yul\":11160:11165   */\n      dup3\n        /* \"#utility.yul\":11127:11166   */\n      tag_187\n      jump\t// in\n    tag_301:\n        /* \"#utility.yul\":11182:11253   */\n      tag_302\n        /* \"#utility.yul\":11246:11252   */\n      dup2\n        /* \"#utility.yul\":11241:11244   */\n      dup6\n        /* \"#utility.yul\":11182:11253   */\n      tag_177\n      jump\t// in\n    tag_302:\n        /* \"#utility.yul\":11175:11253   */\n      swap4\n      pop\n        /* \"#utility.yul\":11262:11327   */\n      tag_303\n        /* \"#utility.yul\":11320:11326   */\n      dup2\n        /* \"#utility.yul\":11315:11318   */\n      dup6\n        /* \"#utility.yul\":11308:11312   */\n      0x20\n        /* \"#utility.yul\":11301:11306   */\n      dup7\n        /* \"#utility.yul\":11297:11313   */\n      add\n        /* \"#utility.yul\":11262:11327   */\n      tag_188\n      jump\t// in\n    tag_303:\n        /* \"#utility.yul\":11352:11381   */\n      tag_304\n        /* \"#utility.yul\":11374:11380   */\n      dup2\n        /* \"#utility.yul\":11352:11381   */\n      tag_192\n      jump\t// in\n    tag_304:\n        /* \"#utility.yul\":11347:11350   */\n      dup5\n        /* \"#utility.yul\":11343:11382   */\n      add\n        /* \"#utility.yul\":11336:11382   */\n      swap2\n      pop\n        /* \"#utility.yul\":11103:11388   */\n      pop\n        /* \"#utility.yul\":11011:11388   */\n      swap3\n      swap2\n      pop\n      pop\n      jump\t// out\n        /* \"#utility.yul\":11394:11707   */\n    tag_126:\n        /* \"#utility.yul\":11507:11511   */\n      0x00\n        /* \"#utility.yul\":11545:11547   */\n      0x20\n        /* \"#utility.yul\":11534:11543   */\n      dup3\n        /* \"#utility.yul\":11530:11548   */\n      add\n        /* \"#utility.yul\":11522:11548   */\n      swap1\n      pop\n        /* \"#utility.yul\":11594:11603   */\n      dup2\n        /* \"#utility.yul\":11588:11592   */\n      dup2\n        /* \"#utility.yul\":11584:11604   */\n      sub\n        /* \"#utility.yul\":11580:11581   */\n      0x00\n        /* \"#utility.yul\":11569:11578   */\n      dup4\n        /* \"#utility.yul\":11565:11582   */\n      add\n        /* \"#utility.yul\":11558:11605   */\n      mstore\n        /* \"#utility.yul\":11622:11700   */\n      tag_306\n        /* \"#utility.yul\":11695:11699   */\n      dup2\n        /* \"#utility.yul\":11686:11692   */\n      dup5\n        /* \"#utility.yul\":11622:11700   */\n      tag_193\n      jump\t// in\n    tag_306:\n        /* \"#utility.yul\":11614:11700   */\n      swap1\n      pop\n        /* \"#utility.yul\":11394:11707   */\n      swap3\n      swap2\n      pop\n      pop\n      jump\t// out\n        /* \"#utility.yul\":11713:11893   */\n    tag_194:\n        /* \"#utility.yul\":11761:11838   */\n      0x4e487b7100000000000000000000000000000000000000000000000000000000\n        /* \"#utility.yul\":11758:11759   */\n      0x00\n        /* \"#utility.yul\":11751:11839   */\n      mstore\n        /* \"#utility.yul\":11858:11862   */\n      0x11\n        /* \"#utility.yul\":11855:11856   */\n      0x04\n        /* \"#utility.yul\":11848:11863   */\n      mstore\n        /* \"#utility.yul\":11882:11886   */\n      0x24\n        /* \"#utility.yul\":11879:11880   */\n      0x00\n        /* \"#utility.yul\":11872:11887   */\n      revert\n        /* \"#utility.yul\":11899:12309   */\n    tag_131:\n        /* \"#utility.yul\":11939:11946   */\n      0x00\n        /* \"#utility.yul\":11962:11982   */\n      tag_309\n        /* \"#utility.yul\":11980:11981   */\n      dup3\n        /* \"#utility.yul\":11962:11982   */\n      tag_173\n      jump\t// in\n    tag_309:\n        /* \"#utility.yul\":11957:11982   */\n      swap2\n      pop\n        /* \"#utility.yul\":11996:12016   */\n      tag_310\n        /* \"#utility.yul\":12014:12015   */\n      dup4\n        /* \"#utility.yul\":11996:12016   */\n      tag_173\n      jump\t// in\n    tag_310:\n        /* \"#utility.yul\":11991:12016   */\n      swap3\n      pop\n        /* \"#utility.yul\":12051:12052   */\n      dup3\n        /* \"#utility.yul\":12048:12049   */\n      dup3\n        /* \"#utility.yul\":12044:12053   */\n      mul\n        /* \"#utility.yul\":12073:12103   */\n      tag_311\n        /* \"#utility.yul\":12091:12102   */\n      dup2\n        /* \"#utility.yul\":12073:12103   */\n      tag_173\n      jump\t// in\n    tag_311:\n        /* \"#utility.yul\":12062:12103   */\n      swap2\n      pop\n        /* \"#utility.yul\":12252:12253   */\n      dup3\n        /* \"#utility.yul\":12243:12250   */\n      dup3\n        /* \"#utility.yul\":12239:12254   */\n      div\n        /* \"#utility.yul\":12236:12237   */\n      dup5\n        /* \"#utility.yul\":12233:12255   */\n      eq\n        /* \"#utility.yul\":12213:12214   */\n      dup4\n        /* \"#utility.yul\":12206:12215   */\n      iszero\n        /* \"#utility.yul\":12186:12269   */\n      or\n        /* \"#utility.yul\":12163:12302   */\n      tag_312\n      jumpi\n        /* \"#utility.yul\":12282:12300   */\n      tag_313\n      tag_194\n      jump\t// in\n    tag_313:\n        /* \"#utility.yul\":12163:12302   */\n    tag_312:\n        /* \"#utility.yul\":11947:12309   */\n      pop\n        /* \"#utility.yul\":11899:12309   */\n      swap3\n      swap2\n      pop\n      pop\n      jump\t// out\n        /* \"#utility.yul\":12315:12506   */\n    tag_133:\n        /* \"#utility.yul\":12355:12358   */\n      0x00\n        /* \"#utility.yul\":12374:12394   */\n      tag_315\n        /* \"#utility.yul\":12392:12393   */\n      dup3\n        /* \"#utility.yul\":12374:12394   */\n      tag_173\n      jump\t// in\n    tag_315:\n        /* \"#utility.yul\":12369:12394   */\n      swap2\n      pop\n        /* \"#utility.yul\":12408:12428   */\n      tag_316\n        /* \"#utility.yul\":12426:12427   */\n      dup4\n        /* \"#utility.yul\":12408:12428   */\n      tag_173\n      jump\t// in\n    tag_316:\n        /* \"#utility.yul\":12403:12428   */\n      swap3\n      pop\n        /* \"#utility.yul\":12451:12452   */\n      dup3\n        /* \"#utility.yul\":12448:12449   */\n      dup3\n        /* \"#utility.yul\":12444:12453   */\n      add\n        /* \"#utility.yul\":12437:12453   */\n      swap1\n      pop\n        /* \"#utility.yul\":12472:12475   */\n      dup1\n        /* \"#utility.yul\":12469:12470   */\n      dup3\n        /* \"#utility.yul\":12466:12476   */\n      gt\n        /* \"#utility.yul\":12463:12499   */\n      iszero\n      tag_317\n      jumpi\n        /* \"#utility.yul\":12479:12497   */\n      tag_318\n      tag_194\n      jump\t// in\n    tag_318:\n        /* \"#utility.yul\":12463:12499   */\n    tag_317:\n        /* \"#utility.yul\":12315:12506   */\n      swap3\n      swap2\n      pop\n      pop\n      jump\t// out\n        /* \"#utility.yul\":12512:12692   */\n    tag_136:\n        /* \"#utility.yul\":12560:12637   */\n      0x4e487b7100000000000000000000000000000000000000000000000000000000\n        /* \"#utility.yul\":12557:12558   */\n      0x00\n        /* \"#utility.yul\":12550:12638   */\n      mstore\n        /* \"#utility.yul\":12657:12661   */\n      0x41\n        /* \"#utility.yul\":12654:12655   */\n      0x04\n        /* \"#utility.yul\":12647:12662   */\n      mstore\n        /* \"#utility.yul\":12681:12685   */\n      0x24\n        /* \"#utility.yul\":12678:12679   */\n      0x00\n        /* \"#utility.yul\":12671:12686   */\n      revert\n        /* \"#utility.yul\":12698:12878   */\n    tag_140:\n        /* \"#utility.yul\":12746:12823   */\n      0x4e487b7100000000000000000000000000000000000000000000000000000000\n        /* \"#utility.yul\":12743:12744   */\n      0x00\n        /* \"#utility.yul\":12736:12824   */\n      mstore\n        /* \"#utility.yul\":12843:12847   */\n      0x32\n        /* \"#utility.yul\":12840:12841   */\n      0x04\n        /* \"#utility.yul\":12833:12848   */\n      mstore\n        /* \"#utility.yul\":12867:12871   */\n      0x24\n        /* \"#utility.yul\":12864:12865   */\n      0x00\n        /* \"#utility.yul\":12857:12872   */\n      revert\n        /* \"#utility.yul\":12884:13055   */\n    tag_153:\n        /* \"#utility.yul\":12923:12926   */\n      0x00\n        /* \"#utility.yul\":12946:12970   */\n      tag_322\n        /* \"#utility.yul\":12964:12969   */\n      dup3\n        /* \"#utility.yul\":12946:12970   */\n      tag_173\n      jump\t// in\n    tag_322:\n        /* \"#utility.yul\":12937:12970   */\n      swap2\n      pop\n        /* \"#utility.yul\":12992:12996   */\n      0x00\n        /* \"#utility.yul\":12985:12990   */\n      dup3\n        /* \"#utility.yul\":12982:12997   */\n      sub\n        /* \"#utility.yul\":12979:13020   */\n      tag_323\n      jumpi\n        /* \"#utility.yul\":13000:13018   */\n      tag_324\n      tag_194\n      jump\t// in\n    tag_324:\n        /* \"#utility.yul\":12979:13020   */\n    tag_323:\n        /* \"#utility.yul\":13047:13048   */\n      0x01\n        /* \"#utility.yul\":13040:13045   */\n      dup3\n        /* \"#utility.yul\":13036:13049   */\n      sub\n        /* \"#utility.yul\":13029:13049   */\n      swap1\n      pop\n        /* \"#utility.yul\":12884:13055   */\n      swap2\n      swap1\n      pop\n      jump\t// out\n        /* \"#utility.yul\":13061:13243   */\n    tag_195:\n        /* \"#utility.yul\":13201:13235   */\n      0x537472696e67733a20686578206c656e67746820696e73756666696369656e74\n        /* \"#utility.yul\":13197:13198   */\n      0x00\n        /* \"#utility.yul\":13189:13195   */\n      dup3\n        /* \"#utility.yul\":13185:13199   */\n      add\n        /* \"#utility.yul\":13178:13236   */\n      mstore\n        /* \"#utility.yul\":13061:13243   */\n      pop\n      jump\t// out\n        /* \"#utility.yul\":13249:13615   */\n    tag_196:\n        /* \"#utility.yul\":13391:13394   */\n      0x00\n        /* \"#utility.yul\":13412:13479   */\n      tag_327\n        /* \"#utility.yul\":13476:13478   */\n      0x20\n        /* \"#utility.yul\":13471:13474   */\n      dup4\n        /* \"#utility.yul\":13412:13479   */\n      tag_177\n      jump\t// in\n    tag_327:\n        /* \"#utility.yul\":13405:13479   */\n      swap2\n      pop\n        /* \"#utility.yul\":13488:13581   */\n      tag_328\n        /* \"#utility.yul\":13577:13580   */\n      dup3\n        /* \"#utility.yul\":13488:13581   */\n      tag_195\n      jump\t// in\n    tag_328:\n        /* \"#utility.yul\":13606:13608   */\n      0x20\n        /* \"#utility.yul\":13601:13604   */\n      dup3\n        /* \"#utility.yul\":13597:13609   */\n      add\n        /* \"#utility.yul\":13590:13609   */\n      swap1\n      pop\n        /* \"#utility.yul\":13249:13615   */\n      swap2\n      swap1\n      pop\n      jump\t// out\n        /* \"#utility.yul\":13621:14040   */\n    tag_156:\n        /* \"#utility.yul\":13787:13791   */\n      0x00\n        /* \"#utility.yul\":13825:13827   */\n      0x20\n        /* \"#utility.yul\":13814:13823   */\n      dup3\n        /* \"#utility.yul\":13810:13828   */\n      add\n        /* \"#utility.yul\":13802:13828   */\n      swap1\n      pop\n        /* \"#utility.yul\":13874:13883   */\n      dup2\n        /* \"#utility.yul\":13868:13872   */\n      dup2\n        /* \"#utility.yul\":13864:13884   */\n      sub\n        /* \"#utility.yul\":13860:13861   */\n      0x00\n        /* \"#utility.yul\":13849:13858   */\n      dup4\n        /* \"#utility.yul\":13845:13862   */\n      add\n        /* \"#utility.yul\":13838:13885   */\n      mstore\n        /* \"#utility.yul\":13902:14033   */\n      tag_330\n        /* \"#utility.yul\":14028:14032   */\n      dup2\n        /* \"#utility.yul\":13902:14033   */\n      tag_196\n      jump\t// in\n    tag_330:\n        /* \"#utility.yul\":13894:14033   */\n      swap1\n      pop\n        /* \"#utility.yul\":13621:14040   */\n      swap2\n      swap1\n      pop\n      jump\t// out\n\n    auxdata: 0xa26469706673582212207672d0c558916418f4a78b200fb15c215f2141f56811183f914e9ec0018a7c5c64736f6c63430008120033\n}\n",
				"bytecode": {
					"linkReferences": {},
					"object": "608060405234801561001057600080fd5b50611249806100206000396000f3fe608060405234801561001057600080fd5b50600436106100b45760003560e01c80636057361d116100715780636057361d1461018b57806375b238fc146101a757806391d14854146101c55780639beaab7b146101f5578063a217fddf14610213578063d547741f14610231576100b4565b806301ffc9a7146100b95780631a72a287146100e9578063248a9ca3146101055780632e64cec1146101355780632f2ff15d1461015357806336568abe1461016f575b600080fd5b6100d360048036038101906100ce9190610aea565b61024d565b6040516100e09190610b32565b60405180910390f35b61010360048036038101906100fe9190610be1565b6102c7565b005b61011f600480360381019061011a9190610c21565b61033e565b60405161012c9190610c5d565b60405180910390f35b61013d61035d565b60405161014a9190610c91565b60405180910390f35b61016d60048036038101906101689190610be1565b610367565b005b61018960048036038101906101849190610be1565b610388565b005b6101a560048036038101906101a09190610cd8565b61040b565b005b6101af61047e565b6040516101bc9190610c5d565b60405180910390f35b6101df60048036038101906101da9190610be1565b6104a2565b6040516101ec9190610b32565b60405180910390f35b6101fd61050c565b60405161020a9190610c5d565b60405180910390f35b61021b610530565b6040516102289190610c5d565b60405180910390f35b61024b60048036038101906102469190610be1565b610537565b005b60007f7965db0b000000000000000000000000000000000000000000000000000000007bffffffffffffffffffffffffffffffffffffffffffffffffffffffff1916827bffffffffffffffffffffffffffffffffffffffffffffffffffffffff191614806102c057506102bf82610558565b5b9050919050565b6102f17fa49807205ce4d355092ef5a8a18f56e8913cf4a201fbe287825b095693c21775336104a2565b610330576040517f08c379a000000000000000000000000000000000000000000000000000000000815260040161032790610d88565b60405180910390fd5b61033a82826105c2565b5050565b6000806000838152602001908152602001600020600101549050919050565b6000600154905090565b6103708261033e565b610379816106a2565b61038383836105c2565b505050565b6103906106b6565b73ffffffffffffffffffffffffffffffffffffffff168173ffffffffffffffffffffffffffffffffffffffff16146103fd576040517f08c379a00000000000000000000000000000000000000000000000000000000081526004016103f490610e1a565b60405180910390fd5b61040782826106be565b5050565b6104357f2b8f168f361ac1393a163ed4adfa899a87be7b7c71645167bdaddd822ae453c8336104a2565b610474576040517f08c379a000000000000000000000000000000000000000000000000000000000815260040161046b90610eac565b60405180910390fd5b8060018190555050565b7fa49807205ce4d355092ef5a8a18f56e8913cf4a201fbe287825b095693c2177581565b600080600084815260200190815260200160002060000160008373ffffffffffffffffffffffffffffffffffffffff1673ffffffffffffffffffffffffffffffffffffffff16815260200190815260200160002060009054906101000a900460ff16905092915050565b7f2b8f168f361ac1393a163ed4adfa899a87be7b7c71645167bdaddd822ae453c881565b6000801b81565b6105408261033e565b610549816106a2565b61055383836106be565b505050565b60007f01ffc9a7000000000000000000000000000000000000000000000000000000007bffffffffffffffffffffffffffffffffffffffffffffffffffffffff1916827bffffffffffffffffffffffffffffffffffffffffffffffffffffffff1916149050919050565b6105cc82826104a2565b61069e57600160008084815260200190815260200160002060000160008373ffffffffffffffffffffffffffffffffffffffff1673ffffffffffffffffffffffffffffffffffffffff16815260200190815260200160002060006101000a81548160ff0219169083151502179055506106436106b6565b73ffffffffffffffffffffffffffffffffffffffff168173ffffffffffffffffffffffffffffffffffffffff16837f2f8788117e7eff1d82e926ec794901d17c78024a50270940304540a733656f0d60405160405180910390a45b5050565b6106b3816106ae6106b6565b61079f565b50565b600033905090565b6106c882826104a2565b1561079b57600080600084815260200190815260200160002060000160008373ffffffffffffffffffffffffffffffffffffffff1673ffffffffffffffffffffffffffffffffffffffff16815260200190815260200160002060006101000a81548160ff0219169083151502179055506107406106b6565b73ffffffffffffffffffffffffffffffffffffffff168173ffffffffffffffffffffffffffffffffffffffff16837ff6391f5c32d9c69d2a47ea670b442974b53935d1edc7fd64eb21e047a839171b60405160405180910390a45b5050565b6107a982826104a2565b610820576107b681610824565b6107c48360001c6020610851565b6040516020016107d5929190610fd5565b6040516020818303038152906040526040517f08c379a00000000000000000000000000000000000000000000000000000000081526004016108179190611059565b60405180910390fd5b5050565b606061084a8273ffffffffffffffffffffffffffffffffffffffff16601460ff16610851565b9050919050565b60606000600283600261086491906110aa565b61086e91906110ec565b67ffffffffffffffff81111561088757610886611120565b5b6040519080825280601f01601f1916602001820160405280156108b95781602001600182028036833780820191505090505b5090507f3000000000000000000000000000000000000000000000000000000000000000816000815181106108f1576108f061114f565b5b60200101907effffffffffffffffffffffffffffffffffffffffffffffffffffffffffffff1916908160001a9053507f7800000000000000000000000000000000000000000000000000000000000000816001815181106109555761095461114f565b5b60200101907effffffffffffffffffffffffffffffffffffffffffffffffffffffffffffff1916908160001a9053506000600184600261099591906110aa565b61099f91906110ec565b90505b6001811115610a3f577f3031323334353637383961626364656600000000000000000000000000000000600f8616601081106109e1576109e061114f565b5b1a60f81b8282815181106109f8576109f761114f565b5b60200101907effffffffffffffffffffffffffffffffffffffffffffffffffffffffffffff1916908160001a905350600485901c945080610a389061117e565b90506109a2565b5060008414610a83576040517f08c379a0000000000000000000000000000000000000000000000000000000008152600401610a7a906111f3565b60405180910390fd5b8091505092915050565b600080fd5b60007fffffffff0000000000000000000000000000000000000000000000000000000082169050919050565b610ac781610a92565b8114610ad257600080fd5b50565b600081359050610ae481610abe565b92915050565b600060208284031215610b0057610aff610a8d565b5b6000610b0e84828501610ad5565b91505092915050565b60008115159050919050565b610b2c81610b17565b82525050565b6000602082019050610b476000830184610b23565b92915050565b6000819050919050565b610b6081610b4d565b8114610b6b57600080fd5b50565b600081359050610b7d81610b57565b92915050565b600073ffffffffffffffffffffffffffffffffffffffff82169050919050565b6000610bae82610b83565b9050919050565b610bbe81610ba3565b8114610bc957600080fd5b50565b600081359050610bdb81610bb5565b92915050565b60008060408385031215610bf857610bf7610a8d565b5b6000610c0685828601610b6e565b9250506020610c1785828601610bcc565b9150509250929050565b600060208284031215610c3757610c36610a8d565b5b6000610c4584828501610b6e565b91505092915050565b610c5781610b4d565b82525050565b6000602082019050610c726000830184610c4e565b92915050565b6000819050919050565b610c8b81610c78565b82525050565b6000602082019050610ca66000830184610c82565b92915050565b610cb581610c78565b8114610cc057600080fd5b50565b600081359050610cd281610cac565b92915050565b600060208284031215610cee57610ced610a8d565b5b6000610cfc84828501610cc3565b91505092915050565b600082825260208201905092915050565b7f4a757374207468652041646d696e2063616e2075736520746869732066756e6360008201527f74696f6e00000000000000000000000000000000000000000000000000000000602082015250565b6000610d72602483610d05565b9150610d7d82610d16565b604082019050919050565b60006020820190508181036000830152610da181610d65565b9050919050565b7f416363657373436f6e74726f6c3a2063616e206f6e6c792072656e6f756e636560008201527f20726f6c657320666f722073656c660000000000000000000000000000000000602082015250565b6000610e04602f83610d05565b9150610e0f82610da8565b604082019050919050565b60006020820190508181036000830152610e3381610df7565b9050919050565b7f4a757374207468652055534552532063616e2075736520746869732066756e6360008201527f74696f6e00000000000000000000000000000000000000000000000000000000602082015250565b6000610e96602483610d05565b9150610ea182610e3a565b604082019050919050565b60006020820190508181036000830152610ec581610e89565b9050919050565b600081905092915050565b7f416363657373436f6e74726f6c3a206163636f756e7420000000000000000000600082015250565b6000610f0d601783610ecc565b9150610f1882610ed7565b601782019050919050565b600081519050919050565b60005b83811015610f4c578082015181840152602081019050610f31565b60008484015250505050565b6000610f6382610f23565b610f6d8185610ecc565b9350610f7d818560208601610f2e565b80840191505092915050565b7f206973206d697373696e6720726f6c6520000000000000000000000000000000600082015250565b6000610fbf601183610ecc565b9150610fca82610f89565b601182019050919050565b6000610fe082610f00565b9150610fec8285610f58565b9150610ff782610fb2565b91506110038284610f58565b91508190509392505050565b6000601f19601f8301169050919050565b600061102b82610f23565b6110358185610d05565b9350611045818560208601610f2e565b61104e8161100f565b840191505092915050565b600060208201905081810360008301526110738184611020565b905092915050565b7f4e487b7100000000000000000000000000000000000000000000000000000000600052601160045260246000fd5b60006110b582610c78565b91506110c083610c78565b92508282026110ce81610c78565b915082820484148315176110e5576110e461107b565b5b5092915050565b60006110f782610c78565b915061110283610c78565b925082820190508082111561111a5761111961107b565b5b92915050565b7f4e487b7100000000000000000000000000000000000000000000000000000000600052604160045260246000fd5b7f4e487b7100000000000000000000000000000000000000000000000000000000600052603260045260246000fd5b600061118982610c78565b91506000820361119c5761119b61107b565b5b600182039050919050565b7f537472696e67733a20686578206c656e67746820696e73756666696369656e74600082015250565b60006111dd602083610d05565b91506111e8826111a7565b602082019050919050565b6000602082019050818103600083015261120c816111d0565b905091905056fea26469706673582212207672d0c558916418f4a78b200fb15c215f2141f56811183f914e9ec0018a7c5c64736f6c63430008120033",
					"opcodes": "PUSH1 0x80 PUSH1 0x40 MSTORE CALLVALUE DUP1 ISZERO PUSH2 0x10 JUMPI PUSH1 0x0 DUP1 REVERT JUMPDEST POP PUSH2 0x1249 DUP1 PUSH2 0x20 PUSH1 0x0 CODECOPY PUSH1 0x0 RETURN INVALID PUSH1 0x80 PUSH1 0x40 MSTORE CALLVALUE DUP1 ISZERO PUSH2 0x10 JUMPI PUSH1 0x0 DUP1 REVERT JUMPDEST POP PUSH1 0x4 CALLDATASIZE LT PUSH2 0xB4 JUMPI PUSH1 0x0 CALLDATALOAD PUSH1 0xE0 SHR DUP1 PUSH4 0x6057361D GT PUSH2 0x71 JUMPI DUP1 PUSH4 0x6057361D EQ PUSH2 0x18B JUMPI DUP1 PUSH4 0x75B238FC EQ PUSH2 0x1A7 JUMPI DUP1 PUSH4 0x91D14854 EQ PUSH2 0x1C5 JUMPI DUP1 PUSH4 0x9BEAAB7B EQ PUSH2 0x1F5 JUMPI DUP1 PUSH4 0xA217FDDF EQ PUSH2 0x213 JUMPI DUP1 PUSH4 0xD547741F EQ PUSH2 0x231 JUMPI PUSH2 0xB4 JUMP JUMPDEST DUP1 PUSH4 0x1FFC9A7 EQ PUSH2 0xB9 JUMPI DUP1 PUSH4 0x1A72A287 EQ PUSH2 0xE9 JUMPI DUP1 PUSH4 0x248A9CA3 EQ PUSH2 0x105 JUMPI DUP1 PUSH4 0x2E64CEC1 EQ PUSH2 0x135 JUMPI DUP1 PUSH4 0x2F2FF15D EQ PUSH2 0x153 JUMPI DUP1 PUSH4 0x36568ABE EQ PUSH2 0x16F JUMPI JUMPDEST PUSH1 0x0 DUP1 REVERT JUMPDEST PUSH2 0xD3 PUSH1 0x4 DUP1 CALLDATASIZE SUB DUP2 ADD SWAP1 PUSH2 0xCE SWAP2 SWAP1 PUSH2 0xAEA JUMP JUMPDEST PUSH2 0x24D JUMP JUMPDEST PUSH1 0x40 MLOAD PUSH2 0xE0 SWAP2 SWAP1 PUSH2 0xB32 JUMP JUMPDEST PUSH1 0x40 MLOAD DUP1 SWAP2 SUB SWAP1 RETURN JUMPDEST PUSH2 0x103 PUSH1 0x4 DUP1 CALLDATASIZE SUB DUP2 ADD SWAP1 PUSH2 0xFE SWAP2 SWAP1 PUSH2 0xBE1 JUMP JUMPDEST PUSH2 0x2C7 JUMP JUMPDEST STOP JUMPDEST PUSH2 0x11F PUSH1 0x4 DUP1 CALLDATASIZE SUB DUP2 ADD SWAP1 PUSH2 0x11A SWAP2 SWAP1 PUSH2 0xC21 JUMP JUMPDEST PUSH2 0x33E JUMP JUMPDEST PUSH1 0x40 MLOAD PUSH2 0x12C SWAP2 SWAP1 PUSH2 0xC5D JUMP JUMPDEST PUSH1 0x40 MLOAD DUP1 SWAP2 SUB SWAP1 RETURN JUMPDEST PUSH2 0x13D PUSH2 0x35D JUMP JUMPDEST PUSH1 0x40 MLOAD PUSH2 0x14A SWAP2 SWAP1 PUSH2 0xC91 JUMP JUMPDEST PUSH1 0x40 MLOAD DUP1 SWAP2 SUB SWAP1 RETURN JUMPDEST PUSH2 0x16D PUSH1 0x4 DUP1 CALLDATASIZE SUB DUP2 ADD SWAP1 PUSH2 0x168 SWAP2 SWAP1 PUSH2 0xBE1 JUMP JUMPDEST PUSH2 0x367 JUMP JUMPDEST STOP JUMPDEST PUSH2 0x189 PUSH1 0x4 DUP1 CALLDATASIZE SUB DUP2 ADD SWAP1 PUSH2 0x184 SWAP2 SWAP1 PUSH2 0xBE1 JUMP JUMPDEST PUSH2 0x388 JUMP JUMPDEST STOP JUMPDEST PUSH2 0x1A5 PUSH1 0x4 DUP1 CALLDATASIZE SUB DUP2 ADD SWAP1 PUSH2 0x1A0 SWAP2 SWAP1 PUSH2 0xCD8 JUMP JUMPDEST PUSH2 0x40B JUMP JUMPDEST STOP JUMPDEST PUSH2 0x1AF PUSH2 0x47E JUMP JUMPDEST PUSH1 0x40 MLOAD PUSH2 0x1BC SWAP2 SWAP1 PUSH2 0xC5D JUMP JUMPDEST PUSH1 0x40 MLOAD DUP1 SWAP2 SUB SWAP1 RETURN JUMPDEST PUSH2 0x1DF PUSH1 0x4 DUP1 CALLDATASIZE SUB DUP2 ADD SWAP1 PUSH2 0x1DA SWAP2 SWAP1 PUSH2 0xBE1 JUMP JUMPDEST PUSH2 0x4A2 JUMP JUMPDEST PUSH1 0x40 MLOAD PUSH2 0x1EC SWAP2 SWAP1 PUSH2 0xB32 JUMP JUMPDEST PUSH1 0x40 MLOAD DUP1 SWAP2 SUB SWAP1 RETURN JUMPDEST PUSH2 0x1FD PUSH2 0x50C JUMP JUMPDEST PUSH1 0x40 MLOAD PUSH2 0x20A SWAP2 SWAP1 PUSH2 0xC5D JUMP JUMPDEST PUSH1 0x40 MLOAD DUP1 SWAP2 SUB SWAP1 RETURN JUMPDEST PUSH2 0x21B PUSH2 0x530 JUMP JUMPDEST PUSH1 0x40 MLOAD PUSH2 0x228 SWAP2 SWAP1 PUSH2 0xC5D JUMP JUMPDEST PUSH1 0x40 MLOAD DUP1 SWAP2 SUB SWAP1 RETURN JUMPDEST PUSH2 0x24B PUSH1 0x4 DUP1 CALLDATASIZE SUB DUP2 ADD SWAP1 PUSH2 0x246 SWAP2 SWAP1 PUSH2 0xBE1 JUMP JUMPDEST PUSH2 0x537 JUMP JUMPDEST STOP JUMPDEST PUSH1 0x0 PUSH32 0x7965DB0B00000000000000000000000000000000000000000000000000000000 PUSH28 0xFFFFFFFFFFFFFFFFFFFFFFFFFFFFFFFFFFFFFFFFFFFFFFFFFFFFFFFF NOT AND DUP3 PUSH28 0xFFFFFFFFFFFFFFFFFFFFFFFFFFFFFFFFFFFFFFFFFFFFFFFFFFFFFFFF NOT AND EQ DUP1 PUSH2 0x2C0 JUMPI POP PUSH2 0x2BF DUP3 PUSH2 0x558 JUMP JUMPDEST JUMPDEST SWAP1 POP SWAP2 SWAP1 POP JUMP JUMPDEST PUSH2 0x2F1 PUSH32 0xA49807205CE4D355092EF5A8A18F56E8913CF4A201FBE287825B095693C21775 CALLER PUSH2 0x4A2 JUMP JUMPDEST PUSH2 0x330 JUMPI PUSH1 0x40 MLOAD PUSH32 0x8C379A000000000000000000000000000000000000000000000000000000000 DUP2 MSTORE PUSH1 0x4 ADD PUSH2 0x327 SWAP1 PUSH2 0xD88 JUMP JUMPDEST PUSH1 0x40 MLOAD DUP1 SWAP2 SUB SWAP1 REVERT JUMPDEST PUSH2 0x33A DUP3 DUP3 PUSH2 0x5C2 JUMP JUMPDEST POP POP JUMP JUMPDEST PUSH1 0x0 DUP1 PUSH1 0x0 DUP4 DUP2 MSTORE PUSH1 0x20 ADD SWAP1 DUP2 MSTORE PUSH1 0x20 ADD PUSH1 0x0 KECCAK256 PUSH1 0x1 ADD SLOAD SWAP1 POP SWAP2 SWAP1 POP JUMP JUMPDEST PUSH1 0x0 PUSH1 0x1 SLOAD SWAP1 POP SWAP1 JUMP JUMPDEST PUSH2 0x370 DUP3 PUSH2 0x33E JUMP JUMPDEST PUSH2 0x379 DUP2 PUSH2 0x6A2 JUMP JUMPDEST PUSH2 0x383 DUP4 DUP4 PUSH2 0x5C2 JUMP JUMPDEST POP POP POP JUMP JUMPDEST PUSH2 0x390 PUSH2 0x6B6 JUMP JUMPDEST PUSH20 0xFFFFFFFFFFFFFFFFFFFFFFFFFFFFFFFFFFFFFFFF AND DUP2 PUSH20 0xFFFFFFFFFFFFFFFFFFFFFFFFFFFFFFFFFFFFFFFF AND EQ PUSH2 0x3FD JUMPI PUSH1 0x40 MLOAD PUSH32 0x8C379A000000000000000000000000000000000000000000000000000000000 DUP2 MSTORE PUSH1 0x4 ADD PUSH2 0x3F4 SWAP1 PUSH2 0xE1A JUMP JUMPDEST PUSH1 0x40 MLOAD DUP1 SWAP2 SUB SWAP1 REVERT JUMPDEST PUSH2 0x407 DUP3 DUP3 PUSH2 0x6BE JUMP JUMPDEST POP POP JUMP JUMPDEST PUSH2 0x435 PUSH32 0x2B8F168F361AC1393A163ED4ADFA899A87BE7B7C71645167BDADDD822AE453C8 CALLER PUSH2 0x4A2 JUMP JUMPDEST PUSH2 0x474 JUMPI PUSH1 0x40 MLOAD PUSH32 0x8C379A000000000000000000000000000000000000000000000000000000000 DUP2 MSTORE PUSH1 0x4 ADD PUSH2 0x46B SWAP1 PUSH2 0xEAC JUMP JUMPDEST PUSH1 0x40 MLOAD DUP1 SWAP2 SUB SWAP1 REVERT JUMPDEST DUP1 PUSH1 0x1 DUP2 SWAP1 SSTORE POP POP JUMP JUMPDEST PUSH32 0xA49807205CE4D355092EF5A8A18F56E8913CF4A201FBE287825B095693C21775 DUP2 JUMP JUMPDEST PUSH1 0x0 DUP1 PUSH1 0x0 DUP5 DUP2 MSTORE PUSH1 0x20 ADD SWAP1 DUP2 MSTORE PUSH1 0x20 ADD PUSH1 0x0 KECCAK256 PUSH1 0x0 ADD PUSH1 0x0 DUP4 PUSH20 0xFFFFFFFFFFFFFFFFFFFFFFFFFFFFFFFFFFFFFFFF AND PUSH20 0xFFFFFFFFFFFFFFFFFFFFFFFFFFFFFFFFFFFFFFFF AND DUP2 MSTORE PUSH1 0x20 ADD SWAP1 DUP2 MSTORE PUSH1 0x20 ADD PUSH1 0x0 KECCAK256 PUSH1 0x0 SWAP1 SLOAD SWAP1 PUSH2 0x100 EXP SWAP1 DIV PUSH1 0xFF AND SWAP1 POP SWAP3 SWAP2 POP POP JUMP JUMPDEST PUSH32 0x2B8F168F361AC1393A163ED4ADFA899A87BE7B7C71645167BDADDD822AE453C8 DUP2 JUMP JUMPDEST PUSH1 0x0 DUP1 SHL DUP2 JUMP JUMPDEST PUSH2 0x540 DUP3 PUSH2 0x33E JUMP JUMPDEST PUSH2 0x549 DUP2 PUSH2 0x6A2 JUMP JUMPDEST PUSH2 0x553 DUP4 DUP4 PUSH2 0x6BE JUMP JUMPDEST POP POP POP JUMP JUMPDEST PUSH1 0x0 PUSH32 0x1FFC9A700000000000000000000000000000000000000000000000000000000 PUSH28 0xFFFFFFFFFFFFFFFFFFFFFFFFFFFFFFFFFFFFFFFFFFFFFFFFFFFFFFFF NOT AND DUP3 PUSH28 0xFFFFFFFFFFFFFFFFFFFFFFFFFFFFFFFFFFFFFFFFFFFFFFFFFFFFFFFF NOT AND EQ SWAP1 POP SWAP2 SWAP1 POP JUMP JUMPDEST PUSH2 0x5CC DUP3 DUP3 PUSH2 0x4A2 JUMP JUMPDEST PUSH2 0x69E JUMPI PUSH1 0x1 PUSH1 0x0 DUP1 DUP5 DUP2 MSTORE PUSH1 0x20 ADD SWAP1 DUP2 MSTORE PUSH1 0x20 ADD PUSH1 0x0 KECCAK256 PUSH1 0x0 ADD PUSH1 0x0 DUP4 PUSH20 0xFFFFFFFFFFFFFFFFFFFFFFFFFFFFFFFFFFFFFFFF AND PUSH20 0xFFFFFFFFFFFFFFFFFFFFFFFFFFFFFFFFFFFFFFFF AND DUP2 MSTORE PUSH1 0x20 ADD SWAP1 DUP2 MSTORE PUSH1 0x20 ADD PUSH1 0x0 KECCAK256 PUSH1 0x0 PUSH2 0x100 EXP DUP2 SLOAD DUP2 PUSH1 0xFF MUL NOT AND SWAP1 DUP4 ISZERO ISZERO MUL OR SWAP1 SSTORE POP PUSH2 0x643 PUSH2 0x6B6 JUMP JUMPDEST PUSH20 0xFFFFFFFFFFFFFFFFFFFFFFFFFFFFFFFFFFFFFFFF AND DUP2 PUSH20 0xFFFFFFFFFFFFFFFFFFFFFFFFFFFFFFFFFFFFFFFF AND DUP4 PUSH32 0x2F8788117E7EFF1D82E926EC794901D17C78024A50270940304540A733656F0D PUSH1 0x40 MLOAD PUSH1 0x40 MLOAD DUP1 SWAP2 SUB SWAP1 LOG4 JUMPDEST POP POP JUMP JUMPDEST PUSH2 0x6B3 DUP2 PUSH2 0x6AE PUSH2 0x6B6 JUMP JUMPDEST PUSH2 0x79F JUMP JUMPDEST POP JUMP JUMPDEST PUSH1 0x0 CALLER SWAP1 POP SWAP1 JUMP JUMPDEST PUSH2 0x6C8 DUP3 DUP3 PUSH2 0x4A2 JUMP JUMPDEST ISZERO PUSH2 0x79B JUMPI PUSH1 0x0 DUP1 PUSH1 0x0 DUP5 DUP2 MSTORE PUSH1 0x20 ADD SWAP1 DUP2 MSTORE PUSH1 0x20 ADD PUSH1 0x0 KECCAK256 PUSH1 0x0 ADD PUSH1 0x0 DUP4 PUSH20 0xFFFFFFFFFFFFFFFFFFFFFFFFFFFFFFFFFFFFFFFF AND PUSH20 0xFFFFFFFFFFFFFFFFFFFFFFFFFFFFFFFFFFFFFFFF AND DUP2 MSTORE PUSH1 0x20 ADD SWAP1 DUP2 MSTORE PUSH1 0x20 ADD PUSH1 0x0 KECCAK256 PUSH1 0x0 PUSH2 0x100 EXP DUP2 SLOAD DUP2 PUSH1 0xFF MUL NOT AND SWAP1 DUP4 ISZERO ISZERO MUL OR SWAP1 SSTORE POP PUSH2 0x740 PUSH2 0x6B6 JUMP JUMPDEST PUSH20 0xFFFFFFFFFFFFFFFFFFFFFFFFFFFFFFFFFFFFFFFF AND DUP2 PUSH20 0xFFFFFFFFFFFFFFFFFFFFFFFFFFFFFFFFFFFFFFFF AND DUP4 PUSH32 0xF6391F5C32D9C69D2A47EA670B442974B53935D1EDC7FD64EB21E047A839171B PUSH1 0x40 MLOAD PUSH1 0x40 MLOAD DUP1 SWAP2 SUB SWAP1 LOG4 JUMPDEST POP POP JUMP JUMPDEST PUSH2 0x7A9 DUP3 DUP3 PUSH2 0x4A2 JUMP JUMPDEST PUSH2 0x820 JUMPI PUSH2 0x7B6 DUP2 PUSH2 0x824 JUMP JUMPDEST PUSH2 0x7C4 DUP4 PUSH1 0x0 SHR PUSH1 0x20 PUSH2 0x851 JUMP JUMPDEST PUSH1 0x40 MLOAD PUSH1 0x20 ADD PUSH2 0x7D5 SWAP3 SWAP2 SWAP1 PUSH2 0xFD5 JUMP JUMPDEST PUSH1 0x40 MLOAD PUSH1 0x20 DUP2 DUP4 SUB SUB DUP2 MSTORE SWAP1 PUSH1 0x40 MSTORE PUSH1 0x40 MLOAD PUSH32 0x8C379A000000000000000000000000000000000000000000000000000000000 DUP2 MSTORE PUSH1 0x4 ADD PUSH2 0x817 SWAP2 SWAP1 PUSH2 0x1059 JUMP JUMPDEST PUSH1 0x40 MLOAD DUP1 SWAP2 SUB SWAP1 REVERT JUMPDEST POP POP JUMP JUMPDEST PUSH1 0x60 PUSH2 0x84A DUP3 PUSH20 0xFFFFFFFFFFFFFFFFFFFFFFFFFFFFFFFFFFFFFFFF AND PUSH1 0x14 PUSH1 0xFF AND PUSH2 0x851 JUMP JUMPDEST SWAP1 POP SWAP2 SWAP1 POP JUMP JUMPDEST PUSH1 0x60 PUSH1 0x0 PUSH1 0x2 DUP4 PUSH1 0x2 PUSH2 0x864 SWAP2 SWAP1 PUSH2 0x10AA JUMP JUMPDEST PUSH2 0x86E SWAP2 SWAP1 PUSH2 0x10EC JUMP JUMPDEST PUSH8 0xFFFFFFFFFFFFFFFF DUP2 GT ISZERO PUSH2 0x887 JUMPI PUSH2 0x886 PUSH2 0x1120 JUMP JUMPDEST JUMPDEST PUSH1 0x40 MLOAD SWAP1 DUP1 DUP3 MSTORE DUP1 PUSH1 0x1F ADD PUSH1 0x1F NOT AND PUSH1 0x20 ADD DUP3 ADD PUSH1 0x40 MSTORE DUP1 ISZERO PUSH2 0x8B9 JUMPI DUP2 PUSH1 0x20 ADD PUSH1 0x1 DUP3 MUL DUP1 CALLDATASIZE DUP4 CALLDATACOPY DUP1 DUP3 ADD SWAP2 POP POP SWAP1 POP JUMPDEST POP SWAP1 POP PUSH32 0x3000000000000000000000000000000000000000000000000000000000000000 DUP2 PUSH1 0x0 DUP2 MLOAD DUP2 LT PUSH2 0x8F1 JUMPI PUSH2 0x8F0 PUSH2 0x114F JUMP JUMPDEST JUMPDEST PUSH1 0x20 ADD ADD SWAP1 PUSH31 0xFFFFFFFFFFFFFFFFFFFFFFFFFFFFFFFFFFFFFFFFFFFFFFFFFFFFFFFFFFFFFF NOT AND SWAP1 DUP2 PUSH1 0x0 BYTE SWAP1 MSTORE8 POP PUSH32 0x7800000000000000000000000000000000000000000000000000000000000000 DUP2 PUSH1 0x1 DUP2 MLOAD DUP2 LT PUSH2 0x955 JUMPI PUSH2 0x954 PUSH2 0x114F JUMP JUMPDEST JUMPDEST PUSH1 0x20 ADD ADD SWAP1 PUSH31 0xFFFFFFFFFFFFFFFFFFFFFFFFFFFFFFFFFFFFFFFFFFFFFFFFFFFFFFFFFFFFFF NOT AND SWAP1 DUP2 PUSH1 0x0 BYTE SWAP1 MSTORE8 POP PUSH1 0x0 PUSH1 0x1 DUP5 PUSH1 0x2 PUSH2 0x995 SWAP2 SWAP1 PUSH2 0x10AA JUMP JUMPDEST PUSH2 0x99F SWAP2 SWAP1 PUSH2 0x10EC JUMP JUMPDEST SWAP1 POP JUMPDEST PUSH1 0x1 DUP2 GT ISZERO PUSH2 0xA3F JUMPI PUSH32 0x3031323334353637383961626364656600000000000000000000000000000000 PUSH1 0xF DUP7 AND PUSH1 0x10 DUP2 LT PUSH2 0x9E1 JUMPI PUSH2 0x9E0 PUSH2 0x114F JUMP JUMPDEST JUMPDEST BYTE PUSH1 0xF8 SHL DUP3 DUP3 DUP2 MLOAD DUP2 LT PUSH2 0x9F8 JUMPI PUSH2 0x9F7 PUSH2 0x114F JUMP JUMPDEST JUMPDEST PUSH1 0x20 ADD ADD SWAP1 PUSH31 0xFFFFFFFFFFFFFFFFFFFFFFFFFFFFFFFFFFFFFFFFFFFFFFFFFFFFFFFFFFFFFF NOT AND SWAP1 DUP2 PUSH1 0x0 BYTE SWAP1 MSTORE8 POP PUSH1 0x4 DUP6 SWAP1 SHR SWAP5 POP DUP1 PUSH2 0xA38 SWAP1 PUSH2 0x117E JUMP JUMPDEST SWAP1 POP PUSH2 0x9A2 JUMP JUMPDEST POP PUSH1 0x0 DUP5 EQ PUSH2 0xA83 JUMPI PUSH1 0x40 MLOAD PUSH32 0x8C379A000000000000000000000000000000000000000000000000000000000 DUP2 MSTORE PUSH1 0x4 ADD PUSH2 0xA7A SWAP1 PUSH2 0x11F3 JUMP JUMPDEST PUSH1 0x40 MLOAD DUP1 SWAP2 SUB SWAP1 REVERT JUMPDEST DUP1 SWAP2 POP POP SWAP3 SWAP2 POP POP JUMP JUMPDEST PUSH1 0x0 DUP1 REVERT JUMPDEST PUSH1 0x0 PUSH32 0xFFFFFFFF00000000000000000000000000000000000000000000000000000000 DUP3 AND SWAP1 POP SWAP2 SWAP1 POP JUMP JUMPDEST PUSH2 0xAC7 DUP2 PUSH2 0xA92 JUMP JUMPDEST DUP2 EQ PUSH2 0xAD2 JUMPI PUSH1 0x0 DUP1 REVERT JUMPDEST POP JUMP JUMPDEST PUSH1 0x0 DUP2 CALLDATALOAD SWAP1 POP PUSH2 0xAE4 DUP2 PUSH2 0xABE JUMP JUMPDEST SWAP3 SWAP2 POP POP JUMP JUMPDEST PUSH1 0x0 PUSH1 0x20 DUP3 DUP5 SUB SLT ISZERO PUSH2 0xB00 JUMPI PUSH2 0xAFF PUSH2 0xA8D JUMP JUMPDEST JUMPDEST PUSH1 0x0 PUSH2 0xB0E DUP5 DUP3 DUP6 ADD PUSH2 0xAD5 JUMP JUMPDEST SWAP2 POP POP SWAP3 SWAP2 POP POP JUMP JUMPDEST PUSH1 0x0 DUP2 ISZERO ISZERO SWAP1 POP SWAP2 SWAP1 POP JUMP JUMPDEST PUSH2 0xB2C DUP2 PUSH2 0xB17 JUMP JUMPDEST DUP3 MSTORE POP POP JUMP JUMPDEST PUSH1 0x0 PUSH1 0x20 DUP3 ADD SWAP1 POP PUSH2 0xB47 PUSH1 0x0 DUP4 ADD DUP5 PUSH2 0xB23 JUMP JUMPDEST SWAP3 SWAP2 POP POP JUMP JUMPDEST PUSH1 0x0 DUP2 SWAP1 POP SWAP2 SWAP1 POP JUMP JUMPDEST PUSH2 0xB60 DUP2 PUSH2 0xB4D JUMP JUMPDEST DUP2 EQ PUSH2 0xB6B JUMPI PUSH1 0x0 DUP1 REVERT JUMPDEST POP JUMP JUMPDEST PUSH1 0x0 DUP2 CALLDATALOAD SWAP1 POP PUSH2 0xB7D DUP2 PUSH2 0xB57 JUMP JUMPDEST SWAP3 SWAP2 POP POP JUMP JUMPDEST PUSH1 0x0 PUSH20 0xFFFFFFFFFFFFFFFFFFFFFFFFFFFFFFFFFFFFFFFF DUP3 AND SWAP1 POP SWAP2 SWAP1 POP JUMP JUMPDEST PUSH1 0x0 PUSH2 0xBAE DUP3 PUSH2 0xB83 JUMP JUMPDEST SWAP1 POP SWAP2 SWAP1 POP JUMP JUMPDEST PUSH2 0xBBE DUP2 PUSH2 0xBA3 JUMP JUMPDEST DUP2 EQ PUSH2 0xBC9 JUMPI PUSH1 0x0 DUP1 REVERT JUMPDEST POP JUMP JUMPDEST PUSH1 0x0 DUP2 CALLDATALOAD SWAP1 POP PUSH2 0xBDB DUP2 PUSH2 0xBB5 JUMP JUMPDEST SWAP3 SWAP2 POP POP JUMP JUMPDEST PUSH1 0x0 DUP1 PUSH1 0x40 DUP4 DUP6 SUB SLT ISZERO PUSH2 0xBF8 JUMPI PUSH2 0xBF7 PUSH2 0xA8D JUMP JUMPDEST JUMPDEST PUSH1 0x0 PUSH2 0xC06 DUP6 DUP3 DUP7 ADD PUSH2 0xB6E JUMP JUMPDEST SWAP3 POP POP PUSH1 0x20 PUSH2 0xC17 DUP6 DUP3 DUP7 ADD PUSH2 0xBCC JUMP JUMPDEST SWAP2 POP POP SWAP3 POP SWAP3 SWAP1 POP JUMP JUMPDEST PUSH1 0x0 PUSH1 0x20 DUP3 DUP5 SUB SLT ISZERO PUSH2 0xC37 JUMPI PUSH2 0xC36 PUSH2 0xA8D JUMP JUMPDEST JUMPDEST PUSH1 0x0 PUSH2 0xC45 DUP5 DUP3 DUP6 ADD PUSH2 0xB6E JUMP JUMPDEST SWAP2 POP POP SWAP3 SWAP2 POP POP JUMP JUMPDEST PUSH2 0xC57 DUP2 PUSH2 0xB4D JUMP JUMPDEST DUP3 MSTORE POP POP JUMP JUMPDEST PUSH1 0x0 PUSH1 0x20 DUP3 ADD SWAP1 POP PUSH2 0xC72 PUSH1 0x0 DUP4 ADD DUP5 PUSH2 0xC4E JUMP JUMPDEST SWAP3 SWAP2 POP POP JUMP JUMPDEST PUSH1 0x0 DUP2 SWAP1 POP SWAP2 SWAP1 POP JUMP JUMPDEST PUSH2 0xC8B DUP2 PUSH2 0xC78 JUMP JUMPDEST DUP3 MSTORE POP POP JUMP JUMPDEST PUSH1 0x0 PUSH1 0x20 DUP3 ADD SWAP1 POP PUSH2 0xCA6 PUSH1 0x0 DUP4 ADD DUP5 PUSH2 0xC82 JUMP JUMPDEST SWAP3 SWAP2 POP POP JUMP JUMPDEST PUSH2 0xCB5 DUP2 PUSH2 0xC78 JUMP JUMPDEST DUP2 EQ PUSH2 0xCC0 JUMPI PUSH1 0x0 DUP1 REVERT JUMPDEST POP JUMP JUMPDEST PUSH1 0x0 DUP2 CALLDATALOAD SWAP1 POP PUSH2 0xCD2 DUP2 PUSH2 0xCAC JUMP JUMPDEST SWAP3 SWAP2 POP POP JUMP JUMPDEST PUSH1 0x0 PUSH1 0x20 DUP3 DUP5 SUB SLT ISZERO PUSH2 0xCEE JUMPI PUSH2 0xCED PUSH2 0xA8D JUMP JUMPDEST JUMPDEST PUSH1 0x0 PUSH2 0xCFC DUP5 DUP3 DUP6 ADD PUSH2 0xCC3 JUMP JUMPDEST SWAP2 POP POP SWAP3 SWAP2 POP POP JUMP JUMPDEST PUSH1 0x0 DUP3 DUP3 MSTORE PUSH1 0x20 DUP3 ADD SWAP1 POP SWAP3 SWAP2 POP POP JUMP JUMPDEST PUSH32 0x4A757374207468652041646D696E2063616E2075736520746869732066756E63 PUSH1 0x0 DUP3 ADD MSTORE PUSH32 0x74696F6E00000000000000000000000000000000000000000000000000000000 PUSH1 0x20 DUP3 ADD MSTORE POP JUMP JUMPDEST PUSH1 0x0 PUSH2 0xD72 PUSH1 0x24 DUP4 PUSH2 0xD05 JUMP JUMPDEST SWAP2 POP PUSH2 0xD7D DUP3 PUSH2 0xD16 JUMP JUMPDEST PUSH1 0x40 DUP3 ADD SWAP1 POP SWAP2 SWAP1 POP JUMP JUMPDEST PUSH1 0x0 PUSH1 0x20 DUP3 ADD SWAP1 POP DUP2 DUP2 SUB PUSH1 0x0 DUP4 ADD MSTORE PUSH2 0xDA1 DUP2 PUSH2 0xD65 JUMP JUMPDEST SWAP1 POP SWAP2 SWAP1 POP JUMP JUMPDEST PUSH32 0x416363657373436F6E74726F6C3A2063616E206F6E6C792072656E6F756E6365 PUSH1 0x0 DUP3 ADD MSTORE PUSH32 0x20726F6C657320666F722073656C660000000000000000000000000000000000 PUSH1 0x20 DUP3 ADD MSTORE POP JUMP JUMPDEST PUSH1 0x0 PUSH2 0xE04 PUSH1 0x2F DUP4 PUSH2 0xD05 JUMP JUMPDEST SWAP2 POP PUSH2 0xE0F DUP3 PUSH2 0xDA8 JUMP JUMPDEST PUSH1 0x40 DUP3 ADD SWAP1 POP SWAP2 SWAP1 POP JUMP JUMPDEST PUSH1 0x0 PUSH1 0x20 DUP3 ADD SWAP1 POP DUP2 DUP2 SUB PUSH1 0x0 DUP4 ADD MSTORE PUSH2 0xE33 DUP2 PUSH2 0xDF7 JUMP JUMPDEST SWAP1 POP SWAP2 SWAP1 POP JUMP JUMPDEST PUSH32 0x4A757374207468652055534552532063616E2075736520746869732066756E63 PUSH1 0x0 DUP3 ADD MSTORE PUSH32 0x74696F6E00000000000000000000000000000000000000000000000000000000 PUSH1 0x20 DUP3 ADD MSTORE POP JUMP JUMPDEST PUSH1 0x0 PUSH2 0xE96 PUSH1 0x24 DUP4 PUSH2 0xD05 JUMP JUMPDEST SWAP2 POP PUSH2 0xEA1 DUP3 PUSH2 0xE3A JUMP JUMPDEST PUSH1 0x40 DUP3 ADD SWAP1 POP SWAP2 SWAP1 POP JUMP JUMPDEST PUSH1 0x0 PUSH1 0x20 DUP3 ADD SWAP1 POP DUP2 DUP2 SUB PUSH1 0x0 DUP4 ADD MSTORE PUSH2 0xEC5 DUP2 PUSH2 0xE89 JUMP JUMPDEST SWAP1 POP SWAP2 SWAP1 POP JUMP JUMPDEST PUSH1 0x0 DUP2 SWAP1 POP SWAP3 SWAP2 POP POP JUMP JUMPDEST PUSH32 0x416363657373436F6E74726F6C3A206163636F756E7420000000000000000000 PUSH1 0x0 DUP3 ADD MSTORE POP JUMP JUMPDEST PUSH1 0x0 PUSH2 0xF0D PUSH1 0x17 DUP4 PUSH2 0xECC JUMP JUMPDEST SWAP2 POP PUSH2 0xF18 DUP3 PUSH2 0xED7 JUMP JUMPDEST PUSH1 0x17 DUP3 ADD SWAP1 POP SWAP2 SWAP1 POP JUMP JUMPDEST PUSH1 0x0 DUP2 MLOAD SWAP1 POP SWAP2 SWAP1 POP JUMP JUMPDEST PUSH1 0x0 JUMPDEST DUP4 DUP2 LT ISZERO PUSH2 0xF4C JUMPI DUP1 DUP3 ADD MLOAD DUP2 DUP5 ADD MSTORE PUSH1 0x20 DUP2 ADD SWAP1 POP PUSH2 0xF31 JUMP JUMPDEST PUSH1 0x0 DUP5 DUP5 ADD MSTORE POP POP POP POP JUMP JUMPDEST PUSH1 0x0 PUSH2 0xF63 DUP3 PUSH2 0xF23 JUMP JUMPDEST PUSH2 0xF6D DUP2 DUP6 PUSH2 0xECC JUMP JUMPDEST SWAP4 POP PUSH2 0xF7D DUP2 DUP6 PUSH1 0x20 DUP7 ADD PUSH2 0xF2E JUMP JUMPDEST DUP1 DUP5 ADD SWAP2 POP POP SWAP3 SWAP2 POP POP JUMP JUMPDEST PUSH32 0x206973206D697373696E6720726F6C6520000000000000000000000000000000 PUSH1 0x0 DUP3 ADD MSTORE POP JUMP JUMPDEST PUSH1 0x0 PUSH2 0xFBF PUSH1 0x11 DUP4 PUSH2 0xECC JUMP JUMPDEST SWAP2 POP PUSH2 0xFCA DUP3 PUSH2 0xF89 JUMP JUMPDEST PUSH1 0x11 DUP3 ADD SWAP1 POP SWAP2 SWAP1 POP JUMP JUMPDEST PUSH1 0x0 PUSH2 0xFE0 DUP3 PUSH2 0xF00 JUMP JUMPDEST SWAP2 POP PUSH2 0xFEC DUP3 DUP6 PUSH2 0xF58 JUMP JUMPDEST SWAP2 POP PUSH2 0xFF7 DUP3 PUSH2 0xFB2 JUMP JUMPDEST SWAP2 POP PUSH2 0x1003 DUP3 DUP5 PUSH2 0xF58 JUMP JUMPDEST SWAP2 POP DUP2 SWAP1 POP SWAP4 SWAP3 POP POP POP JUMP JUMPDEST PUSH1 0x0 PUSH1 0x1F NOT PUSH1 0x1F DUP4 ADD AND SWAP1 POP SWAP2 SWAP1 POP JUMP JUMPDEST PUSH1 0x0 PUSH2 0x102B DUP3 PUSH2 0xF23 JUMP JUMPDEST PUSH2 0x1035 DUP2 DUP6 PUSH2 0xD05 JUMP JUMPDEST SWAP4 POP PUSH2 0x1045 DUP2 DUP6 PUSH1 0x20 DUP7 ADD PUSH2 0xF2E JUMP JUMPDEST PUSH2 0x104E DUP2 PUSH2 0x100F JUMP JUMPDEST DUP5 ADD SWAP2 POP POP SWAP3 SWAP2 POP POP JUMP JUMPDEST PUSH1 0x0 PUSH1 0x20 DUP3 ADD SWAP1 POP DUP2 DUP2 SUB PUSH1 0x0 DUP4 ADD MSTORE PUSH2 0x1073 DUP2 DUP5 PUSH2 0x1020 JUMP JUMPDEST SWAP1 POP SWAP3 SWAP2 POP POP JUMP JUMPDEST PUSH32 0x4E487B7100000000000000000000000000000000000000000000000000000000 PUSH1 0x0 MSTORE PUSH1 0x11 PUSH1 0x4 MSTORE PUSH1 0x24 PUSH1 0x0 REVERT JUMPDEST PUSH1 0x0 PUSH2 0x10B5 DUP3 PUSH2 0xC78 JUMP JUMPDEST SWAP2 POP PUSH2 0x10C0 DUP4 PUSH2 0xC78 JUMP JUMPDEST SWAP3 POP DUP3 DUP3 MUL PUSH2 0x10CE DUP2 PUSH2 0xC78 JUMP JUMPDEST SWAP2 POP DUP3 DUP3 DIV DUP5 EQ DUP4 ISZERO OR PUSH2 0x10E5 JUMPI PUSH2 0x10E4 PUSH2 0x107B JUMP JUMPDEST JUMPDEST POP SWAP3 SWAP2 POP POP JUMP JUMPDEST PUSH1 0x0 PUSH2 0x10F7 DUP3 PUSH2 0xC78 JUMP JUMPDEST SWAP2 POP PUSH2 0x1102 DUP4 PUSH2 0xC78 JUMP JUMPDEST SWAP3 POP DUP3 DUP3 ADD SWAP1 POP DUP1 DUP3 GT ISZERO PUSH2 0x111A JUMPI PUSH2 0x1119 PUSH2 0x107B JUMP JUMPDEST JUMPDEST SWAP3 SWAP2 POP POP JUMP JUMPDEST PUSH32 0x4E487B7100000000000000000000000000000000000000000000000000000000 PUSH1 0x0 MSTORE PUSH1 0x41 PUSH1 0x4 MSTORE PUSH1 0x24 PUSH1 0x0 REVERT JUMPDEST PUSH32 0x4E487B7100000000000000000000000000000000000000000000000000000000 PUSH1 0x0 MSTORE PUSH1 0x32 PUSH1 0x4 MSTORE PUSH1 0x24 PUSH1 0x0 REVERT JUMPDEST PUSH1 0x0 PUSH2 0x1189 DUP3 PUSH2 0xC78 JUMP JUMPDEST SWAP2 POP PUSH1 0x0 DUP3 SUB PUSH2 0x119C JUMPI PUSH2 0x119B PUSH2 0x107B JUMP JUMPDEST JUMPDEST PUSH1 0x1 DUP3 SUB SWAP1 POP SWAP2 SWAP1 POP JUMP JUMPDEST PUSH32 0x537472696E67733A20686578206C656E67746820696E73756666696369656E74 PUSH1 0x0 DUP3 ADD MSTORE POP JUMP JUMPDEST PUSH1 0x0 PUSH2 0x11DD PUSH1 0x20 DUP4 PUSH2 0xD05 JUMP JUMPDEST SWAP2 POP PUSH2 0x11E8 DUP3 PUSH2 0x11A7 JUMP JUMPDEST PUSH1 0x20 DUP3 ADD SWAP1 POP SWAP2 SWAP1 POP JUMP JUMPDEST PUSH1 0x0 PUSH1 0x20 DUP3 ADD SWAP1 POP DUP2 DUP2 SUB PUSH1 0x0 DUP4 ADD MSTORE PUSH2 0x120C DUP2 PUSH2 0x11D0 JUMP JUMPDEST SWAP1 POP SWAP2 SWAP1 POP JUMP INVALID LOG2 PUSH5 0x6970667358 0x22 SLT KECCAK256 PUSH23 0x72D0C558916418F4A78B200FB15C215F2141F56811183F SWAP2 0x4E SWAP15 0xC0 ADD DUP11 PUSH29 0x5C64736F6C634300081200330000000000000000000000000000000000 "
				},
				"gasEstimates": {
					"creation": {
						"codeDepositCost": "936200",
						"executionCost": "975",
						"totalCost": "937175"
					},
					"external": {
						"ADMIN_ROLE()": "351",
						"DEFAULT_ADMIN_ROLE()": "423",
						"WRITER_ROLE()": "395",
						"add_role(bytes32,address)": "infinite",
						"getRoleAdmin(bytes32)": "infinite",
						"grantRole(bytes32,address)": "infinite",
						"hasRole(bytes32,address)": "3184",
						"renounceRole(bytes32,address)": "infinite",
						"retrieve()": "2504",
						"revokeRole(bytes32,address)": "infinite",
						"store(uint256)": "24894",
						"supportsInterface(bytes4)": "728"
					}
				},
				"methodIdentifiers": {
					"ADMIN_ROLE()": "75b238fc",
					"DEFAULT_ADMIN_ROLE()": "a217fddf",
					"WRITER_ROLE()": "9beaab7b",
					"add_role(bytes32,address)": "1a72a287",
					"getRoleAdmin(bytes32)": "248a9ca3",
					"grantRole(bytes32,address)": "2f2ff15d",
					"hasRole(bytes32,address)": "91d14854",
					"renounceRole(bytes32,address)": "36568abe",
					"retrieve()": "2e64cec1",
					"revokeRole(bytes32,address)": "d547741f",
					"store(uint256)": "6057361d",
					"supportsInterface(bytes4)": "01ffc9a7"
				}
			},
			"storageLayout": {
				"storage": [
					{
						"astId": 24,
						"contract": "contracts/1_Storage.sol:Storage",
						"label": "_roles",
						"offset": 0,
						"slot": "0",
						"type": "t_mapping(t_bytes32,t_struct(RoleData)19_storage)"
					},
					{
						"astId": 1544,
						"contract": "contracts/1_Storage.sol:Storage",
						"label": "number",
						"offset": 0,
						"slot": "1",
						"type": "t_uint256"
					}
				],
				"types": {
					"t_address": {
						"encoding": "inplace",
						"label": "address",
						"numberOfBytes": "20"
					},
					"t_bool": {
						"encoding": "inplace",
						"label": "bool",
						"numberOfBytes": "1"
					},
					"t_bytes32": {
						"encoding": "inplace",
						"label": "bytes32",
						"numberOfBytes": "32"
					},
					"t_mapping(t_address,t_bool)": {
						"encoding": "mapping",
						"key": "t_address",
						"label": "mapping(address => bool)",
						"numberOfBytes": "32",
						"value": "t_bool"
					},
					"t_mapping(t_bytes32,t_struct(RoleData)19_storage)": {
						"encoding": "mapping",
						"key": "t_bytes32",
						"label": "mapping(bytes32 => struct AccessControl.RoleData)",
						"numberOfBytes": "32",
						"value": "t_struct(RoleData)19_storage"
					},
					"t_struct(RoleData)19_storage": {
						"encoding": "inplace",
						"label": "struct AccessControl.RoleData",
						"members": [
							{
								"astId": 16,
								"contract": "contracts/1_Storage.sol:Storage",
								"label": "members",
								"offset": 0,
								"slot": "0",
								"type": "t_mapping(t_address,t_bool)"
							},
							{
								"astId": 18,
								"contract": "contracts/1_Storage.sol:Storage",
								"label": "adminRole",
								"offset": 0,
								"slot": "1",
								"type": "t_bytes32"
							}
						],
						"numberOfBytes": "64"
					},
					"t_uint256": {
						"encoding": "inplace",
						"label": "uint256",
						"numberOfBytes": "32"
					}
				}
			},
			"userdoc": {
				"kind": "user",
				"methods": {},
				"version": 1
			}
		}
	}
}