{
	"contracts/challenge/challenge_storage.sol": {
		"challenge_storage": {
			"abi": [
				{
					"inputs": [],
					"stateMutability": "nonpayable",
					"type": "constructor"
				},
				{
					"anonymous": false,
					"inputs": [
						{
							"indexed": true,
							"internalType": "bytes32",
							"name": "role",
							"type": "bytes32"
						},
						{
							"indexed": true,
							"internalType": "bytes32",
							"name": "previousAdminRole",
							"type": "bytes32"
						},
						{
							"indexed": true,
							"internalType": "bytes32",
							"name": "newAdminRole",
							"type": "bytes32"
						}
					],
					"name": "RoleAdminChanged",
					"type": "event"
				},
				{
					"anonymous": false,
					"inputs": [
						{
							"indexed": true,
							"internalType": "bytes32",
							"name": "role",
							"type": "bytes32"
						},
						{
							"indexed": true,
							"internalType": "address",
							"name": "account",
							"type": "address"
						},
						{
							"indexed": true,
							"internalType": "address",
							"name": "sender",
							"type": "address"
						}
					],
					"name": "RoleGranted",
					"type": "event"
				},
				{
					"anonymous": false,
					"inputs": [
						{
							"indexed": true,
							"internalType": "bytes32",
							"name": "role",
							"type": "bytes32"
						},
						{
							"indexed": true,
							"internalType": "address",
							"name": "account",
							"type": "address"
						},
						{
							"indexed": true,
							"internalType": "address",
							"name": "sender",
							"type": "address"
						}
					],
					"name": "RoleRevoked",
					"type": "event"
				},
				{
					"inputs": [],
					"name": "ADMIN_ROLE",
					"outputs": [
						{
							"internalType": "bytes32",
							"name": "",
							"type": "bytes32"
						}
					],
					"stateMutability": "view",
					"type": "function"
				},
				{
					"inputs": [],
					"name": "DEFAULT_ADMIN_ROLE",
					"outputs": [
						{
							"internalType": "bytes32",
							"name": "",
							"type": "bytes32"
						}
					],
					"stateMutability": "view",
					"type": "function"
				},
				{
					"inputs": [],
					"name": "WRITER_ROLE",
					"outputs": [
						{
							"internalType": "bytes32",
							"name": "",
							"type": "bytes32"
						}
					],
					"stateMutability": "view",
					"type": "function"
				},
				{
					"inputs": [
						{
							"internalType": "address",
							"name": "account",
							"type": "address"
						}
					],
					"name": "add_role",
					"outputs": [],
					"stateMutability": "nonpayable",
					"type": "function"
				},
				{
					"inputs": [
						{
							"internalType": "bytes32",
							"name": "role",
							"type": "bytes32"
						}
					],
					"name": "getRoleAdmin",
					"outputs": [
						{
							"internalType": "bytes32",
							"name": "",
							"type": "bytes32"
						}
					],
					"stateMutability": "view",
					"type": "function"
				},
				{
					"inputs": [
						{
							"internalType": "bytes32",
							"name": "role",
							"type": "bytes32"
						},
						{
							"internalType": "address",
							"name": "account",
							"type": "address"
						}
					],
					"name": "grantRole",
					"outputs": [],
					"stateMutability": "nonpayable",
					"type": "function"
				},
				{
					"inputs": [
						{
							"internalType": "bytes32",
							"name": "role",
							"type": "bytes32"
						},
						{
							"internalType": "address",
							"name": "account",
							"type": "address"
						}
					],
					"name": "hasRole",
					"outputs": [
						{
							"internalType": "bool",
							"name": "",
							"type": "bool"
						}
					],
					"stateMutability": "view",
					"type": "function"
				},
				{
					"inputs": [
						{
							"internalType": "bytes32",
							"name": "role",
							"type": "bytes32"
						},
						{
							"internalType": "address",
							"name": "account",
							"type": "address"
						}
					],
					"name": "renounceRole",
					"outputs": [],
					"stateMutability": "nonpayable",
					"type": "function"
				},
				{
					"inputs": [],
					"name": "retrieve",
					"outputs": [
						{
							"internalType": "uint256",
							"name": "",
							"type": "uint256"
						}
					],
					"stateMutability": "view",
					"type": "function"
				},
				{
					"inputs": [
						{
							"internalType": "bytes32",
							"name": "role",
							"type": "bytes32"
						},
						{
							"internalType": "address",
							"name": "account",
							"type": "address"
						}
					],
					"name": "revokeRole",
					"outputs": [],
					"stateMutability": "nonpayable",
					"type": "function"
				},
				{
					"inputs": [
						{
							"internalType": "uint256",
							"name": "num",
							"type": "uint256"
						}
					],
					"name": "store",
					"outputs": [],
					"stateMutability": "nonpayable",
					"type": "function"
				},
				{
					"inputs": [
						{
							"internalType": "bytes4",
							"name": "interfaceId",
							"type": "bytes4"
						}
					],
					"name": "supportsInterface",
					"outputs": [
						{
							"internalType": "bool",
							"name": "",
							"type": "bool"
						}
					],
					"stateMutability": "view",
					"type": "function"
				}
			],
			"devdoc": {
				"events": {
					"RoleAdminChanged(bytes32,bytes32,bytes32)": {
						"details": "Emitted when `newAdminRole` is set as ``role``'s admin role, replacing `previousAdminRole` `DEFAULT_ADMIN_ROLE` is the starting admin for all roles, despite {RoleAdminChanged} not being emitted signaling this. _Available since v3.1._"
					},
					"RoleGranted(bytes32,address,address)": {
						"details": "Emitted when `account` is granted `role`. `sender` is the account that originated the contract call, an admin role bearer except when using {AccessControl-_setupRole}."
					},
					"RoleRevoked(bytes32,address,address)": {
						"details": "Emitted when `account` is revoked `role`. `sender` is the account that originated the contract call:   - if using `revokeRole`, it is the admin role bearer   - if using `renounceRole`, it is the role bearer (i.e. `account`)"
					}
				},
				"kind": "dev",
				"methods": {
					"getRoleAdmin(bytes32)": {
						"details": "Returns the admin role that controls `role`. See {grantRole} and {revokeRole}. To change a role's admin, use {_setRoleAdmin}."
					},
					"grantRole(bytes32,address)": {
						"details": "Grants `role` to `account`. If `account` had not been already granted `role`, emits a {RoleGranted} event. Requirements: - the caller must have ``role``'s admin role. May emit a {RoleGranted} event."
					},
					"hasRole(bytes32,address)": {
						"details": "Returns `true` if `account` has been granted `role`."
					},
					"renounceRole(bytes32,address)": {
						"details": "Revokes `role` from the calling account. Roles are often managed via {grantRole} and {revokeRole}: this function's purpose is to provide a mechanism for accounts to lose their privileges if they are compromised (such as when a trusted device is misplaced). If the calling account had been revoked `role`, emits a {RoleRevoked} event. Requirements: - the caller must be `account`. May emit a {RoleRevoked} event."
					},
					"retrieve()": {
						"details": "Return value ",
						"returns": {
							"_0": "value of 'number'"
						}
					},
					"revokeRole(bytes32,address)": {
						"details": "Revokes `role` from `account`. If `account` had been granted `role`, emits a {RoleRevoked} event. Requirements: - the caller must have ``role``'s admin role. May emit a {RoleRevoked} event."
					},
					"store(uint256)": {
						"details": "Store value in variable",
						"params": {
							"num": "value to store"
						}
					},
					"supportsInterface(bytes4)": {
						"details": "See {IERC165-supportsInterface}."
					}
				},
				"version": 1
			},
			"evm": {
				"assembly": "    /* \"contracts/challenge/challenge_storage.sol\":132:1134  contract challenge_storage is AccessControl{... */\n  mstore(0x40, 0x80)\n    /* \"contracts/challenge/challenge_storage.sol\":319:383  constructor(){... */\n  callvalue\n  dup1\n  iszero\n  tag_1\n  jumpi\n  0x00\n  dup1\n  revert\ntag_1:\n  pop\n    /* \"contracts/challenge/challenge_storage.sol\":342:376  _grantRole(ADMIN_ROLE, msg.sender) */\n  tag_4\n    /* \"contracts/challenge/challenge_storage.sol\":220:243  keccak256(\"ADMIN_ROLE\") */\n  0xa49807205ce4d355092ef5a8a18f56e8913cf4a201fbe287825b095693c21775\n    /* \"contracts/challenge/challenge_storage.sol\":365:375  msg.sender */\n  caller\n    /* \"contracts/challenge/challenge_storage.sol\":342:352  _grantRole */\n  shl(0x20, tag_5)\n    /* \"contracts/challenge/challenge_storage.sol\":342:376  _grantRole(ADMIN_ROLE, msg.sender) */\n  0x20\n  shr\n  jump\t// in\ntag_4:\n    /* \"contracts/challenge/challenge_storage.sol\":132:1134  contract challenge_storage is AccessControl{... */\n  jump(tag_6)\n    /* \"@openzeppelin/contracts/access/AccessControl.sol\":7461:7694  function _grantRole(bytes32 role, address account) internal virtual {... */\ntag_5:\n    /* \"@openzeppelin/contracts/access/AccessControl.sol\":7544:7566  hasRole(role, account) */\n  tag_8\n    /* \"@openzeppelin/contracts/access/AccessControl.sol\":7552:7556  role */\n  dup3\n    /* \"@openzeppelin/contracts/access/AccessControl.sol\":7558:7565  account */\n  dup3\n    /* \"@openzeppelin/contracts/access/AccessControl.sol\":7544:7551  hasRole */\n  shl(0x20, tag_9)\n    /* \"@openzeppelin/contracts/access/AccessControl.sol\":7544:7566  hasRole(role, account) */\n  0x20\n  shr\n  jump\t// in\ntag_8:\n    /* \"@openzeppelin/contracts/access/AccessControl.sol\":7539:7688  if (!hasRole(role, account)) {... */\n  tag_10\n  jumpi\n    /* \"@openzeppelin/contracts/access/AccessControl.sol\":7614:7618  true */\n  0x01\n    /* \"@openzeppelin/contracts/access/AccessControl.sol\":7582:7588  _roles */\n  0x00\n    /* \"@openzeppelin/contracts/access/AccessControl.sol\":7582:7594  _roles[role] */\n  dup1\n    /* \"@openzeppelin/contracts/access/AccessControl.sol\":7589:7593  role */\n  dup5\n    /* \"@openzeppelin/contracts/access/AccessControl.sol\":7582:7594  _roles[role] */\n  dup2\n  mstore\n  0x20\n  add\n  swap1\n  dup2\n  mstore\n  0x20\n  add\n  0x00\n  keccak256\n    /* \"@openzeppelin/contracts/access/AccessControl.sol\":7582:7602  _roles[role].members */\n  0x00\n  add\n    /* \"@openzeppelin/contracts/access/AccessControl.sol\":7582:7611  _roles[role].members[account] */\n  0x00\n    /* \"@openzeppelin/contracts/access/AccessControl.sol\":7603:7610  account */\n  dup4\n    /* \"@openzeppelin/contracts/access/AccessControl.sol\":7582:7611  _roles[role].members[account] */\n  0xffffffffffffffffffffffffffffffffffffffff\n  and\n  0xffffffffffffffffffffffffffffffffffffffff\n  and\n  dup2\n  mstore\n  0x20\n  add\n  swap1\n  dup2\n  mstore\n  0x20\n  add\n  0x00\n  keccak256\n  0x00\n    /* \"@openzeppelin/contracts/access/AccessControl.sol\":7582:7618  _roles[role].members[account] = true */\n  0x0100\n  exp\n  dup2\n  sload\n  dup2\n  0xff\n  mul\n  not\n  and\n  swap1\n  dup4\n  iszero\n  iszero\n  mul\n  or\n  swap1\n  sstore\n  pop\n    /* \"@openzeppelin/contracts/access/AccessControl.sol\":7664:7676  _msgSender() */\n  tag_11\n    /* \"@openzeppelin/contracts/access/AccessControl.sol\":7664:7674  _msgSender */\n  shl(0x20, tag_12)\n    /* \"@openzeppelin/contracts/access/AccessControl.sol\":7664:7676  _msgSender() */\n  0x20\n  shr\n  jump\t// in\ntag_11:\n    /* \"@openzeppelin/contracts/access/AccessControl.sol\":7637:7677  RoleGranted(role, account, _msgSender()) */\n  0xffffffffffffffffffffffffffffffffffffffff\n  and\n    /* \"@openzeppelin/contracts/access/AccessControl.sol\":7655:7662  account */\n  dup2\n    /* \"@openzeppelin/contracts/access/AccessControl.sol\":7637:7677  RoleGranted(role, account, _msgSender()) */\n  0xffffffffffffffffffffffffffffffffffffffff\n  and\n    /* \"@openzeppelin/contracts/access/AccessControl.sol\":7649:7653  role */\n  dup4\n    /* \"@openzeppelin/contracts/access/AccessControl.sol\":7637:7677  RoleGranted(role, account, _msgSender()) */\n  0x2f8788117e7eff1d82e926ec794901d17c78024a50270940304540a733656f0d\n  mload(0x40)\n  mload(0x40)\n  dup1\n  swap2\n  sub\n  swap1\n  log4\n    /* \"@openzeppelin/contracts/access/AccessControl.sol\":7539:7688  if (!hasRole(role, account)) {... */\ntag_10:\n    /* \"@openzeppelin/contracts/access/AccessControl.sol\":7461:7694  function _grantRole(bytes32 role, address account) internal virtual {... */\n  pop\n  pop\n  jump\t// out\n    /* \"@openzeppelin/contracts/access/AccessControl.sol\":2895:3040  function hasRole(bytes32 role, address account) public view virtual override returns (bool) {... */\ntag_9:\n    /* \"@openzeppelin/contracts/access/AccessControl.sol\":2981:2985  bool */\n  0x00\n    /* \"@openzeppelin/contracts/access/AccessControl.sol\":3004:3010  _roles */\n  dup1\n    /* \"@openzeppelin/contracts/access/AccessControl.sol\":3004:3016  _roles[role] */\n  0x00\n    /* \"@openzeppelin/contracts/access/AccessControl.sol\":3011:3015  role */\n  dup5\n    /* \"@openzeppelin/contracts/access/AccessControl.sol\":3004:3016  _roles[role] */\n  dup2\n  mstore\n  0x20\n  add\n  swap1\n  dup2\n  mstore\n  0x20\n  add\n  0x00\n  keccak256\n    /* \"@openzeppelin/contracts/access/AccessControl.sol\":3004:3024  _roles[role].members */\n  0x00\n  add\n    /* \"@openzeppelin/contracts/access/AccessControl.sol\":3004:3033  _roles[role].members[account] */\n  0x00\n    /* \"@openzeppelin/contracts/access/AccessControl.sol\":3025:3032  account */\n  dup4\n    /* \"@openzeppelin/contracts/access/AccessControl.sol\":3004:3033  _roles[role].members[account] */\n  0xffffffffffffffffffffffffffffffffffffffff\n  and\n  0xffffffffffffffffffffffffffffffffffffffff\n  and\n  dup2\n  mstore\n  0x20\n  add\n  swap1\n  dup2\n  mstore\n  0x20\n  add\n  0x00\n  keccak256\n  0x00\n  swap1\n  sload\n  swap1\n  0x0100\n  exp\n  swap1\n  div\n  0xff\n  and\n    /* \"@openzeppelin/contracts/access/AccessControl.sol\":2997:3033  return _roles[role].members[account] */\n  swap1\n  pop\n    /* \"@openzeppelin/contracts/access/AccessControl.sol\":2895:3040  function hasRole(bytes32 role, address account) public view virtual override returns (bool) {... */\n  swap3\n  swap2\n  pop\n  pop\n  jump\t// out\n    /* \"@openzeppelin/contracts/utils/Context.sol\":640:736  function _msgSender() internal view virtual returns (address) {... */\ntag_12:\n    /* \"@openzeppelin/contracts/utils/Context.sol\":693:700  address */\n  0x00\n    /* \"@openzeppelin/contracts/utils/Context.sol\":719:729  msg.sender */\n  caller\n    /* \"@openzeppelin/contracts/utils/Context.sol\":712:729  return msg.sender */\n  swap1\n  pop\n    /* \"@openzeppelin/contracts/utils/Context.sol\":640:736  function _msgSender() internal view virtual returns (address) {... */\n  swap1\n  jump\t// out\n    /* \"contracts/challenge/challenge_storage.sol\":132:1134  contract challenge_storage is AccessControl{... */\ntag_6:\n  dataSize(sub_0)\n  dup1\n  dataOffset(sub_0)\n  0x00\n  codecopy\n  0x00\n  return\nstop\n\nsub_0: assembly {\n        /* \"contracts/challenge/challenge_storage.sol\":132:1134  contract challenge_storage is AccessControl{... */\n      mstore(0x40, 0x80)\n      callvalue\n      dup1\n      iszero\n      tag_1\n      jumpi\n      0x00\n      dup1\n      revert\n    tag_1:\n      pop\n      jumpi(tag_2, lt(calldatasize, 0x04))\n      shr(0xe0, calldataload(0x00))\n      dup1\n      0x75b238fc\n      gt\n      tag_15\n      jumpi\n      dup1\n      0x75b238fc\n      eq\n      tag_9\n      jumpi\n      dup1\n      0x8338c88b\n      eq\n      tag_10\n      jumpi\n      dup1\n      0x91d14854\n      eq\n      tag_11\n      jumpi\n      dup1\n      0x9beaab7b\n      eq\n      tag_12\n      jumpi\n      dup1\n      0xa217fddf\n      eq\n      tag_13\n      jumpi\n      dup1\n      0xd547741f\n      eq\n      tag_14\n      jumpi\n      jump(tag_2)\n    tag_15:\n      dup1\n      0x01ffc9a7\n      eq\n      tag_3\n      jumpi\n      dup1\n      0x248a9ca3\n      eq\n      tag_4\n      jumpi\n      dup1\n      0x2e64cec1\n      eq\n      tag_5\n      jumpi\n      dup1\n      0x2f2ff15d\n      eq\n      tag_6\n      jumpi\n      dup1\n      0x36568abe\n      eq\n      tag_7\n      jumpi\n      dup1\n      0x6057361d\n      eq\n      tag_8\n      jumpi\n    tag_2:\n      0x00\n      dup1\n      revert\n        /* \"@openzeppelin/contracts/access/AccessControl.sol\":2606:2808  function supportsInterface(bytes4 interfaceId) public view virtual override returns (bool) {... */\n    tag_3:\n      tag_16\n      0x04\n      dup1\n      calldatasize\n      sub\n      dup2\n      add\n      swap1\n      tag_17\n      swap2\n      swap1\n      tag_18\n      jump\t// in\n    tag_17:\n      tag_19\n      jump\t// in\n    tag_16:\n      mload(0x40)\n      tag_20\n      swap2\n      swap1\n      tag_21\n      jump\t// in\n    tag_20:\n      mload(0x40)\n      dup1\n      swap2\n      sub\n      swap1\n      return\n        /* \"@openzeppelin/contracts/access/AccessControl.sol\":4378:4507  function getRoleAdmin(bytes32 role) public view virtual override returns (bytes32) {... */\n    tag_4:\n      tag_22\n      0x04\n      dup1\n      calldatasize\n      sub\n      dup2\n      add\n      swap1\n      tag_23\n      swap2\n      swap1\n      tag_24\n      jump\t// in\n    tag_23:\n      tag_25\n      jump\t// in\n    tag_22:\n      mload(0x40)\n      tag_26\n      swap2\n      swap1\n      tag_27\n      jump\t// in\n    tag_26:\n      mload(0x40)\n      dup1\n      swap2\n      sub\n      swap1\n      return\n        /* \"contracts/challenge/challenge_storage.sol\":1053:1132  function retrieve() public view returns (uint256){... */\n    tag_5:\n      tag_28\n      tag_29\n      jump\t// in\n    tag_28:\n      mload(0x40)\n      tag_30\n      swap2\n      swap1\n      tag_31\n      jump\t// in\n    tag_30:\n      mload(0x40)\n      dup1\n      swap2\n      sub\n      swap1\n      return\n        /* \"@openzeppelin/contracts/access/AccessControl.sol\":4803:4948  function grantRole(bytes32 role, address account) public virtual override onlyRole(getRoleAdmin(role)) {... */\n    tag_6:\n      tag_32\n      0x04\n      dup1\n      calldatasize\n      sub\n      dup2\n      add\n      swap1\n      tag_33\n      swap2\n      swap1\n      tag_34\n      jump\t// in\n    tag_33:\n      tag_35\n      jump\t// in\n    tag_32:\n      stop\n        /* \"@openzeppelin/contracts/access/AccessControl.sol\":5912:6126  function renounceRole(bytes32 role, address account) public virtual override {... */\n    tag_7:\n      tag_36\n      0x04\n      dup1\n      calldatasize\n      sub\n      dup2\n      add\n      swap1\n      tag_37\n      swap2\n      swap1\n      tag_34\n      jump\t// in\n    tag_37:\n      tag_38\n      jump\t// in\n    tag_36:\n      stop\n        /* \"contracts/challenge/challenge_storage.sol\":894:972  function store(uint256 num) public just_writer() {... */\n    tag_8:\n      tag_39\n      0x04\n      dup1\n      calldatasize\n      sub\n      dup2\n      add\n      swap1\n      tag_40\n      swap2\n      swap1\n      tag_41\n      jump\t// in\n    tag_40:\n      tag_42\n      jump\t// in\n    tag_39:\n      stop\n        /* \"contracts/challenge/challenge_storage.sol\":183:243  bytes32 public constant ADMIN_ROLE = keccak256(\"ADMIN_ROLE\") */\n    tag_9:\n      tag_43\n      tag_44\n      jump\t// in\n    tag_43:\n      mload(0x40)\n      tag_45\n      swap2\n      swap1\n      tag_27\n      jump\t// in\n    tag_45:\n      mload(0x40)\n      dup1\n      swap2\n      sub\n      swap1\n      return\n        /* \"contracts/challenge/challenge_storage.sol\":662:782  function add_role(address account) public just_admin(){... */\n    tag_10:\n      tag_46\n      0x04\n      dup1\n      calldatasize\n      sub\n      dup2\n      add\n      swap1\n      tag_47\n      swap2\n      swap1\n      tag_48\n      jump\t// in\n    tag_47:\n      tag_49\n      jump\t// in\n    tag_46:\n      stop\n        /* \"@openzeppelin/contracts/access/AccessControl.sol\":2895:3040  function hasRole(bytes32 role, address account) public view virtual override returns (bool) {... */\n    tag_11:\n      tag_50\n      0x04\n      dup1\n      calldatasize\n      sub\n      dup2\n      add\n      swap1\n      tag_51\n      swap2\n      swap1\n      tag_34\n      jump\t// in\n    tag_51:\n      tag_52\n      jump\t// in\n    tag_50:\n      mload(0x40)\n      tag_53\n      swap2\n      swap1\n      tag_21\n      jump\t// in\n    tag_53:\n      mload(0x40)\n      dup1\n      swap2\n      sub\n      swap1\n      return\n        /* \"contracts/challenge/challenge_storage.sol\":249:311  bytes32 public constant WRITER_ROLE = keccak256(\"WRITER_ROLE\") */\n    tag_12:\n      tag_54\n      tag_55\n      jump\t// in\n    tag_54:\n      mload(0x40)\n      tag_56\n      swap2\n      swap1\n      tag_27\n      jump\t// in\n    tag_56:\n      mload(0x40)\n      dup1\n      swap2\n      sub\n      swap1\n      return\n        /* \"@openzeppelin/contracts/access/AccessControl.sol\":2027:2076  bytes32 public constant DEFAULT_ADMIN_ROLE = 0x00 */\n    tag_13:\n      tag_57\n      tag_58\n      jump\t// in\n    tag_57:\n      mload(0x40)\n      tag_59\n      swap2\n      swap1\n      tag_27\n      jump\t// in\n    tag_59:\n      mload(0x40)\n      dup1\n      swap2\n      sub\n      swap1\n      return\n        /* \"@openzeppelin/contracts/access/AccessControl.sol\":5228:5375  function revokeRole(bytes32 role, address account) public virtual override onlyRole(getRoleAdmin(role)) {... */\n    tag_14:\n      tag_60\n      0x04\n      dup1\n      calldatasize\n      sub\n      dup2\n      add\n      swap1\n      tag_61\n      swap2\n      swap1\n      tag_34\n      jump\t// in\n    tag_61:\n      tag_62\n      jump\t// in\n    tag_60:\n      stop\n        /* \"@openzeppelin/contracts/access/AccessControl.sol\":2606:2808  function supportsInterface(bytes4 interfaceId) public view virtual override returns (bool) {... */\n    tag_19:\n        /* \"@openzeppelin/contracts/access/AccessControl.sol\":2691:2695  bool */\n      0x00\n        /* \"@openzeppelin/contracts/access/AccessControl.sol\":2729:2761  type(IAccessControl).interfaceId */\n      0x7965db0b00000000000000000000000000000000000000000000000000000000\n        /* \"@openzeppelin/contracts/access/AccessControl.sol\":2714:2761  interfaceId == type(IAccessControl).interfaceId */\n      not(0xffffffffffffffffffffffffffffffffffffffffffffffffffffffff)\n      and\n        /* \"@openzeppelin/contracts/access/AccessControl.sol\":2714:2725  interfaceId */\n      dup3\n        /* \"@openzeppelin/contracts/access/AccessControl.sol\":2714:2761  interfaceId == type(IAccessControl).interfaceId */\n      not(0xffffffffffffffffffffffffffffffffffffffffffffffffffffffff)\n      and\n      eq\n        /* \"@openzeppelin/contracts/access/AccessControl.sol\":2714:2801  interfaceId == type(IAccessControl).interfaceId || super.supportsInterface(interfaceId) */\n      dup1\n      tag_64\n      jumpi\n      pop\n        /* \"@openzeppelin/contracts/access/AccessControl.sol\":2765:2801  super.supportsInterface(interfaceId) */\n      tag_65\n        /* \"@openzeppelin/contracts/access/AccessControl.sol\":2789:2800  interfaceId */\n      dup3\n        /* \"@openzeppelin/contracts/access/AccessControl.sol\":2765:2788  super.supportsInterface */\n      tag_66\n        /* \"@openzeppelin/contracts/access/AccessControl.sol\":2765:2801  super.supportsInterface(interfaceId) */\n      jump\t// in\n    tag_65:\n        /* \"@openzeppelin/contracts/access/AccessControl.sol\":2714:2801  interfaceId == type(IAccessControl).interfaceId || super.supportsInterface(interfaceId) */\n    tag_64:\n        /* \"@openzeppelin/contracts/access/AccessControl.sol\":2707:2801  return interfaceId == type(IAccessControl).interfaceId || super.supportsInterface(interfaceId) */\n      swap1\n      pop\n        /* \"@openzeppelin/contracts/access/AccessControl.sol\":2606:2808  function supportsInterface(bytes4 interfaceId) public view virtual override returns (bool) {... */\n      swap2\n      swap1\n      pop\n      jump\t// out\n        /* \"@openzeppelin/contracts/access/AccessControl.sol\":4378:4507  function getRoleAdmin(bytes32 role) public view virtual override returns (bytes32) {... */\n    tag_25:\n        /* \"@openzeppelin/contracts/access/AccessControl.sol\":4452:4459  bytes32 */\n      0x00\n        /* \"@openzeppelin/contracts/access/AccessControl.sol\":4478:4484  _roles */\n      dup1\n        /* \"@openzeppelin/contracts/access/AccessControl.sol\":4478:4490  _roles[role] */\n      0x00\n        /* \"@openzeppelin/contracts/access/AccessControl.sol\":4485:4489  role */\n      dup4\n        /* \"@openzeppelin/contracts/access/AccessControl.sol\":4478:4490  _roles[role] */\n      dup2\n      mstore\n      0x20\n      add\n      swap1\n      dup2\n      mstore\n      0x20\n      add\n      0x00\n      keccak256\n        /* \"@openzeppelin/contracts/access/AccessControl.sol\":4478:4500  _roles[role].adminRole */\n      0x01\n      add\n      sload\n        /* \"@openzeppelin/contracts/access/AccessControl.sol\":4471:4500  return _roles[role].adminRole */\n      swap1\n      pop\n        /* \"@openzeppelin/contracts/access/AccessControl.sol\":4378:4507  function getRoleAdmin(bytes32 role) public view virtual override returns (bytes32) {... */\n      swap2\n      swap1\n      pop\n      jump\t// out\n        /* \"contracts/challenge/challenge_storage.sol\":1053:1132  function retrieve() public view returns (uint256){... */\n    tag_29:\n        /* \"contracts/challenge/challenge_storage.sol\":1094:1101  uint256 */\n      0x00\n        /* \"contracts/challenge/challenge_storage.sol\":1119:1125  number */\n      sload(0x01)\n        /* \"contracts/challenge/challenge_storage.sol\":1112:1125  return number */\n      swap1\n      pop\n        /* \"contracts/challenge/challenge_storage.sol\":1053:1132  function retrieve() public view returns (uint256){... */\n      swap1\n      jump\t// out\n        /* \"@openzeppelin/contracts/access/AccessControl.sol\":4803:4948  function grantRole(bytes32 role, address account) public virtual override onlyRole(getRoleAdmin(role)) {... */\n    tag_35:\n        /* \"@openzeppelin/contracts/access/AccessControl.sol\":4886:4904  getRoleAdmin(role) */\n      tag_69\n        /* \"@openzeppelin/contracts/access/AccessControl.sol\":4899:4903  role */\n      dup3\n        /* \"@openzeppelin/contracts/access/AccessControl.sol\":4886:4898  getRoleAdmin */\n      tag_25\n        /* \"@openzeppelin/contracts/access/AccessControl.sol\":4886:4904  getRoleAdmin(role) */\n      jump\t// in\n    tag_69:\n        /* \"@openzeppelin/contracts/access/AccessControl.sol\":2505:2521  _checkRole(role) */\n      tag_71\n        /* \"@openzeppelin/contracts/access/AccessControl.sol\":2516:2520  role */\n      dup2\n        /* \"@openzeppelin/contracts/access/AccessControl.sol\":2505:2515  _checkRole */\n      tag_72\n        /* \"@openzeppelin/contracts/access/AccessControl.sol\":2505:2521  _checkRole(role) */\n      jump\t// in\n    tag_71:\n        /* \"@openzeppelin/contracts/access/AccessControl.sol\":4916:4941  _grantRole(role, account) */\n      tag_74\n        /* \"@openzeppelin/contracts/access/AccessControl.sol\":4927:4931  role */\n      dup4\n        /* \"@openzeppelin/contracts/access/AccessControl.sol\":4933:4940  account */\n      dup4\n        /* \"@openzeppelin/contracts/access/AccessControl.sol\":4916:4926  _grantRole */\n      tag_75\n        /* \"@openzeppelin/contracts/access/AccessControl.sol\":4916:4941  _grantRole(role, account) */\n      jump\t// in\n    tag_74:\n        /* \"@openzeppelin/contracts/access/AccessControl.sol\":4803:4948  function grantRole(bytes32 role, address account) public virtual override onlyRole(getRoleAdmin(role)) {... */\n      pop\n      pop\n      pop\n      jump\t// out\n        /* \"@openzeppelin/contracts/access/AccessControl.sol\":5912:6126  function renounceRole(bytes32 role, address account) public virtual override {... */\n    tag_38:\n        /* \"@openzeppelin/contracts/access/AccessControl.sol\":6018:6030  _msgSender() */\n      tag_77\n        /* \"@openzeppelin/contracts/access/AccessControl.sol\":6018:6028  _msgSender */\n      tag_78\n        /* \"@openzeppelin/contracts/access/AccessControl.sol\":6018:6030  _msgSender() */\n      jump\t// in\n    tag_77:\n        /* \"@openzeppelin/contracts/access/AccessControl.sol\":6007:6030  account == _msgSender() */\n      0xffffffffffffffffffffffffffffffffffffffff\n      and\n        /* \"@openzeppelin/contracts/access/AccessControl.sol\":6007:6014  account */\n      dup2\n        /* \"@openzeppelin/contracts/access/AccessControl.sol\":6007:6030  account == _msgSender() */\n      0xffffffffffffffffffffffffffffffffffffffff\n      and\n      eq\n        /* \"@openzeppelin/contracts/access/AccessControl.sol\":5999:6082  require(account == _msgSender(), \"AccessControl: can only renounce roles for self\") */\n      tag_79\n      jumpi\n      mload(0x40)\n      0x08c379a000000000000000000000000000000000000000000000000000000000\n      dup2\n      mstore\n      0x04\n      add\n      tag_80\n      swap1\n      tag_81\n      jump\t// in\n    tag_80:\n      mload(0x40)\n      dup1\n      swap2\n      sub\n      swap1\n      revert\n    tag_79:\n        /* \"@openzeppelin/contracts/access/AccessControl.sol\":6093:6119  _revokeRole(role, account) */\n      tag_82\n        /* \"@openzeppelin/contracts/access/AccessControl.sol\":6105:6109  role */\n      dup3\n        /* \"@openzeppelin/contracts/access/AccessControl.sol\":6111:6118  account */\n      dup3\n        /* \"@openzeppelin/contracts/access/AccessControl.sol\":6093:6104  _revokeRole */\n      tag_83\n        /* \"@openzeppelin/contracts/access/AccessControl.sol\":6093:6119  _revokeRole(role, account) */\n      jump\t// in\n    tag_82:\n        /* \"@openzeppelin/contracts/access/AccessControl.sol\":5912:6126  function renounceRole(bytes32 role, address account) public virtual override {... */\n      pop\n      pop\n      jump\t// out\n        /* \"contracts/challenge/challenge_storage.sol\":894:972  function store(uint256 num) public just_writer() {... */\n    tag_42:\n        /* \"contracts/challenge/challenge_storage.sol\":565:597  hasRole(WRITER_ROLE, msg.sender) */\n      tag_85\n        /* \"contracts/challenge/challenge_storage.sol\":287:311  keccak256(\"WRITER_ROLE\") */\n      0x2b8f168f361ac1393a163ed4adfa899a87be7b7c71645167bdaddd822ae453c8\n        /* \"contracts/challenge/challenge_storage.sol\":586:596  msg.sender */\n      caller\n        /* \"contracts/challenge/challenge_storage.sol\":565:572  hasRole */\n      tag_52\n        /* \"contracts/challenge/challenge_storage.sol\":565:597  hasRole(WRITER_ROLE, msg.sender) */\n      jump\t// in\n    tag_85:\n        /* \"contracts/challenge/challenge_storage.sol\":557:638  require(hasRole(WRITER_ROLE, msg.sender), \"Just the USERS can use this function\") */\n      tag_86\n      jumpi\n      mload(0x40)\n      0x08c379a000000000000000000000000000000000000000000000000000000000\n      dup2\n      mstore\n      0x04\n      add\n      tag_87\n      swap1\n      tag_88\n      jump\t// in\n    tag_87:\n      mload(0x40)\n      dup1\n      swap2\n      sub\n      swap1\n      revert\n    tag_86:\n        /* \"contracts/challenge/challenge_storage.sol\":962:965  num */\n      dup1\n        /* \"contracts/challenge/challenge_storage.sol\":953:959  number */\n      0x01\n        /* \"contracts/challenge/challenge_storage.sol\":953:965  number = num */\n      dup2\n      swap1\n      sstore\n      pop\n        /* \"contracts/challenge/challenge_storage.sol\":894:972  function store(uint256 num) public just_writer() {... */\n      pop\n      jump\t// out\n        /* \"contracts/challenge/challenge_storage.sol\":183:243  bytes32 public constant ADMIN_ROLE = keccak256(\"ADMIN_ROLE\") */\n    tag_44:\n        /* \"contracts/challenge/challenge_storage.sol\":220:243  keccak256(\"ADMIN_ROLE\") */\n      0xa49807205ce4d355092ef5a8a18f56e8913cf4a201fbe287825b095693c21775\n        /* \"contracts/challenge/challenge_storage.sol\":183:243  bytes32 public constant ADMIN_ROLE = keccak256(\"ADMIN_ROLE\") */\n      dup2\n      jump\t// out\n        /* \"contracts/challenge/challenge_storage.sol\":662:782  function add_role(address account) public just_admin(){... */\n    tag_49:\n        /* \"contracts/challenge/challenge_storage.sol\":428:459  hasRole(ADMIN_ROLE, msg.sender) */\n      tag_91\n        /* \"contracts/challenge/challenge_storage.sol\":220:243  keccak256(\"ADMIN_ROLE\") */\n      0xa49807205ce4d355092ef5a8a18f56e8913cf4a201fbe287825b095693c21775\n        /* \"contracts/challenge/challenge_storage.sol\":448:458  msg.sender */\n      caller\n        /* \"contracts/challenge/challenge_storage.sol\":428:435  hasRole */\n      tag_52\n        /* \"contracts/challenge/challenge_storage.sol\":428:459  hasRole(ADMIN_ROLE, msg.sender) */\n      jump\t// in\n    tag_91:\n        /* \"contracts/challenge/challenge_storage.sol\":420:500  require(hasRole(ADMIN_ROLE, msg.sender), \"Just the Admin can use this function\") */\n      tag_92\n      jumpi\n      mload(0x40)\n      0x08c379a000000000000000000000000000000000000000000000000000000000\n      dup2\n      mstore\n      0x04\n      add\n      tag_93\n      swap1\n      tag_94\n      jump\t// in\n    tag_93:\n      mload(0x40)\n      dup1\n      swap2\n      sub\n      swap1\n      revert\n    tag_92:\n        /* \"contracts/challenge/challenge_storage.sol\":743:775  _grantRole(WRITER_ROLE, account) */\n      tag_96\n        /* \"contracts/challenge/challenge_storage.sol\":287:311  keccak256(\"WRITER_ROLE\") */\n      0x2b8f168f361ac1393a163ed4adfa899a87be7b7c71645167bdaddd822ae453c8\n        /* \"contracts/challenge/challenge_storage.sol\":767:774  account */\n      dup3\n        /* \"contracts/challenge/challenge_storage.sol\":743:753  _grantRole */\n      tag_75\n        /* \"contracts/challenge/challenge_storage.sol\":743:775  _grantRole(WRITER_ROLE, account) */\n      jump\t// in\n    tag_96:\n        /* \"contracts/challenge/challenge_storage.sol\":662:782  function add_role(address account) public just_admin(){... */\n      pop\n      jump\t// out\n        /* \"@openzeppelin/contracts/access/AccessControl.sol\":2895:3040  function hasRole(bytes32 role, address account) public view virtual override returns (bool) {... */\n    tag_52:\n        /* \"@openzeppelin/contracts/access/AccessControl.sol\":2981:2985  bool */\n      0x00\n        /* \"@openzeppelin/contracts/access/AccessControl.sol\":3004:3010  _roles */\n      dup1\n        /* \"@openzeppelin/contracts/access/AccessControl.sol\":3004:3016  _roles[role] */\n      0x00\n        /* \"@openzeppelin/contracts/access/AccessControl.sol\":3011:3015  role */\n      dup5\n        /* \"@openzeppelin/contracts/access/AccessControl.sol\":3004:3016  _roles[role] */\n      dup2\n      mstore\n      0x20\n      add\n      swap1\n      dup2\n      mstore\n      0x20\n      add\n      0x00\n      keccak256\n        /* \"@openzeppelin/contracts/access/AccessControl.sol\":3004:3024  _roles[role].members */\n      0x00\n      add\n        /* \"@openzeppelin/contracts/access/AccessControl.sol\":3004:3033  _roles[role].members[account] */\n      0x00\n        /* \"@openzeppelin/contracts/access/AccessControl.sol\":3025:3032  account */\n      dup4\n        /* \"@openzeppelin/contracts/access/AccessControl.sol\":3004:3033  _roles[role].members[account] */\n      0xffffffffffffffffffffffffffffffffffffffff\n      and\n      0xffffffffffffffffffffffffffffffffffffffff\n      and\n      dup2\n      mstore\n      0x20\n      add\n      swap1\n      dup2\n      mstore\n      0x20\n      add\n      0x00\n      keccak256\n      0x00\n      swap1\n      sload\n      swap1\n      0x0100\n      exp\n      swap1\n      div\n      0xff\n      and\n        /* \"@openzeppelin/contracts/access/AccessControl.sol\":2997:3033  return _roles[role].members[account] */\n      swap1\n      pop\n        /* \"@openzeppelin/contracts/access/AccessControl.sol\":2895:3040  function hasRole(bytes32 role, address account) public view virtual override returns (bool) {... */\n      swap3\n      swap2\n      pop\n      pop\n      jump\t// out\n        /* \"contracts/challenge/challenge_storage.sol\":249:311  bytes32 public constant WRITER_ROLE = keccak256(\"WRITER_ROLE\") */\n    tag_55:\n        /* \"contracts/challenge/challenge_storage.sol\":287:311  keccak256(\"WRITER_ROLE\") */\n      0x2b8f168f361ac1393a163ed4adfa899a87be7b7c71645167bdaddd822ae453c8\n        /* \"contracts/challenge/challenge_storage.sol\":249:311  bytes32 public constant WRITER_ROLE = keccak256(\"WRITER_ROLE\") */\n      dup2\n      jump\t// out\n        /* \"@openzeppelin/contracts/access/AccessControl.sol\":2027:2076  bytes32 public constant DEFAULT_ADMIN_ROLE = 0x00 */\n    tag_58:\n        /* \"@openzeppelin/contracts/access/AccessControl.sol\":2072:2076  0x00 */\n      0x00\n        /* \"@openzeppelin/contracts/access/AccessControl.sol\":2027:2076  bytes32 public constant DEFAULT_ADMIN_ROLE = 0x00 */\n      dup1\n      shl\n      dup2\n      jump\t// out\n        /* \"@openzeppelin/contracts/access/AccessControl.sol\":5228:5375  function revokeRole(bytes32 role, address account) public virtual override onlyRole(getRoleAdmin(role)) {... */\n    tag_62:\n        /* \"@openzeppelin/contracts/access/AccessControl.sol\":5312:5330  getRoleAdmin(role) */\n      tag_98\n        /* \"@openzeppelin/contracts/access/AccessControl.sol\":5325:5329  role */\n      dup3\n        /* \"@openzeppelin/contracts/access/AccessControl.sol\":5312:5324  getRoleAdmin */\n      tag_25\n        /* \"@openzeppelin/contracts/access/AccessControl.sol\":5312:5330  getRoleAdmin(role) */\n      jump\t// in\n    tag_98:\n        /* \"@openzeppelin/contracts/access/AccessControl.sol\":2505:2521  _checkRole(role) */\n      tag_100\n        /* \"@openzeppelin/contracts/access/AccessControl.sol\":2516:2520  role */\n      dup2\n        /* \"@openzeppelin/contracts/access/AccessControl.sol\":2505:2515  _checkRole */\n      tag_72\n        /* \"@openzeppelin/contracts/access/AccessControl.sol\":2505:2521  _checkRole(role) */\n      jump\t// in\n    tag_100:\n        /* \"@openzeppelin/contracts/access/AccessControl.sol\":5342:5368  _revokeRole(role, account) */\n      tag_102\n        /* \"@openzeppelin/contracts/access/AccessControl.sol\":5354:5358  role */\n      dup4\n        /* \"@openzeppelin/contracts/access/AccessControl.sol\":5360:5367  account */\n      dup4\n        /* \"@openzeppelin/contracts/access/AccessControl.sol\":5342:5353  _revokeRole */\n      tag_83\n        /* \"@openzeppelin/contracts/access/AccessControl.sol\":5342:5368  _revokeRole(role, account) */\n      jump\t// in\n    tag_102:\n        /* \"@openzeppelin/contracts/access/AccessControl.sol\":5228:5375  function revokeRole(bytes32 role, address account) public virtual override onlyRole(getRoleAdmin(role)) {... */\n      pop\n      pop\n      pop\n      jump\t// out\n        /* \"@openzeppelin/contracts/utils/introspection/ERC165.sol\":829:984  function supportsInterface(bytes4 interfaceId) public view virtual override returns (bool) {... */\n    tag_66:\n        /* \"@openzeppelin/contracts/utils/introspection/ERC165.sol\":914:918  bool */\n      0x00\n        /* \"@openzeppelin/contracts/utils/introspection/ERC165.sol\":952:977  type(IERC165).interfaceId */\n      0x01ffc9a700000000000000000000000000000000000000000000000000000000\n        /* \"@openzeppelin/contracts/utils/introspection/ERC165.sol\":937:977  interfaceId == type(IERC165).interfaceId */\n      not(0xffffffffffffffffffffffffffffffffffffffffffffffffffffffff)\n      and\n        /* \"@openzeppelin/contracts/utils/introspection/ERC165.sol\":937:948  interfaceId */\n      dup3\n        /* \"@openzeppelin/contracts/utils/introspection/ERC165.sol\":937:977  interfaceId == type(IERC165).interfaceId */\n      not(0xffffffffffffffffffffffffffffffffffffffffffffffffffffffff)\n      and\n      eq\n        /* \"@openzeppelin/contracts/utils/introspection/ERC165.sol\":930:977  return interfaceId == type(IERC165).interfaceId */\n      swap1\n      pop\n        /* \"@openzeppelin/contracts/utils/introspection/ERC165.sol\":829:984  function supportsInterface(bytes4 interfaceId) public view virtual override returns (bool) {... */\n      swap2\n      swap1\n      pop\n      jump\t// out\n        /* \"@openzeppelin/contracts/access/AccessControl.sol\":3334:3437  function _checkRole(bytes32 role) internal view virtual {... */\n    tag_72:\n        /* \"@openzeppelin/contracts/access/AccessControl.sol\":3400:3430  _checkRole(role, _msgSender()) */\n      tag_105\n        /* \"@openzeppelin/contracts/access/AccessControl.sol\":3411:3415  role */\n      dup2\n        /* \"@openzeppelin/contracts/access/AccessControl.sol\":3417:3429  _msgSender() */\n      tag_106\n        /* \"@openzeppelin/contracts/access/AccessControl.sol\":3417:3427  _msgSender */\n      tag_78\n        /* \"@openzeppelin/contracts/access/AccessControl.sol\":3417:3429  _msgSender() */\n      jump\t// in\n    tag_106:\n        /* \"@openzeppelin/contracts/access/AccessControl.sol\":3400:3410  _checkRole */\n      tag_107\n        /* \"@openzeppelin/contracts/access/AccessControl.sol\":3400:3430  _checkRole(role, _msgSender()) */\n      jump\t// in\n    tag_105:\n        /* \"@openzeppelin/contracts/access/AccessControl.sol\":3334:3437  function _checkRole(bytes32 role) internal view virtual {... */\n      pop\n      jump\t// out\n        /* \"@openzeppelin/contracts/access/AccessControl.sol\":7461:7694  function _grantRole(bytes32 role, address account) internal virtual {... */\n    tag_75:\n        /* \"@openzeppelin/contracts/access/AccessControl.sol\":7544:7566  hasRole(role, account) */\n      tag_109\n        /* \"@openzeppelin/contracts/access/AccessControl.sol\":7552:7556  role */\n      dup3\n        /* \"@openzeppelin/contracts/access/AccessControl.sol\":7558:7565  account */\n      dup3\n        /* \"@openzeppelin/contracts/access/AccessControl.sol\":7544:7551  hasRole */\n      tag_52\n        /* \"@openzeppelin/contracts/access/AccessControl.sol\":7544:7566  hasRole(role, account) */\n      jump\t// in\n    tag_109:\n        /* \"@openzeppelin/contracts/access/AccessControl.sol\":7539:7688  if (!hasRole(role, account)) {... */\n      tag_110\n      jumpi\n        /* \"@openzeppelin/contracts/access/AccessControl.sol\":7614:7618  true */\n      0x01\n        /* \"@openzeppelin/contracts/access/AccessControl.sol\":7582:7588  _roles */\n      0x00\n        /* \"@openzeppelin/contracts/access/AccessControl.sol\":7582:7594  _roles[role] */\n      dup1\n        /* \"@openzeppelin/contracts/access/AccessControl.sol\":7589:7593  role */\n      dup5\n        /* \"@openzeppelin/contracts/access/AccessControl.sol\":7582:7594  _roles[role] */\n      dup2\n      mstore\n      0x20\n      add\n      swap1\n      dup2\n      mstore\n      0x20\n      add\n      0x00\n      keccak256\n        /* \"@openzeppelin/contracts/access/AccessControl.sol\":7582:7602  _roles[role].members */\n      0x00\n      add\n        /* \"@openzeppelin/contracts/access/AccessControl.sol\":7582:7611  _roles[role].members[account] */\n      0x00\n        /* \"@openzeppelin/contracts/access/AccessControl.sol\":7603:7610  account */\n      dup4\n        /* \"@openzeppelin/contracts/access/AccessControl.sol\":7582:7611  _roles[role].members[account] */\n      0xffffffffffffffffffffffffffffffffffffffff\n      and\n      0xffffffffffffffffffffffffffffffffffffffff\n      and\n      dup2\n      mstore\n      0x20\n      add\n      swap1\n      dup2\n      mstore\n      0x20\n      add\n      0x00\n      keccak256\n      0x00\n        /* \"@openzeppelin/contracts/access/AccessControl.sol\":7582:7618  _roles[role].members[account] = true */\n      0x0100\n      exp\n      dup2\n      sload\n      dup2\n      0xff\n      mul\n      not\n      and\n      swap1\n      dup4\n      iszero\n      iszero\n      mul\n      or\n      swap1\n      sstore\n      pop\n        /* \"@openzeppelin/contracts/access/AccessControl.sol\":7664:7676  _msgSender() */\n      tag_111\n        /* \"@openzeppelin/contracts/access/AccessControl.sol\":7664:7674  _msgSender */\n      tag_78\n        /* \"@openzeppelin/contracts/access/AccessControl.sol\":7664:7676  _msgSender() */\n      jump\t// in\n    tag_111:\n        /* \"@openzeppelin/contracts/access/AccessControl.sol\":7637:7677  RoleGranted(role, account, _msgSender()) */\n      0xffffffffffffffffffffffffffffffffffffffff\n      and\n        /* \"@openzeppelin/contracts/access/AccessControl.sol\":7655:7662  account */\n      dup2\n        /* \"@openzeppelin/contracts/access/AccessControl.sol\":7637:7677  RoleGranted(role, account, _msgSender()) */\n      0xffffffffffffffffffffffffffffffffffffffff\n      and\n        /* \"@openzeppelin/contracts/access/AccessControl.sol\":7649:7653  role */\n      dup4\n        /* \"@openzeppelin/contracts/access/AccessControl.sol\":7637:7677  RoleGranted(role, account, _msgSender()) */\n      0x2f8788117e7eff1d82e926ec794901d17c78024a50270940304540a733656f0d\n      mload(0x40)\n      mload(0x40)\n      dup1\n      swap2\n      sub\n      swap1\n      log4\n        /* \"@openzeppelin/contracts/access/AccessControl.sol\":7539:7688  if (!hasRole(role, account)) {... */\n    tag_110:\n        /* \"@openzeppelin/contracts/access/AccessControl.sol\":7461:7694  function _grantRole(bytes32 role, address account) internal virtual {... */\n      pop\n      pop\n      jump\t// out\n        /* \"@openzeppelin/contracts/utils/Context.sol\":640:736  function _msgSender() internal view virtual returns (address) {... */\n    tag_78:\n        /* \"@openzeppelin/contracts/utils/Context.sol\":693:700  address */\n      0x00\n        /* \"@openzeppelin/contracts/utils/Context.sol\":719:729  msg.sender */\n      caller\n        /* \"@openzeppelin/contracts/utils/Context.sol\":712:729  return msg.sender */\n      swap1\n      pop\n        /* \"@openzeppelin/contracts/utils/Context.sol\":640:736  function _msgSender() internal view virtual returns (address) {... */\n      swap1\n      jump\t// out\n        /* \"@openzeppelin/contracts/access/AccessControl.sol\":7865:8099  function _revokeRole(bytes32 role, address account) internal virtual {... */\n    tag_83:\n        /* \"@openzeppelin/contracts/access/AccessControl.sol\":7948:7970  hasRole(role, account) */\n      tag_114\n        /* \"@openzeppelin/contracts/access/AccessControl.sol\":7956:7960  role */\n      dup3\n        /* \"@openzeppelin/contracts/access/AccessControl.sol\":7962:7969  account */\n      dup3\n        /* \"@openzeppelin/contracts/access/AccessControl.sol\":7948:7955  hasRole */\n      tag_52\n        /* \"@openzeppelin/contracts/access/AccessControl.sol\":7948:7970  hasRole(role, account) */\n      jump\t// in\n    tag_114:\n        /* \"@openzeppelin/contracts/access/AccessControl.sol\":7944:8093  if (hasRole(role, account)) {... */\n      iszero\n      tag_115\n      jumpi\n        /* \"@openzeppelin/contracts/access/AccessControl.sol\":8018:8023  false */\n      0x00\n        /* \"@openzeppelin/contracts/access/AccessControl.sol\":7986:7992  _roles */\n      dup1\n        /* \"@openzeppelin/contracts/access/AccessControl.sol\":7986:7998  _roles[role] */\n      0x00\n        /* \"@openzeppelin/contracts/access/AccessControl.sol\":7993:7997  role */\n      dup5\n        /* \"@openzeppelin/contracts/access/AccessControl.sol\":7986:7998  _roles[role] */\n      dup2\n      mstore\n      0x20\n      add\n      swap1\n      dup2\n      mstore\n      0x20\n      add\n      0x00\n      keccak256\n        /* \"@openzeppelin/contracts/access/AccessControl.sol\":7986:8006  _roles[role].members */\n      0x00\n      add\n        /* \"@openzeppelin/contracts/access/AccessControl.sol\":7986:8015  _roles[role].members[account] */\n      0x00\n        /* \"@openzeppelin/contracts/access/AccessControl.sol\":8007:8014  account */\n      dup4\n        /* \"@openzeppelin/contracts/access/AccessControl.sol\":7986:8015  _roles[role].members[account] */\n      0xffffffffffffffffffffffffffffffffffffffff\n      and\n      0xffffffffffffffffffffffffffffffffffffffff\n      and\n      dup2\n      mstore\n      0x20\n      add\n      swap1\n      dup2\n      mstore\n      0x20\n      add\n      0x00\n      keccak256\n      0x00\n        /* \"@openzeppelin/contracts/access/AccessControl.sol\":7986:8023  _roles[role].members[account] = false */\n      0x0100\n      exp\n      dup2\n      sload\n      dup2\n      0xff\n      mul\n      not\n      and\n      swap1\n      dup4\n      iszero\n      iszero\n      mul\n      or\n      swap1\n      sstore\n      pop\n        /* \"@openzeppelin/contracts/access/AccessControl.sol\":8069:8081  _msgSender() */\n      tag_116\n        /* \"@openzeppelin/contracts/access/AccessControl.sol\":8069:8079  _msgSender */\n      tag_78\n        /* \"@openzeppelin/contracts/access/AccessControl.sol\":8069:8081  _msgSender() */\n      jump\t// in\n    tag_116:\n        /* \"@openzeppelin/contracts/access/AccessControl.sol\":8042:8082  RoleRevoked(role, account, _msgSender()) */\n      0xffffffffffffffffffffffffffffffffffffffff\n      and\n        /* \"@openzeppelin/contracts/access/AccessControl.sol\":8060:8067  account */\n      dup2\n        /* \"@openzeppelin/contracts/access/AccessControl.sol\":8042:8082  RoleRevoked(role, account, _msgSender()) */\n      0xffffffffffffffffffffffffffffffffffffffff\n      and\n        /* \"@openzeppelin/contracts/access/AccessControl.sol\":8054:8058  role */\n      dup4\n        /* \"@openzeppelin/contracts/access/AccessControl.sol\":8042:8082  RoleRevoked(role, account, _msgSender()) */\n      0xf6391f5c32d9c69d2a47ea670b442974b53935d1edc7fd64eb21e047a839171b\n      mload(0x40)\n      mload(0x40)\n      dup1\n      swap2\n      sub\n      swap1\n      log4\n        /* \"@openzeppelin/contracts/access/AccessControl.sol\":7944:8093  if (hasRole(role, account)) {... */\n    tag_115:\n        /* \"@openzeppelin/contracts/access/AccessControl.sol\":7865:8099  function _revokeRole(bytes32 role, address account) internal virtual {... */\n      pop\n      pop\n      jump\t// out\n        /* \"@openzeppelin/contracts/access/AccessControl.sol\":3718:4197  function _checkRole(bytes32 role, address account) internal view virtual {... */\n    tag_107:\n        /* \"@openzeppelin/contracts/access/AccessControl.sol\":3806:3828  hasRole(role, account) */\n      tag_118\n        /* \"@openzeppelin/contracts/access/AccessControl.sol\":3814:3818  role */\n      dup3\n        /* \"@openzeppelin/contracts/access/AccessControl.sol\":3820:3827  account */\n      dup3\n        /* \"@openzeppelin/contracts/access/AccessControl.sol\":3806:3813  hasRole */\n      tag_52\n        /* \"@openzeppelin/contracts/access/AccessControl.sol\":3806:3828  hasRole(role, account) */\n      jump\t// in\n    tag_118:\n        /* \"@openzeppelin/contracts/access/AccessControl.sol\":3801:4191  if (!hasRole(role, account)) {... */\n      tag_119\n      jumpi\n        /* \"@openzeppelin/contracts/access/AccessControl.sol\":3989:4017  Strings.toHexString(account) */\n      tag_120\n        /* \"@openzeppelin/contracts/access/AccessControl.sol\":4009:4016  account */\n      dup2\n        /* \"@openzeppelin/contracts/access/AccessControl.sol\":3989:4008  Strings.toHexString */\n      tag_121\n        /* \"@openzeppelin/contracts/access/AccessControl.sol\":3989:4017  Strings.toHexString(account) */\n      jump\t// in\n    tag_120:\n        /* \"@openzeppelin/contracts/access/AccessControl.sol\":4088:4126  Strings.toHexString(uint256(role), 32) */\n      tag_122\n        /* \"@openzeppelin/contracts/access/AccessControl.sol\":4116:4120  role */\n      dup4\n        /* \"@openzeppelin/contracts/access/AccessControl.sol\":4108:4121  uint256(role) */\n      0x00\n      shr\n        /* \"@openzeppelin/contracts/access/AccessControl.sol\":4123:4125  32 */\n      0x20\n        /* \"@openzeppelin/contracts/access/AccessControl.sol\":4088:4107  Strings.toHexString */\n      tag_123\n        /* \"@openzeppelin/contracts/access/AccessControl.sol\":4088:4126  Strings.toHexString(uint256(role), 32) */\n      jump\t// in\n    tag_122:\n        /* \"@openzeppelin/contracts/access/AccessControl.sol\":3896:4148  abi.encodePacked(... */\n      add(0x20, mload(0x40))\n      tag_124\n      swap3\n      swap2\n      swap1\n      tag_125\n      jump\t// in\n    tag_124:\n      mload(0x40)\n      0x20\n      dup2\n      dup4\n      sub\n      sub\n      dup2\n      mstore\n      swap1\n      0x40\n      mstore\n        /* \"@openzeppelin/contracts/access/AccessControl.sol\":3844:4180  revert(... */\n      mload(0x40)\n      0x08c379a000000000000000000000000000000000000000000000000000000000\n      dup2\n      mstore\n      0x04\n      add\n      tag_126\n      swap2\n      swap1\n      tag_127\n      jump\t// in\n    tag_126:\n      mload(0x40)\n      dup1\n      swap2\n      sub\n      swap1\n      revert\n        /* \"@openzeppelin/contracts/access/AccessControl.sol\":3801:4191  if (!hasRole(role, account)) {... */\n    tag_119:\n        /* \"@openzeppelin/contracts/access/AccessControl.sol\":3718:4197  function _checkRole(bytes32 role, address account) internal view virtual {... */\n      pop\n      pop\n      jump\t// out\n        /* \"@openzeppelin/contracts/utils/Strings.sol\":2102:2251  function toHexString(address addr) internal pure returns (string memory) {... */\n    tag_121:\n        /* \"@openzeppelin/contracts/utils/Strings.sol\":2160:2173  string memory */\n      0x60\n        /* \"@openzeppelin/contracts/utils/Strings.sol\":2192:2244  toHexString(uint256(uint160(addr)), _ADDRESS_LENGTH) */\n      tag_129\n        /* \"@openzeppelin/contracts/utils/Strings.sol\":2220:2224  addr */\n      dup3\n        /* \"@openzeppelin/contracts/utils/Strings.sol\":2204:2226  uint256(uint160(addr)) */\n      0xffffffffffffffffffffffffffffffffffffffff\n      and\n        /* \"@openzeppelin/contracts/utils/Strings.sol\":311:313  20 */\n      0x14\n        /* \"@openzeppelin/contracts/utils/Strings.sol\":2192:2244  toHexString(uint256(uint160(addr)), _ADDRESS_LENGTH) */\n      0xff\n      and\n        /* \"@openzeppelin/contracts/utils/Strings.sol\":2192:2203  toHexString */\n      tag_123\n        /* \"@openzeppelin/contracts/utils/Strings.sol\":2192:2244  toHexString(uint256(uint160(addr)), _ADDRESS_LENGTH) */\n      jump\t// in\n    tag_129:\n        /* \"@openzeppelin/contracts/utils/Strings.sol\":2185:2244  return toHexString(uint256(uint160(addr)), _ADDRESS_LENGTH) */\n      swap1\n      pop\n        /* \"@openzeppelin/contracts/utils/Strings.sol\":2102:2251  function toHexString(address addr) internal pure returns (string memory) {... */\n      swap2\n      swap1\n      pop\n      jump\t// out\n        /* \"@openzeppelin/contracts/utils/Strings.sol\":1513:1950  function toHexString(uint256 value, uint256 length) internal pure returns (string memory) {... */\n    tag_123:\n        /* \"@openzeppelin/contracts/utils/Strings.sol\":1588:1601  string memory */\n      0x60\n        /* \"@openzeppelin/contracts/utils/Strings.sol\":1613:1632  bytes memory buffer */\n      0x00\n        /* \"@openzeppelin/contracts/utils/Strings.sol\":1658:1659  2 */\n      0x02\n        /* \"@openzeppelin/contracts/utils/Strings.sol\":1649:1655  length */\n      dup4\n        /* \"@openzeppelin/contracts/utils/Strings.sol\":1645:1646  2 */\n      0x02\n        /* \"@openzeppelin/contracts/utils/Strings.sol\":1645:1655  2 * length */\n      tag_131\n      swap2\n      swap1\n      tag_132\n      jump\t// in\n    tag_131:\n        /* \"@openzeppelin/contracts/utils/Strings.sol\":1645:1659  2 * length + 2 */\n      tag_133\n      swap2\n      swap1\n      tag_134\n      jump\t// in\n    tag_133:\n        /* \"@openzeppelin/contracts/utils/Strings.sol\":1635:1660  new bytes(2 * length + 2) */\n      0xffffffffffffffff\n      dup2\n      gt\n      iszero\n      tag_135\n      jumpi\n      tag_136\n      tag_137\n      jump\t// in\n    tag_136:\n    tag_135:\n      mload(0x40)\n      swap1\n      dup1\n      dup3\n      mstore\n      dup1\n      0x1f\n      add\n      not(0x1f)\n      and\n      0x20\n      add\n      dup3\n      add\n      0x40\n      mstore\n      dup1\n      iszero\n      tag_138\n      jumpi\n      dup2\n      0x20\n      add\n      0x01\n      dup3\n      mul\n      dup1\n      calldatasize\n      dup4\n      calldatacopy\n      dup1\n      dup3\n      add\n      swap2\n      pop\n      pop\n      swap1\n      pop\n    tag_138:\n      pop\n        /* \"@openzeppelin/contracts/utils/Strings.sol\":1613:1660  bytes memory buffer = new bytes(2 * length + 2) */\n      swap1\n      pop\n        /* \"@openzeppelin/contracts/utils/Strings.sol\":1670:1685  buffer[0] = \"0\" */\n      0x3000000000000000000000000000000000000000000000000000000000000000\n        /* \"@openzeppelin/contracts/utils/Strings.sol\":1670:1676  buffer */\n      dup2\n        /* \"@openzeppelin/contracts/utils/Strings.sol\":1677:1678  0 */\n      0x00\n        /* \"@openzeppelin/contracts/utils/Strings.sol\":1670:1679  buffer[0] */\n      dup2\n      mload\n      dup2\n      lt\n      tag_139\n      jumpi\n      tag_140\n      tag_141\n      jump\t// in\n    tag_140:\n    tag_139:\n      0x20\n      add\n      add\n        /* \"@openzeppelin/contracts/utils/Strings.sol\":1670:1685  buffer[0] = \"0\" */\n      swap1\n      not(0xffffffffffffffffffffffffffffffffffffffffffffffffffffffffffffff)\n      and\n      swap1\n      dup2\n      0x00\n      byte\n      swap1\n      mstore8\n      pop\n        /* \"@openzeppelin/contracts/utils/Strings.sol\":1695:1710  buffer[1] = \"x\" */\n      0x7800000000000000000000000000000000000000000000000000000000000000\n        /* \"@openzeppelin/contracts/utils/Strings.sol\":1695:1701  buffer */\n      dup2\n        /* \"@openzeppelin/contracts/utils/Strings.sol\":1702:1703  1 */\n      0x01\n        /* \"@openzeppelin/contracts/utils/Strings.sol\":1695:1704  buffer[1] */\n      dup2\n      mload\n      dup2\n      lt\n      tag_142\n      jumpi\n      tag_143\n      tag_141\n      jump\t// in\n    tag_143:\n    tag_142:\n      0x20\n      add\n      add\n        /* \"@openzeppelin/contracts/utils/Strings.sol\":1695:1710  buffer[1] = \"x\" */\n      swap1\n      not(0xffffffffffffffffffffffffffffffffffffffffffffffffffffffffffffff)\n      and\n      swap1\n      dup2\n      0x00\n      byte\n      swap1\n      mstore8\n      pop\n        /* \"@openzeppelin/contracts/utils/Strings.sol\":1725:1734  uint256 i */\n      0x00\n        /* \"@openzeppelin/contracts/utils/Strings.sol\":1750:1751  1 */\n      0x01\n        /* \"@openzeppelin/contracts/utils/Strings.sol\":1741:1747  length */\n      dup5\n        /* \"@openzeppelin/contracts/utils/Strings.sol\":1737:1738  2 */\n      0x02\n        /* \"@openzeppelin/contracts/utils/Strings.sol\":1737:1747  2 * length */\n      tag_147\n      swap2\n      swap1\n      tag_132\n      jump\t// in\n    tag_147:\n        /* \"@openzeppelin/contracts/utils/Strings.sol\":1737:1751  2 * length + 1 */\n      tag_148\n      swap2\n      swap1\n      tag_134\n      jump\t// in\n    tag_148:\n        /* \"@openzeppelin/contracts/utils/Strings.sol\":1725:1751  uint256 i = 2 * length + 1 */\n      swap1\n      pop\n        /* \"@openzeppelin/contracts/utils/Strings.sol\":1720:1848  for (uint256 i = 2 * length + 1; i > 1; --i) {... */\n    tag_144:\n        /* \"@openzeppelin/contracts/utils/Strings.sol\":1757:1758  1 */\n      0x01\n        /* \"@openzeppelin/contracts/utils/Strings.sol\":1753:1754  i */\n      dup2\n        /* \"@openzeppelin/contracts/utils/Strings.sol\":1753:1758  i > 1 */\n      gt\n        /* \"@openzeppelin/contracts/utils/Strings.sol\":1720:1848  for (uint256 i = 2 * length + 1; i > 1; --i) {... */\n      iszero\n      tag_145\n      jumpi\n        /* \"@openzeppelin/contracts/utils/Strings.sol\":1791:1799  _SYMBOLS */\n      0x3031323334353637383961626364656600000000000000000000000000000000\n        /* \"@openzeppelin/contracts/utils/Strings.sol\":1808:1811  0xf */\n      0x0f\n        /* \"@openzeppelin/contracts/utils/Strings.sol\":1800:1805  value */\n      dup7\n        /* \"@openzeppelin/contracts/utils/Strings.sol\":1800:1811  value & 0xf */\n      and\n        /* \"@openzeppelin/contracts/utils/Strings.sol\":1791:1812  _SYMBOLS[value & 0xf] */\n      0x10\n      dup2\n      lt\n      tag_149\n      jumpi\n      tag_150\n      tag_141\n      jump\t// in\n    tag_150:\n    tag_149:\n      byte\n      0xf8\n      shl\n        /* \"@openzeppelin/contracts/utils/Strings.sol\":1779:1785  buffer */\n      dup3\n        /* \"@openzeppelin/contracts/utils/Strings.sol\":1786:1787  i */\n      dup3\n        /* \"@openzeppelin/contracts/utils/Strings.sol\":1779:1788  buffer[i] */\n      dup2\n      mload\n      dup2\n      lt\n      tag_151\n      jumpi\n      tag_152\n      tag_141\n      jump\t// in\n    tag_152:\n    tag_151:\n      0x20\n      add\n      add\n        /* \"@openzeppelin/contracts/utils/Strings.sol\":1779:1812  buffer[i] = _SYMBOLS[value & 0xf] */\n      swap1\n      not(0xffffffffffffffffffffffffffffffffffffffffffffffffffffffffffffff)\n      and\n      swap1\n      dup2\n      0x00\n      byte\n      swap1\n      mstore8\n      pop\n        /* \"@openzeppelin/contracts/utils/Strings.sol\":1836:1837  4 */\n      0x04\n        /* \"@openzeppelin/contracts/utils/Strings.sol\":1826:1837  value >>= 4 */\n      dup6\n      swap1\n      shr\n      swap5\n      pop\n        /* \"@openzeppelin/contracts/utils/Strings.sol\":1760:1763  --i */\n      dup1\n      tag_153\n      swap1\n      tag_154\n      jump\t// in\n    tag_153:\n      swap1\n      pop\n        /* \"@openzeppelin/contracts/utils/Strings.sol\":1720:1848  for (uint256 i = 2 * length + 1; i > 1; --i) {... */\n      jump(tag_144)\n    tag_145:\n      pop\n        /* \"@openzeppelin/contracts/utils/Strings.sol\":1874:1875  0 */\n      0x00\n        /* \"@openzeppelin/contracts/utils/Strings.sol\":1865:1870  value */\n      dup5\n        /* \"@openzeppelin/contracts/utils/Strings.sol\":1865:1875  value == 0 */\n      eq\n        /* \"@openzeppelin/contracts/utils/Strings.sol\":1857:1912  require(value == 0, \"Strings: hex length insufficient\") */\n      tag_155\n      jumpi\n      mload(0x40)\n      0x08c379a000000000000000000000000000000000000000000000000000000000\n      dup2\n      mstore\n      0x04\n      add\n      tag_156\n      swap1\n      tag_157\n      jump\t// in\n    tag_156:\n      mload(0x40)\n      dup1\n      swap2\n      sub\n      swap1\n      revert\n    tag_155:\n        /* \"@openzeppelin/contracts/utils/Strings.sol\":1936:1942  buffer */\n      dup1\n        /* \"@openzeppelin/contracts/utils/Strings.sol\":1922:1943  return string(buffer) */\n      swap2\n      pop\n      pop\n        /* \"@openzeppelin/contracts/utils/Strings.sol\":1513:1950  function toHexString(uint256 value, uint256 length) internal pure returns (string memory) {... */\n      swap3\n      swap2\n      pop\n      pop\n      jump\t// out\n        /* \"#utility.yul\":88:205   */\n    tag_159:\n        /* \"#utility.yul\":197:198   */\n      0x00\n        /* \"#utility.yul\":194:195   */\n      dup1\n        /* \"#utility.yul\":187:199   */\n      revert\n        /* \"#utility.yul\":334:483   */\n    tag_161:\n        /* \"#utility.yul\":370:377   */\n      0x00\n        /* \"#utility.yul\":410:476   */\n      0xffffffff00000000000000000000000000000000000000000000000000000000\n        /* \"#utility.yul\":403:408   */\n      dup3\n        /* \"#utility.yul\":399:477   */\n      and\n        /* \"#utility.yul\":388:477   */\n      swap1\n      pop\n        /* \"#utility.yul\":334:483   */\n      swap2\n      swap1\n      pop\n      jump\t// out\n        /* \"#utility.yul\":489:609   */\n    tag_162:\n        /* \"#utility.yul\":561:584   */\n      tag_204\n        /* \"#utility.yul\":578:583   */\n      dup2\n        /* \"#utility.yul\":561:584   */\n      tag_161\n      jump\t// in\n    tag_204:\n        /* \"#utility.yul\":554:559   */\n      dup2\n        /* \"#utility.yul\":551:585   */\n      eq\n        /* \"#utility.yul\":541:603   */\n      tag_205\n      jumpi\n        /* \"#utility.yul\":599:600   */\n      0x00\n        /* \"#utility.yul\":596:597   */\n      dup1\n        /* \"#utility.yul\":589:601   */\n      revert\n        /* \"#utility.yul\":541:603   */\n    tag_205:\n        /* \"#utility.yul\":489:609   */\n      pop\n      jump\t// out\n        /* \"#utility.yul\":615:752   */\n    tag_163:\n        /* \"#utility.yul\":660:665   */\n      0x00\n        /* \"#utility.yul\":698:704   */\n      dup2\n        /* \"#utility.yul\":685:705   */\n      calldataload\n        /* \"#utility.yul\":676:705   */\n      swap1\n      pop\n        /* \"#utility.yul\":714:746   */\n      tag_207\n        /* \"#utility.yul\":740:745   */\n      dup2\n        /* \"#utility.yul\":714:746   */\n      tag_162\n      jump\t// in\n    tag_207:\n        /* \"#utility.yul\":615:752   */\n      swap3\n      swap2\n      pop\n      pop\n      jump\t// out\n        /* \"#utility.yul\":758:1085   */\n    tag_18:\n        /* \"#utility.yul\":816:822   */\n      0x00\n        /* \"#utility.yul\":865:867   */\n      0x20\n        /* \"#utility.yul\":853:862   */\n      dup3\n        /* \"#utility.yul\":844:851   */\n      dup5\n        /* \"#utility.yul\":840:863   */\n      sub\n        /* \"#utility.yul\":836:868   */\n      slt\n        /* \"#utility.yul\":833:952   */\n      iszero\n      tag_209\n      jumpi\n        /* \"#utility.yul\":871:950   */\n      tag_210\n      tag_159\n      jump\t// in\n    tag_210:\n        /* \"#utility.yul\":833:952   */\n    tag_209:\n        /* \"#utility.yul\":991:992   */\n      0x00\n        /* \"#utility.yul\":1016:1068   */\n      tag_211\n        /* \"#utility.yul\":1060:1067   */\n      dup5\n        /* \"#utility.yul\":1051:1057   */\n      dup3\n        /* \"#utility.yul\":1040:1049   */\n      dup6\n        /* \"#utility.yul\":1036:1058   */\n      add\n        /* \"#utility.yul\":1016:1068   */\n      tag_163\n      jump\t// in\n    tag_211:\n        /* \"#utility.yul\":1006:1068   */\n      swap2\n      pop\n        /* \"#utility.yul\":962:1078   */\n      pop\n        /* \"#utility.yul\":758:1085   */\n      swap3\n      swap2\n      pop\n      pop\n      jump\t// out\n        /* \"#utility.yul\":1091:1181   */\n    tag_164:\n        /* \"#utility.yul\":1125:1132   */\n      0x00\n        /* \"#utility.yul\":1168:1173   */\n      dup2\n        /* \"#utility.yul\":1161:1174   */\n      iszero\n        /* \"#utility.yul\":1154:1175   */\n      iszero\n        /* \"#utility.yul\":1143:1175   */\n      swap1\n      pop\n        /* \"#utility.yul\":1091:1181   */\n      swap2\n      swap1\n      pop\n      jump\t// out\n        /* \"#utility.yul\":1187:1296   */\n    tag_165:\n        /* \"#utility.yul\":1268:1289   */\n      tag_214\n        /* \"#utility.yul\":1283:1288   */\n      dup2\n        /* \"#utility.yul\":1268:1289   */\n      tag_164\n      jump\t// in\n    tag_214:\n        /* \"#utility.yul\":1263:1266   */\n      dup3\n        /* \"#utility.yul\":1256:1290   */\n      mstore\n        /* \"#utility.yul\":1187:1296   */\n      pop\n      pop\n      jump\t// out\n        /* \"#utility.yul\":1302:1512   */\n    tag_21:\n        /* \"#utility.yul\":1389:1393   */\n      0x00\n        /* \"#utility.yul\":1427:1429   */\n      0x20\n        /* \"#utility.yul\":1416:1425   */\n      dup3\n        /* \"#utility.yul\":1412:1430   */\n      add\n        /* \"#utility.yul\":1404:1430   */\n      swap1\n      pop\n        /* \"#utility.yul\":1440:1505   */\n      tag_216\n        /* \"#utility.yul\":1502:1503   */\n      0x00\n        /* \"#utility.yul\":1491:1500   */\n      dup4\n        /* \"#utility.yul\":1487:1504   */\n      add\n        /* \"#utility.yul\":1478:1484   */\n      dup5\n        /* \"#utility.yul\":1440:1505   */\n      tag_165\n      jump\t// in\n    tag_216:\n        /* \"#utility.yul\":1302:1512   */\n      swap3\n      swap2\n      pop\n      pop\n      jump\t// out\n        /* \"#utility.yul\":1518:1595   */\n    tag_166:\n        /* \"#utility.yul\":1555:1562   */\n      0x00\n        /* \"#utility.yul\":1584:1589   */\n      dup2\n        /* \"#utility.yul\":1573:1589   */\n      swap1\n      pop\n        /* \"#utility.yul\":1518:1595   */\n      swap2\n      swap1\n      pop\n      jump\t// out\n        /* \"#utility.yul\":1601:1723   */\n    tag_167:\n        /* \"#utility.yul\":1674:1698   */\n      tag_219\n        /* \"#utility.yul\":1692:1697   */\n      dup2\n        /* \"#utility.yul\":1674:1698   */\n      tag_166\n      jump\t// in\n    tag_219:\n        /* \"#utility.yul\":1667:1672   */\n      dup2\n        /* \"#utility.yul\":1664:1699   */\n      eq\n        /* \"#utility.yul\":1654:1717   */\n      tag_220\n      jumpi\n        /* \"#utility.yul\":1713:1714   */\n      0x00\n        /* \"#utility.yul\":1710:1711   */\n      dup1\n        /* \"#utility.yul\":1703:1715   */\n      revert\n        /* \"#utility.yul\":1654:1717   */\n    tag_220:\n        /* \"#utility.yul\":1601:1723   */\n      pop\n      jump\t// out\n        /* \"#utility.yul\":1729:1868   */\n    tag_168:\n        /* \"#utility.yul\":1775:1780   */\n      0x00\n        /* \"#utility.yul\":1813:1819   */\n      dup2\n        /* \"#utility.yul\":1800:1820   */\n      calldataload\n        /* \"#utility.yul\":1791:1820   */\n      swap1\n      pop\n        /* \"#utility.yul\":1829:1862   */\n      tag_222\n        /* \"#utility.yul\":1856:1861   */\n      dup2\n        /* \"#utility.yul\":1829:1862   */\n      tag_167\n      jump\t// in\n    tag_222:\n        /* \"#utility.yul\":1729:1868   */\n      swap3\n      swap2\n      pop\n      pop\n      jump\t// out\n        /* \"#utility.yul\":1874:2203   */\n    tag_24:\n        /* \"#utility.yul\":1933:1939   */\n      0x00\n        /* \"#utility.yul\":1982:1984   */\n      0x20\n        /* \"#utility.yul\":1970:1979   */\n      dup3\n        /* \"#utility.yul\":1961:1968   */\n      dup5\n        /* \"#utility.yul\":1957:1980   */\n      sub\n        /* \"#utility.yul\":1953:1985   */\n      slt\n        /* \"#utility.yul\":1950:2069   */\n      iszero\n      tag_224\n      jumpi\n        /* \"#utility.yul\":1988:2067   */\n      tag_225\n      tag_159\n      jump\t// in\n    tag_225:\n        /* \"#utility.yul\":1950:2069   */\n    tag_224:\n        /* \"#utility.yul\":2108:2109   */\n      0x00\n        /* \"#utility.yul\":2133:2186   */\n      tag_226\n        /* \"#utility.yul\":2178:2185   */\n      dup5\n        /* \"#utility.yul\":2169:2175   */\n      dup3\n        /* \"#utility.yul\":2158:2167   */\n      dup6\n        /* \"#utility.yul\":2154:2176   */\n      add\n        /* \"#utility.yul\":2133:2186   */\n      tag_168\n      jump\t// in\n    tag_226:\n        /* \"#utility.yul\":2123:2186   */\n      swap2\n      pop\n        /* \"#utility.yul\":2079:2196   */\n      pop\n        /* \"#utility.yul\":1874:2203   */\n      swap3\n      swap2\n      pop\n      pop\n      jump\t// out\n        /* \"#utility.yul\":2209:2327   */\n    tag_169:\n        /* \"#utility.yul\":2296:2320   */\n      tag_228\n        /* \"#utility.yul\":2314:2319   */\n      dup2\n        /* \"#utility.yul\":2296:2320   */\n      tag_166\n      jump\t// in\n    tag_228:\n        /* \"#utility.yul\":2291:2294   */\n      dup3\n        /* \"#utility.yul\":2284:2321   */\n      mstore\n        /* \"#utility.yul\":2209:2327   */\n      pop\n      pop\n      jump\t// out\n        /* \"#utility.yul\":2333:2555   */\n    tag_27:\n        /* \"#utility.yul\":2426:2430   */\n      0x00\n        /* \"#utility.yul\":2464:2466   */\n      0x20\n        /* \"#utility.yul\":2453:2462   */\n      dup3\n        /* \"#utility.yul\":2449:2467   */\n      add\n        /* \"#utility.yul\":2441:2467   */\n      swap1\n      pop\n        /* \"#utility.yul\":2477:2548   */\n      tag_230\n        /* \"#utility.yul\":2545:2546   */\n      0x00\n        /* \"#utility.yul\":2534:2543   */\n      dup4\n        /* \"#utility.yul\":2530:2547   */\n      add\n        /* \"#utility.yul\":2521:2527   */\n      dup5\n        /* \"#utility.yul\":2477:2548   */\n      tag_169\n      jump\t// in\n    tag_230:\n        /* \"#utility.yul\":2333:2555   */\n      swap3\n      swap2\n      pop\n      pop\n      jump\t// out\n        /* \"#utility.yul\":2561:2638   */\n    tag_170:\n        /* \"#utility.yul\":2598:2605   */\n      0x00\n        /* \"#utility.yul\":2627:2632   */\n      dup2\n        /* \"#utility.yul\":2616:2632   */\n      swap1\n      pop\n        /* \"#utility.yul\":2561:2638   */\n      swap2\n      swap1\n      pop\n      jump\t// out\n        /* \"#utility.yul\":2644:2762   */\n    tag_171:\n        /* \"#utility.yul\":2731:2755   */\n      tag_233\n        /* \"#utility.yul\":2749:2754   */\n      dup2\n        /* \"#utility.yul\":2731:2755   */\n      tag_170\n      jump\t// in\n    tag_233:\n        /* \"#utility.yul\":2726:2729   */\n      dup3\n        /* \"#utility.yul\":2719:2756   */\n      mstore\n        /* \"#utility.yul\":2644:2762   */\n      pop\n      pop\n      jump\t// out\n        /* \"#utility.yul\":2768:2990   */\n    tag_31:\n        /* \"#utility.yul\":2861:2865   */\n      0x00\n        /* \"#utility.yul\":2899:2901   */\n      0x20\n        /* \"#utility.yul\":2888:2897   */\n      dup3\n        /* \"#utility.yul\":2884:2902   */\n      add\n        /* \"#utility.yul\":2876:2902   */\n      swap1\n      pop\n        /* \"#utility.yul\":2912:2983   */\n      tag_235\n        /* \"#utility.yul\":2980:2981   */\n      0x00\n        /* \"#utility.yul\":2969:2978   */\n      dup4\n        /* \"#utility.yul\":2965:2982   */\n      add\n        /* \"#utility.yul\":2956:2962   */\n      dup5\n        /* \"#utility.yul\":2912:2983   */\n      tag_171\n      jump\t// in\n    tag_235:\n        /* \"#utility.yul\":2768:2990   */\n      swap3\n      swap2\n      pop\n      pop\n      jump\t// out\n        /* \"#utility.yul\":2996:3122   */\n    tag_172:\n        /* \"#utility.yul\":3033:3040   */\n      0x00\n        /* \"#utility.yul\":3073:3115   */\n      0xffffffffffffffffffffffffffffffffffffffff\n        /* \"#utility.yul\":3066:3071   */\n      dup3\n        /* \"#utility.yul\":3062:3116   */\n      and\n        /* \"#utility.yul\":3051:3116   */\n      swap1\n      pop\n        /* \"#utility.yul\":2996:3122   */\n      swap2\n      swap1\n      pop\n      jump\t// out\n        /* \"#utility.yul\":3128:3224   */\n    tag_173:\n        /* \"#utility.yul\":3165:3172   */\n      0x00\n        /* \"#utility.yul\":3194:3218   */\n      tag_238\n        /* \"#utility.yul\":3212:3217   */\n      dup3\n        /* \"#utility.yul\":3194:3218   */\n      tag_172\n      jump\t// in\n    tag_238:\n        /* \"#utility.yul\":3183:3218   */\n      swap1\n      pop\n        /* \"#utility.yul\":3128:3224   */\n      swap2\n      swap1\n      pop\n      jump\t// out\n        /* \"#utility.yul\":3230:3352   */\n    tag_174:\n        /* \"#utility.yul\":3303:3327   */\n      tag_240\n        /* \"#utility.yul\":3321:3326   */\n      dup2\n        /* \"#utility.yul\":3303:3327   */\n      tag_173\n      jump\t// in\n    tag_240:\n        /* \"#utility.yul\":3296:3301   */\n      dup2\n        /* \"#utility.yul\":3293:3328   */\n      eq\n        /* \"#utility.yul\":3283:3346   */\n      tag_241\n      jumpi\n        /* \"#utility.yul\":3342:3343   */\n      0x00\n        /* \"#utility.yul\":3339:3340   */\n      dup1\n        /* \"#utility.yul\":3332:3344   */\n      revert\n        /* \"#utility.yul\":3283:3346   */\n    tag_241:\n        /* \"#utility.yul\":3230:3352   */\n      pop\n      jump\t// out\n        /* \"#utility.yul\":3358:3497   */\n    tag_175:\n        /* \"#utility.yul\":3404:3409   */\n      0x00\n        /* \"#utility.yul\":3442:3448   */\n      dup2\n        /* \"#utility.yul\":3429:3449   */\n      calldataload\n        /* \"#utility.yul\":3420:3449   */\n      swap1\n      pop\n        /* \"#utility.yul\":3458:3491   */\n      tag_243\n        /* \"#utility.yul\":3485:3490   */\n      dup2\n        /* \"#utility.yul\":3458:3491   */\n      tag_174\n      jump\t// in\n    tag_243:\n        /* \"#utility.yul\":3358:3497   */\n      swap3\n      swap2\n      pop\n      pop\n      jump\t// out\n        /* \"#utility.yul\":3503:3977   */\n    tag_34:\n        /* \"#utility.yul\":3571:3577   */\n      0x00\n        /* \"#utility.yul\":3579:3585   */\n      dup1\n        /* \"#utility.yul\":3628:3630   */\n      0x40\n        /* \"#utility.yul\":3616:3625   */\n      dup4\n        /* \"#utility.yul\":3607:3614   */\n      dup6\n        /* \"#utility.yul\":3603:3626   */\n      sub\n        /* \"#utility.yul\":3599:3631   */\n      slt\n        /* \"#utility.yul\":3596:3715   */\n      iszero\n      tag_245\n      jumpi\n        /* \"#utility.yul\":3634:3713   */\n      tag_246\n      tag_159\n      jump\t// in\n    tag_246:\n        /* \"#utility.yul\":3596:3715   */\n    tag_245:\n        /* \"#utility.yul\":3754:3755   */\n      0x00\n        /* \"#utility.yul\":3779:3832   */\n      tag_247\n        /* \"#utility.yul\":3824:3831   */\n      dup6\n        /* \"#utility.yul\":3815:3821   */\n      dup3\n        /* \"#utility.yul\":3804:3813   */\n      dup7\n        /* \"#utility.yul\":3800:3822   */\n      add\n        /* \"#utility.yul\":3779:3832   */\n      tag_168\n      jump\t// in\n    tag_247:\n        /* \"#utility.yul\":3769:3832   */\n      swap3\n      pop\n        /* \"#utility.yul\":3725:3842   */\n      pop\n        /* \"#utility.yul\":3881:3883   */\n      0x20\n        /* \"#utility.yul\":3907:3960   */\n      tag_248\n        /* \"#utility.yul\":3952:3959   */\n      dup6\n        /* \"#utility.yul\":3943:3949   */\n      dup3\n        /* \"#utility.yul\":3932:3941   */\n      dup7\n        /* \"#utility.yul\":3928:3950   */\n      add\n        /* \"#utility.yul\":3907:3960   */\n      tag_175\n      jump\t// in\n    tag_248:\n        /* \"#utility.yul\":3897:3960   */\n      swap2\n      pop\n        /* \"#utility.yul\":3852:3970   */\n      pop\n        /* \"#utility.yul\":3503:3977   */\n      swap3\n      pop\n      swap3\n      swap1\n      pop\n      jump\t// out\n        /* \"#utility.yul\":3983:4105   */\n    tag_176:\n        /* \"#utility.yul\":4056:4080   */\n      tag_250\n        /* \"#utility.yul\":4074:4079   */\n      dup2\n        /* \"#utility.yul\":4056:4080   */\n      tag_170\n      jump\t// in\n    tag_250:\n        /* \"#utility.yul\":4049:4054   */\n      dup2\n        /* \"#utility.yul\":4046:4081   */\n      eq\n        /* \"#utility.yul\":4036:4099   */\n      tag_251\n      jumpi\n        /* \"#utility.yul\":4095:4096   */\n      0x00\n        /* \"#utility.yul\":4092:4093   */\n      dup1\n        /* \"#utility.yul\":4085:4097   */\n      revert\n        /* \"#utility.yul\":4036:4099   */\n    tag_251:\n        /* \"#utility.yul\":3983:4105   */\n      pop\n      jump\t// out\n        /* \"#utility.yul\":4111:4250   */\n    tag_177:\n        /* \"#utility.yul\":4157:4162   */\n      0x00\n        /* \"#utility.yul\":4195:4201   */\n      dup2\n        /* \"#utility.yul\":4182:4202   */\n      calldataload\n        /* \"#utility.yul\":4173:4202   */\n      swap1\n      pop\n        /* \"#utility.yul\":4211:4244   */\n      tag_253\n        /* \"#utility.yul\":4238:4243   */\n      dup2\n        /* \"#utility.yul\":4211:4244   */\n      tag_176\n      jump\t// in\n    tag_253:\n        /* \"#utility.yul\":4111:4250   */\n      swap3\n      swap2\n      pop\n      pop\n      jump\t// out\n        /* \"#utility.yul\":4256:4585   */\n    tag_41:\n        /* \"#utility.yul\":4315:4321   */\n      0x00\n        /* \"#utility.yul\":4364:4366   */\n      0x20\n        /* \"#utility.yul\":4352:4361   */\n      dup3\n        /* \"#utility.yul\":4343:4350   */\n      dup5\n        /* \"#utility.yul\":4339:4362   */\n      sub\n        /* \"#utility.yul\":4335:4367   */\n      slt\n        /* \"#utility.yul\":4332:4451   */\n      iszero\n      tag_255\n      jumpi\n        /* \"#utility.yul\":4370:4449   */\n      tag_256\n      tag_159\n      jump\t// in\n    tag_256:\n        /* \"#utility.yul\":4332:4451   */\n    tag_255:\n        /* \"#utility.yul\":4490:4491   */\n      0x00\n        /* \"#utility.yul\":4515:4568   */\n      tag_257\n        /* \"#utility.yul\":4560:4567   */\n      dup5\n        /* \"#utility.yul\":4551:4557   */\n      dup3\n        /* \"#utility.yul\":4540:4549   */\n      dup6\n        /* \"#utility.yul\":4536:4558   */\n      add\n        /* \"#utility.yul\":4515:4568   */\n      tag_177\n      jump\t// in\n    tag_257:\n        /* \"#utility.yul\":4505:4568   */\n      swap2\n      pop\n        /* \"#utility.yul\":4461:4578   */\n      pop\n        /* \"#utility.yul\":4256:4585   */\n      swap3\n      swap2\n      pop\n      pop\n      jump\t// out\n        /* \"#utility.yul\":4591:4920   */\n    tag_48:\n        /* \"#utility.yul\":4650:4656   */\n      0x00\n        /* \"#utility.yul\":4699:4701   */\n      0x20\n        /* \"#utility.yul\":4687:4696   */\n      dup3\n        /* \"#utility.yul\":4678:4685   */\n      dup5\n        /* \"#utility.yul\":4674:4697   */\n      sub\n        /* \"#utility.yul\":4670:4702   */\n      slt\n        /* \"#utility.yul\":4667:4786   */\n      iszero\n      tag_259\n      jumpi\n        /* \"#utility.yul\":4705:4784   */\n      tag_260\n      tag_159\n      jump\t// in\n    tag_260:\n        /* \"#utility.yul\":4667:4786   */\n    tag_259:\n        /* \"#utility.yul\":4825:4826   */\n      0x00\n        /* \"#utility.yul\":4850:4903   */\n      tag_261\n        /* \"#utility.yul\":4895:4902   */\n      dup5\n        /* \"#utility.yul\":4886:4892   */\n      dup3\n        /* \"#utility.yul\":4875:4884   */\n      dup6\n        /* \"#utility.yul\":4871:4893   */\n      add\n        /* \"#utility.yul\":4850:4903   */\n      tag_175\n      jump\t// in\n    tag_261:\n        /* \"#utility.yul\":4840:4903   */\n      swap2\n      pop\n        /* \"#utility.yul\":4796:4913   */\n      pop\n        /* \"#utility.yul\":4591:4920   */\n      swap3\n      swap2\n      pop\n      pop\n      jump\t// out\n        /* \"#utility.yul\":4926:5095   */\n    tag_178:\n        /* \"#utility.yul\":5010:5021   */\n      0x00\n        /* \"#utility.yul\":5044:5050   */\n      dup3\n        /* \"#utility.yul\":5039:5042   */\n      dup3\n        /* \"#utility.yul\":5032:5051   */\n      mstore\n        /* \"#utility.yul\":5084:5088   */\n      0x20\n        /* \"#utility.yul\":5079:5082   */\n      dup3\n        /* \"#utility.yul\":5075:5089   */\n      add\n        /* \"#utility.yul\":5060:5089   */\n      swap1\n      pop\n        /* \"#utility.yul\":4926:5095   */\n      swap3\n      swap2\n      pop\n      pop\n      jump\t// out\n        /* \"#utility.yul\":5101:5335   */\n    tag_179:\n        /* \"#utility.yul\":5241:5275   */\n      0x416363657373436f6e74726f6c3a2063616e206f6e6c792072656e6f756e6365\n        /* \"#utility.yul\":5237:5238   */\n      0x00\n        /* \"#utility.yul\":5229:5235   */\n      dup3\n        /* \"#utility.yul\":5225:5239   */\n      add\n        /* \"#utility.yul\":5218:5276   */\n      mstore\n        /* \"#utility.yul\":5310:5327   */\n      0x20726f6c657320666f722073656c660000000000000000000000000000000000\n        /* \"#utility.yul\":5305:5307   */\n      0x20\n        /* \"#utility.yul\":5297:5303   */\n      dup3\n        /* \"#utility.yul\":5293:5308   */\n      add\n        /* \"#utility.yul\":5286:5328   */\n      mstore\n        /* \"#utility.yul\":5101:5335   */\n      pop\n      jump\t// out\n        /* \"#utility.yul\":5341:5707   */\n    tag_180:\n        /* \"#utility.yul\":5483:5486   */\n      0x00\n        /* \"#utility.yul\":5504:5571   */\n      tag_265\n        /* \"#utility.yul\":5568:5570   */\n      0x2f\n        /* \"#utility.yul\":5563:5566   */\n      dup4\n        /* \"#utility.yul\":5504:5571   */\n      tag_178\n      jump\t// in\n    tag_265:\n        /* \"#utility.yul\":5497:5571   */\n      swap2\n      pop\n        /* \"#utility.yul\":5580:5673   */\n      tag_266\n        /* \"#utility.yul\":5669:5672   */\n      dup3\n        /* \"#utility.yul\":5580:5673   */\n      tag_179\n      jump\t// in\n    tag_266:\n        /* \"#utility.yul\":5698:5700   */\n      0x40\n        /* \"#utility.yul\":5693:5696   */\n      dup3\n        /* \"#utility.yul\":5689:5701   */\n      add\n        /* \"#utility.yul\":5682:5701   */\n      swap1\n      pop\n        /* \"#utility.yul\":5341:5707   */\n      swap2\n      swap1\n      pop\n      jump\t// out\n        /* \"#utility.yul\":5713:6132   */\n    tag_81:\n        /* \"#utility.yul\":5879:5883   */\n      0x00\n        /* \"#utility.yul\":5917:5919   */\n      0x20\n        /* \"#utility.yul\":5906:5915   */\n      dup3\n        /* \"#utility.yul\":5902:5920   */\n      add\n        /* \"#utility.yul\":5894:5920   */\n      swap1\n      pop\n        /* \"#utility.yul\":5966:5975   */\n      dup2\n        /* \"#utility.yul\":5960:5964   */\n      dup2\n        /* \"#utility.yul\":5956:5976   */\n      sub\n        /* \"#utility.yul\":5952:5953   */\n      0x00\n        /* \"#utility.yul\":5941:5950   */\n      dup4\n        /* \"#utility.yul\":5937:5954   */\n      add\n        /* \"#utility.yul\":5930:5977   */\n      mstore\n        /* \"#utility.yul\":5994:6125   */\n      tag_268\n        /* \"#utility.yul\":6120:6124   */\n      dup2\n        /* \"#utility.yul\":5994:6125   */\n      tag_180\n      jump\t// in\n    tag_268:\n        /* \"#utility.yul\":5986:6125   */\n      swap1\n      pop\n        /* \"#utility.yul\":5713:6132   */\n      swap2\n      swap1\n      pop\n      jump\t// out\n        /* \"#utility.yul\":6138:6361   */\n    tag_181:\n        /* \"#utility.yul\":6278:6312   */\n      0x4a757374207468652055534552532063616e2075736520746869732066756e63\n        /* \"#utility.yul\":6274:6275   */\n      0x00\n        /* \"#utility.yul\":6266:6272   */\n      dup3\n        /* \"#utility.yul\":6262:6276   */\n      add\n        /* \"#utility.yul\":6255:6313   */\n      mstore\n        /* \"#utility.yul\":6347:6353   */\n      0x74696f6e00000000000000000000000000000000000000000000000000000000\n        /* \"#utility.yul\":6342:6344   */\n      0x20\n        /* \"#utility.yul\":6334:6340   */\n      dup3\n        /* \"#utility.yul\":6330:6345   */\n      add\n        /* \"#utility.yul\":6323:6354   */\n      mstore\n        /* \"#utility.yul\":6138:6361   */\n      pop\n      jump\t// out\n        /* \"#utility.yul\":6367:6733   */\n    tag_182:\n        /* \"#utility.yul\":6509:6512   */\n      0x00\n        /* \"#utility.yul\":6530:6597   */\n      tag_271\n        /* \"#utility.yul\":6594:6596   */\n      0x24\n        /* \"#utility.yul\":6589:6592   */\n      dup4\n        /* \"#utility.yul\":6530:6597   */\n      tag_178\n      jump\t// in\n    tag_271:\n        /* \"#utility.yul\":6523:6597   */\n      swap2\n      pop\n        /* \"#utility.yul\":6606:6699   */\n      tag_272\n        /* \"#utility.yul\":6695:6698   */\n      dup3\n        /* \"#utility.yul\":6606:6699   */\n      tag_181\n      jump\t// in\n    tag_272:\n        /* \"#utility.yul\":6724:6726   */\n      0x40\n        /* \"#utility.yul\":6719:6722   */\n      dup3\n        /* \"#utility.yul\":6715:6727   */\n      add\n        /* \"#utility.yul\":6708:6727   */\n      swap1\n      pop\n        /* \"#utility.yul\":6367:6733   */\n      swap2\n      swap1\n      pop\n      jump\t// out\n        /* \"#utility.yul\":6739:7158   */\n    tag_88:\n        /* \"#utility.yul\":6905:6909   */\n      0x00\n        /* \"#utility.yul\":6943:6945   */\n      0x20\n        /* \"#utility.yul\":6932:6941   */\n      dup3\n        /* \"#utility.yul\":6928:6946   */\n      add\n        /* \"#utility.yul\":6920:6946   */\n      swap1\n      pop\n        /* \"#utility.yul\":6992:7001   */\n      dup2\n        /* \"#utility.yul\":6986:6990   */\n      dup2\n        /* \"#utility.yul\":6982:7002   */\n      sub\n        /* \"#utility.yul\":6978:6979   */\n      0x00\n        /* \"#utility.yul\":6967:6976   */\n      dup4\n        /* \"#utility.yul\":6963:6980   */\n      add\n        /* \"#utility.yul\":6956:7003   */\n      mstore\n        /* \"#utility.yul\":7020:7151   */\n      tag_274\n        /* \"#utility.yul\":7146:7150   */\n      dup2\n        /* \"#utility.yul\":7020:7151   */\n      tag_182\n      jump\t// in\n    tag_274:\n        /* \"#utility.yul\":7012:7151   */\n      swap1\n      pop\n        /* \"#utility.yul\":6739:7158   */\n      swap2\n      swap1\n      pop\n      jump\t// out\n        /* \"#utility.yul\":7164:7387   */\n    tag_183:\n        /* \"#utility.yul\":7304:7338   */\n      0x4a757374207468652041646d696e2063616e2075736520746869732066756e63\n        /* \"#utility.yul\":7300:7301   */\n      0x00\n        /* \"#utility.yul\":7292:7298   */\n      dup3\n        /* \"#utility.yul\":7288:7302   */\n      add\n        /* \"#utility.yul\":7281:7339   */\n      mstore\n        /* \"#utility.yul\":7373:7379   */\n      0x74696f6e00000000000000000000000000000000000000000000000000000000\n        /* \"#utility.yul\":7368:7370   */\n      0x20\n        /* \"#utility.yul\":7360:7366   */\n      dup3\n        /* \"#utility.yul\":7356:7371   */\n      add\n        /* \"#utility.yul\":7349:7380   */\n      mstore\n        /* \"#utility.yul\":7164:7387   */\n      pop\n      jump\t// out\n        /* \"#utility.yul\":7393:7759   */\n    tag_184:\n        /* \"#utility.yul\":7535:7538   */\n      0x00\n        /* \"#utility.yul\":7556:7623   */\n      tag_277\n        /* \"#utility.yul\":7620:7622   */\n      0x24\n        /* \"#utility.yul\":7615:7618   */\n      dup4\n        /* \"#utility.yul\":7556:7623   */\n      tag_178\n      jump\t// in\n    tag_277:\n        /* \"#utility.yul\":7549:7623   */\n      swap2\n      pop\n        /* \"#utility.yul\":7632:7725   */\n      tag_278\n        /* \"#utility.yul\":7721:7724   */\n      dup3\n        /* \"#utility.yul\":7632:7725   */\n      tag_183\n      jump\t// in\n    tag_278:\n        /* \"#utility.yul\":7750:7752   */\n      0x40\n        /* \"#utility.yul\":7745:7748   */\n      dup3\n        /* \"#utility.yul\":7741:7753   */\n      add\n        /* \"#utility.yul\":7734:7753   */\n      swap1\n      pop\n        /* \"#utility.yul\":7393:7759   */\n      swap2\n      swap1\n      pop\n      jump\t// out\n        /* \"#utility.yul\":7765:8184   */\n    tag_94:\n        /* \"#utility.yul\":7931:7935   */\n      0x00\n        /* \"#utility.yul\":7969:7971   */\n      0x20\n        /* \"#utility.yul\":7958:7967   */\n      dup3\n        /* \"#utility.yul\":7954:7972   */\n      add\n        /* \"#utility.yul\":7946:7972   */\n      swap1\n      pop\n        /* \"#utility.yul\":8018:8027   */\n      dup2\n        /* \"#utility.yul\":8012:8016   */\n      dup2\n        /* \"#utility.yul\":8008:8028   */\n      sub\n        /* \"#utility.yul\":8004:8005   */\n      0x00\n        /* \"#utility.yul\":7993:8002   */\n      dup4\n        /* \"#utility.yul\":7989:8006   */\n      add\n        /* \"#utility.yul\":7982:8029   */\n      mstore\n        /* \"#utility.yul\":8046:8177   */\n      tag_280\n        /* \"#utility.yul\":8172:8176   */\n      dup2\n        /* \"#utility.yul\":8046:8177   */\n      tag_184\n      jump\t// in\n    tag_280:\n        /* \"#utility.yul\":8038:8177   */\n      swap1\n      pop\n        /* \"#utility.yul\":7765:8184   */\n      swap2\n      swap1\n      pop\n      jump\t// out\n        /* \"#utility.yul\":8190:8338   */\n    tag_185:\n        /* \"#utility.yul\":8292:8303   */\n      0x00\n        /* \"#utility.yul\":8329:8332   */\n      dup2\n        /* \"#utility.yul\":8314:8332   */\n      swap1\n      pop\n        /* \"#utility.yul\":8190:8338   */\n      swap3\n      swap2\n      pop\n      pop\n      jump\t// out\n        /* \"#utility.yul\":8344:8517   */\n    tag_186:\n        /* \"#utility.yul\":8484:8509   */\n      0x416363657373436f6e74726f6c3a206163636f756e7420000000000000000000\n        /* \"#utility.yul\":8480:8481   */\n      0x00\n        /* \"#utility.yul\":8472:8478   */\n      dup3\n        /* \"#utility.yul\":8468:8482   */\n      add\n        /* \"#utility.yul\":8461:8510   */\n      mstore\n        /* \"#utility.yul\":8344:8517   */\n      pop\n      jump\t// out\n        /* \"#utility.yul\":8523:8925   */\n    tag_187:\n        /* \"#utility.yul\":8683:8686   */\n      0x00\n        /* \"#utility.yul\":8704:8789   */\n      tag_284\n        /* \"#utility.yul\":8786:8788   */\n      0x17\n        /* \"#utility.yul\":8781:8784   */\n      dup4\n        /* \"#utility.yul\":8704:8789   */\n      tag_185\n      jump\t// in\n    tag_284:\n        /* \"#utility.yul\":8697:8789   */\n      swap2\n      pop\n        /* \"#utility.yul\":8798:8891   */\n      tag_285\n        /* \"#utility.yul\":8887:8890   */\n      dup3\n        /* \"#utility.yul\":8798:8891   */\n      tag_186\n      jump\t// in\n    tag_285:\n        /* \"#utility.yul\":8916:8918   */\n      0x17\n        /* \"#utility.yul\":8911:8914   */\n      dup3\n        /* \"#utility.yul\":8907:8919   */\n      add\n        /* \"#utility.yul\":8900:8919   */\n      swap1\n      pop\n        /* \"#utility.yul\":8523:8925   */\n      swap2\n      swap1\n      pop\n      jump\t// out\n        /* \"#utility.yul\":8931:9030   */\n    tag_188:\n        /* \"#utility.yul\":8983:8989   */\n      0x00\n        /* \"#utility.yul\":9017:9022   */\n      dup2\n        /* \"#utility.yul\":9011:9023   */\n      mload\n        /* \"#utility.yul\":9001:9023   */\n      swap1\n      pop\n        /* \"#utility.yul\":8931:9030   */\n      swap2\n      swap1\n      pop\n      jump\t// out\n        /* \"#utility.yul\":9036:9282   */\n    tag_189:\n        /* \"#utility.yul\":9117:9118   */\n      0x00\n        /* \"#utility.yul\":9127:9240   */\n    tag_288:\n        /* \"#utility.yul\":9141:9147   */\n      dup4\n        /* \"#utility.yul\":9138:9139   */\n      dup2\n        /* \"#utility.yul\":9135:9148   */\n      lt\n        /* \"#utility.yul\":9127:9240   */\n      iszero\n      tag_290\n      jumpi\n        /* \"#utility.yul\":9226:9227   */\n      dup1\n        /* \"#utility.yul\":9221:9224   */\n      dup3\n        /* \"#utility.yul\":9217:9228   */\n      add\n        /* \"#utility.yul\":9211:9229   */\n      mload\n        /* \"#utility.yul\":9207:9208   */\n      dup2\n        /* \"#utility.yul\":9202:9205   */\n      dup5\n        /* \"#utility.yul\":9198:9209   */\n      add\n        /* \"#utility.yul\":9191:9230   */\n      mstore\n        /* \"#utility.yul\":9163:9165   */\n      0x20\n        /* \"#utility.yul\":9160:9161   */\n      dup2\n        /* \"#utility.yul\":9156:9166   */\n      add\n        /* \"#utility.yul\":9151:9166   */\n      swap1\n      pop\n        /* \"#utility.yul\":9127:9240   */\n      jump(tag_288)\n    tag_290:\n        /* \"#utility.yul\":9274:9275   */\n      0x00\n        /* \"#utility.yul\":9265:9271   */\n      dup5\n        /* \"#utility.yul\":9260:9263   */\n      dup5\n        /* \"#utility.yul\":9256:9272   */\n      add\n        /* \"#utility.yul\":9249:9276   */\n      mstore\n        /* \"#utility.yul\":9098:9282   */\n      pop\n        /* \"#utility.yul\":9036:9282   */\n      pop\n      pop\n      pop\n      jump\t// out\n        /* \"#utility.yul\":9288:9678   */\n    tag_190:\n        /* \"#utility.yul\":9394:9397   */\n      0x00\n        /* \"#utility.yul\":9422:9461   */\n      tag_292\n        /* \"#utility.yul\":9455:9460   */\n      dup3\n        /* \"#utility.yul\":9422:9461   */\n      tag_188\n      jump\t// in\n    tag_292:\n        /* \"#utility.yul\":9477:9566   */\n      tag_293\n        /* \"#utility.yul\":9559:9565   */\n      dup2\n        /* \"#utility.yul\":9554:9557   */\n      dup6\n        /* \"#utility.yul\":9477:9566   */\n      tag_185\n      jump\t// in\n    tag_293:\n        /* \"#utility.yul\":9470:9566   */\n      swap4\n      pop\n        /* \"#utility.yul\":9575:9640   */\n      tag_294\n        /* \"#utility.yul\":9633:9639   */\n      dup2\n        /* \"#utility.yul\":9628:9631   */\n      dup6\n        /* \"#utility.yul\":9621:9625   */\n      0x20\n        /* \"#utility.yul\":9614:9619   */\n      dup7\n        /* \"#utility.yul\":9610:9626   */\n      add\n        /* \"#utility.yul\":9575:9640   */\n      tag_189\n      jump\t// in\n    tag_294:\n        /* \"#utility.yul\":9665:9671   */\n      dup1\n        /* \"#utility.yul\":9660:9663   */\n      dup5\n        /* \"#utility.yul\":9656:9672   */\n      add\n        /* \"#utility.yul\":9649:9672   */\n      swap2\n      pop\n        /* \"#utility.yul\":9398:9678   */\n      pop\n        /* \"#utility.yul\":9288:9678   */\n      swap3\n      swap2\n      pop\n      pop\n      jump\t// out\n        /* \"#utility.yul\":9684:9851   */\n    tag_191:\n        /* \"#utility.yul\":9824:9843   */\n      0x206973206d697373696e6720726f6c6520000000000000000000000000000000\n        /* \"#utility.yul\":9820:9821   */\n      0x00\n        /* \"#utility.yul\":9812:9818   */\n      dup3\n        /* \"#utility.yul\":9808:9822   */\n      add\n        /* \"#utility.yul\":9801:9844   */\n      mstore\n        /* \"#utility.yul\":9684:9851   */\n      pop\n      jump\t// out\n        /* \"#utility.yul\":9857:10259   */\n    tag_192:\n        /* \"#utility.yul\":10017:10020   */\n      0x00\n        /* \"#utility.yul\":10038:10123   */\n      tag_297\n        /* \"#utility.yul\":10120:10122   */\n      0x11\n        /* \"#utility.yul\":10115:10118   */\n      dup4\n        /* \"#utility.yul\":10038:10123   */\n      tag_185\n      jump\t// in\n    tag_297:\n        /* \"#utility.yul\":10031:10123   */\n      swap2\n      pop\n        /* \"#utility.yul\":10132:10225   */\n      tag_298\n        /* \"#utility.yul\":10221:10224   */\n      dup3\n        /* \"#utility.yul\":10132:10225   */\n      tag_191\n      jump\t// in\n    tag_298:\n        /* \"#utility.yul\":10250:10252   */\n      0x11\n        /* \"#utility.yul\":10245:10248   */\n      dup3\n        /* \"#utility.yul\":10241:10253   */\n      add\n        /* \"#utility.yul\":10234:10253   */\n      swap1\n      pop\n        /* \"#utility.yul\":9857:10259   */\n      swap2\n      swap1\n      pop\n      jump\t// out\n        /* \"#utility.yul\":10265:11232   */\n    tag_125:\n        /* \"#utility.yul\":10647:10650   */\n      0x00\n        /* \"#utility.yul\":10669:10817   */\n      tag_300\n        /* \"#utility.yul\":10813:10816   */\n      dup3\n        /* \"#utility.yul\":10669:10817   */\n      tag_187\n      jump\t// in\n    tag_300:\n        /* \"#utility.yul\":10662:10817   */\n      swap2\n      pop\n        /* \"#utility.yul\":10834:10929   */\n      tag_301\n        /* \"#utility.yul\":10925:10928   */\n      dup3\n        /* \"#utility.yul\":10916:10922   */\n      dup6\n        /* \"#utility.yul\":10834:10929   */\n      tag_190\n      jump\t// in\n    tag_301:\n        /* \"#utility.yul\":10827:10929   */\n      swap2\n      pop\n        /* \"#utility.yul\":10946:11094   */\n      tag_302\n        /* \"#utility.yul\":11090:11093   */\n      dup3\n        /* \"#utility.yul\":10946:11094   */\n      tag_192\n      jump\t// in\n    tag_302:\n        /* \"#utility.yul\":10939:11094   */\n      swap2\n      pop\n        /* \"#utility.yul\":11111:11206   */\n      tag_303\n        /* \"#utility.yul\":11202:11205   */\n      dup3\n        /* \"#utility.yul\":11193:11199   */\n      dup5\n        /* \"#utility.yul\":11111:11206   */\n      tag_190\n      jump\t// in\n    tag_303:\n        /* \"#utility.yul\":11104:11206   */\n      swap2\n      pop\n        /* \"#utility.yul\":11223:11226   */\n      dup2\n        /* \"#utility.yul\":11216:11226   */\n      swap1\n      pop\n        /* \"#utility.yul\":10265:11232   */\n      swap4\n      swap3\n      pop\n      pop\n      pop\n      jump\t// out\n        /* \"#utility.yul\":11238:11340   */\n    tag_193:\n        /* \"#utility.yul\":11279:11285   */\n      0x00\n        /* \"#utility.yul\":11330:11332   */\n      0x1f\n        /* \"#utility.yul\":11326:11333   */\n      not\n        /* \"#utility.yul\":11321:11323   */\n      0x1f\n        /* \"#utility.yul\":11314:11319   */\n      dup4\n        /* \"#utility.yul\":11310:11324   */\n      add\n        /* \"#utility.yul\":11306:11334   */\n      and\n        /* \"#utility.yul\":11296:11334   */\n      swap1\n      pop\n        /* \"#utility.yul\":11238:11340   */\n      swap2\n      swap1\n      pop\n      jump\t// out\n        /* \"#utility.yul\":11346:11723   */\n    tag_194:\n        /* \"#utility.yul\":11434:11437   */\n      0x00\n        /* \"#utility.yul\":11462:11501   */\n      tag_306\n        /* \"#utility.yul\":11495:11500   */\n      dup3\n        /* \"#utility.yul\":11462:11501   */\n      tag_188\n      jump\t// in\n    tag_306:\n        /* \"#utility.yul\":11517:11588   */\n      tag_307\n        /* \"#utility.yul\":11581:11587   */\n      dup2\n        /* \"#utility.yul\":11576:11579   */\n      dup6\n        /* \"#utility.yul\":11517:11588   */\n      tag_178\n      jump\t// in\n    tag_307:\n        /* \"#utility.yul\":11510:11588   */\n      swap4\n      pop\n        /* \"#utility.yul\":11597:11662   */\n      tag_308\n        /* \"#utility.yul\":11655:11661   */\n      dup2\n        /* \"#utility.yul\":11650:11653   */\n      dup6\n        /* \"#utility.yul\":11643:11647   */\n      0x20\n        /* \"#utility.yul\":11636:11641   */\n      dup7\n        /* \"#utility.yul\":11632:11648   */\n      add\n        /* \"#utility.yul\":11597:11662   */\n      tag_189\n      jump\t// in\n    tag_308:\n        /* \"#utility.yul\":11687:11716   */\n      tag_309\n        /* \"#utility.yul\":11709:11715   */\n      dup2\n        /* \"#utility.yul\":11687:11716   */\n      tag_193\n      jump\t// in\n    tag_309:\n        /* \"#utility.yul\":11682:11685   */\n      dup5\n        /* \"#utility.yul\":11678:11717   */\n      add\n        /* \"#utility.yul\":11671:11717   */\n      swap2\n      pop\n        /* \"#utility.yul\":11438:11723   */\n      pop\n        /* \"#utility.yul\":11346:11723   */\n      swap3\n      swap2\n      pop\n      pop\n      jump\t// out\n        /* \"#utility.yul\":11729:12042   */\n    tag_127:\n        /* \"#utility.yul\":11842:11846   */\n      0x00\n        /* \"#utility.yul\":11880:11882   */\n      0x20\n        /* \"#utility.yul\":11869:11878   */\n      dup3\n        /* \"#utility.yul\":11865:11883   */\n      add\n        /* \"#utility.yul\":11857:11883   */\n      swap1\n      pop\n        /* \"#utility.yul\":11929:11938   */\n      dup2\n        /* \"#utility.yul\":11923:11927   */\n      dup2\n        /* \"#utility.yul\":11919:11939   */\n      sub\n        /* \"#utility.yul\":11915:11916   */\n      0x00\n        /* \"#utility.yul\":11904:11913   */\n      dup4\n        /* \"#utility.yul\":11900:11917   */\n      add\n        /* \"#utility.yul\":11893:11940   */\n      mstore\n        /* \"#utility.yul\":11957:12035   */\n      tag_311\n        /* \"#utility.yul\":12030:12034   */\n      dup2\n        /* \"#utility.yul\":12021:12027   */\n      dup5\n        /* \"#utility.yul\":11957:12035   */\n      tag_194\n      jump\t// in\n    tag_311:\n        /* \"#utility.yul\":11949:12035   */\n      swap1\n      pop\n        /* \"#utility.yul\":11729:12042   */\n      swap3\n      swap2\n      pop\n      pop\n      jump\t// out\n        /* \"#utility.yul\":12048:12228   */\n    tag_195:\n        /* \"#utility.yul\":12096:12173   */\n      0x4e487b7100000000000000000000000000000000000000000000000000000000\n        /* \"#utility.yul\":12093:12094   */\n      0x00\n        /* \"#utility.yul\":12086:12174   */\n      mstore\n        /* \"#utility.yul\":12193:12197   */\n      0x11\n        /* \"#utility.yul\":12190:12191   */\n      0x04\n        /* \"#utility.yul\":12183:12198   */\n      mstore\n        /* \"#utility.yul\":12217:12221   */\n      0x24\n        /* \"#utility.yul\":12214:12215   */\n      0x00\n        /* \"#utility.yul\":12207:12222   */\n      revert\n        /* \"#utility.yul\":12234:12644   */\n    tag_132:\n        /* \"#utility.yul\":12274:12281   */\n      0x00\n        /* \"#utility.yul\":12297:12317   */\n      tag_314\n        /* \"#utility.yul\":12315:12316   */\n      dup3\n        /* \"#utility.yul\":12297:12317   */\n      tag_170\n      jump\t// in\n    tag_314:\n        /* \"#utility.yul\":12292:12317   */\n      swap2\n      pop\n        /* \"#utility.yul\":12331:12351   */\n      tag_315\n        /* \"#utility.yul\":12349:12350   */\n      dup4\n        /* \"#utility.yul\":12331:12351   */\n      tag_170\n      jump\t// in\n    tag_315:\n        /* \"#utility.yul\":12326:12351   */\n      swap3\n      pop\n        /* \"#utility.yul\":12386:12387   */\n      dup3\n        /* \"#utility.yul\":12383:12384   */\n      dup3\n        /* \"#utility.yul\":12379:12388   */\n      mul\n        /* \"#utility.yul\":12408:12438   */\n      tag_316\n        /* \"#utility.yul\":12426:12437   */\n      dup2\n        /* \"#utility.yul\":12408:12438   */\n      tag_170\n      jump\t// in\n    tag_316:\n        /* \"#utility.yul\":12397:12438   */\n      swap2\n      pop\n        /* \"#utility.yul\":12587:12588   */\n      dup3\n        /* \"#utility.yul\":12578:12585   */\n      dup3\n        /* \"#utility.yul\":12574:12589   */\n      div\n        /* \"#utility.yul\":12571:12572   */\n      dup5\n        /* \"#utility.yul\":12568:12590   */\n      eq\n        /* \"#utility.yul\":12548:12549   */\n      dup4\n        /* \"#utility.yul\":12541:12550   */\n      iszero\n        /* \"#utility.yul\":12521:12604   */\n      or\n        /* \"#utility.yul\":12498:12637   */\n      tag_317\n      jumpi\n        /* \"#utility.yul\":12617:12635   */\n      tag_318\n      tag_195\n      jump\t// in\n    tag_318:\n        /* \"#utility.yul\":12498:12637   */\n    tag_317:\n        /* \"#utility.yul\":12282:12644   */\n      pop\n        /* \"#utility.yul\":12234:12644   */\n      swap3\n      swap2\n      pop\n      pop\n      jump\t// out\n        /* \"#utility.yul\":12650:12841   */\n    tag_134:\n        /* \"#utility.yul\":12690:12693   */\n      0x00\n        /* \"#utility.yul\":12709:12729   */\n      tag_320\n        /* \"#utility.yul\":12727:12728   */\n      dup3\n        /* \"#utility.yul\":12709:12729   */\n      tag_170\n      jump\t// in\n    tag_320:\n        /* \"#utility.yul\":12704:12729   */\n      swap2\n      pop\n        /* \"#utility.yul\":12743:12763   */\n      tag_321\n        /* \"#utility.yul\":12761:12762   */\n      dup4\n        /* \"#utility.yul\":12743:12763   */\n      tag_170\n      jump\t// in\n    tag_321:\n        /* \"#utility.yul\":12738:12763   */\n      swap3\n      pop\n        /* \"#utility.yul\":12786:12787   */\n      dup3\n        /* \"#utility.yul\":12783:12784   */\n      dup3\n        /* \"#utility.yul\":12779:12788   */\n      add\n        /* \"#utility.yul\":12772:12788   */\n      swap1\n      pop\n        /* \"#utility.yul\":12807:12810   */\n      dup1\n        /* \"#utility.yul\":12804:12805   */\n      dup3\n        /* \"#utility.yul\":12801:12811   */\n      gt\n        /* \"#utility.yul\":12798:12834   */\n      iszero\n      tag_322\n      jumpi\n        /* \"#utility.yul\":12814:12832   */\n      tag_323\n      tag_195\n      jump\t// in\n    tag_323:\n        /* \"#utility.yul\":12798:12834   */\n    tag_322:\n        /* \"#utility.yul\":12650:12841   */\n      swap3\n      swap2\n      pop\n      pop\n      jump\t// out\n        /* \"#utility.yul\":12847:13027   */\n    tag_137:\n        /* \"#utility.yul\":12895:12972   */\n      0x4e487b7100000000000000000000000000000000000000000000000000000000\n        /* \"#utility.yul\":12892:12893   */\n      0x00\n        /* \"#utility.yul\":12885:12973   */\n      mstore\n        /* \"#utility.yul\":12992:12996   */\n      0x41\n        /* \"#utility.yul\":12989:12990   */\n      0x04\n        /* \"#utility.yul\":12982:12997   */\n      mstore\n        /* \"#utility.yul\":13016:13020   */\n      0x24\n        /* \"#utility.yul\":13013:13014   */\n      0x00\n        /* \"#utility.yul\":13006:13021   */\n      revert\n        /* \"#utility.yul\":13033:13213   */\n    tag_141:\n        /* \"#utility.yul\":13081:13158   */\n      0x4e487b7100000000000000000000000000000000000000000000000000000000\n        /* \"#utility.yul\":13078:13079   */\n      0x00\n        /* \"#utility.yul\":13071:13159   */\n      mstore\n        /* \"#utility.yul\":13178:13182   */\n      0x32\n        /* \"#utility.yul\":13175:13176   */\n      0x04\n        /* \"#utility.yul\":13168:13183   */\n      mstore\n        /* \"#utility.yul\":13202:13206   */\n      0x24\n        /* \"#utility.yul\":13199:13200   */\n      0x00\n        /* \"#utility.yul\":13192:13207   */\n      revert\n        /* \"#utility.yul\":13219:13390   */\n    tag_154:\n        /* \"#utility.yul\":13258:13261   */\n      0x00\n        /* \"#utility.yul\":13281:13305   */\n      tag_327\n        /* \"#utility.yul\":13299:13304   */\n      dup3\n        /* \"#utility.yul\":13281:13305   */\n      tag_170\n      jump\t// in\n    tag_327:\n        /* \"#utility.yul\":13272:13305   */\n      swap2\n      pop\n        /* \"#utility.yul\":13327:13331   */\n      0x00\n        /* \"#utility.yul\":13320:13325   */\n      dup3\n        /* \"#utility.yul\":13317:13332   */\n      sub\n        /* \"#utility.yul\":13314:13355   */\n      tag_328\n      jumpi\n        /* \"#utility.yul\":13335:13353   */\n      tag_329\n      tag_195\n      jump\t// in\n    tag_329:\n        /* \"#utility.yul\":13314:13355   */\n    tag_328:\n        /* \"#utility.yul\":13382:13383   */\n      0x01\n        /* \"#utility.yul\":13375:13380   */\n      dup3\n        /* \"#utility.yul\":13371:13384   */\n      sub\n        /* \"#utility.yul\":13364:13384   */\n      swap1\n      pop\n        /* \"#utility.yul\":13219:13390   */\n      swap2\n      swap1\n      pop\n      jump\t// out\n        /* \"#utility.yul\":13396:13578   */\n    tag_196:\n        /* \"#utility.yul\":13536:13570   */\n      0x537472696e67733a20686578206c656e67746820696e73756666696369656e74\n        /* \"#utility.yul\":13532:13533   */\n      0x00\n        /* \"#utility.yul\":13524:13530   */\n      dup3\n        /* \"#utility.yul\":13520:13534   */\n      add\n        /* \"#utility.yul\":13513:13571   */\n      mstore\n        /* \"#utility.yul\":13396:13578   */\n      pop\n      jump\t// out\n        /* \"#utility.yul\":13584:13950   */\n    tag_197:\n        /* \"#utility.yul\":13726:13729   */\n      0x00\n        /* \"#utility.yul\":13747:13814   */\n      tag_332\n        /* \"#utility.yul\":13811:13813   */\n      0x20\n        /* \"#utility.yul\":13806:13809   */\n      dup4\n        /* \"#utility.yul\":13747:13814   */\n      tag_178\n      jump\t// in\n    tag_332:\n        /* \"#utility.yul\":13740:13814   */\n      swap2\n      pop\n        /* \"#utility.yul\":13823:13916   */\n      tag_333\n        /* \"#utility.yul\":13912:13915   */\n      dup3\n        /* \"#utility.yul\":13823:13916   */\n      tag_196\n      jump\t// in\n    tag_333:\n        /* \"#utility.yul\":13941:13943   */\n      0x20\n        /* \"#utility.yul\":13936:13939   */\n      dup3\n        /* \"#utility.yul\":13932:13944   */\n      add\n        /* \"#utility.yul\":13925:13944   */\n      swap1\n      pop\n        /* \"#utility.yul\":13584:13950   */\n      swap2\n      swap1\n      pop\n      jump\t// out\n        /* \"#utility.yul\":13956:14375   */\n    tag_157:\n        /* \"#utility.yul\":14122:14126   */\n      0x00\n        /* \"#utility.yul\":14160:14162   */\n      0x20\n        /* \"#utility.yul\":14149:14158   */\n      dup3\n        /* \"#utility.yul\":14145:14163   */\n      add\n        /* \"#utility.yul\":14137:14163   */\n      swap1\n      pop\n        /* \"#utility.yul\":14209:14218   */\n      dup2\n        /* \"#utility.yul\":14203:14207   */\n      dup2\n        /* \"#utility.yul\":14199:14219   */\n      sub\n        /* \"#utility.yul\":14195:14196   */\n      0x00\n        /* \"#utility.yul\":14184:14193   */\n      dup4\n        /* \"#utility.yul\":14180:14197   */\n      add\n        /* \"#utility.yul\":14173:14220   */\n      mstore\n        /* \"#utility.yul\":14237:14368   */\n      tag_335\n        /* \"#utility.yul\":14363:14367   */\n      dup2\n        /* \"#utility.yul\":14237:14368   */\n      tag_197\n      jump\t// in\n    tag_335:\n        /* \"#utility.yul\":14229:14368   */\n      swap1\n      pop\n        /* \"#utility.yul\":13956:14375   */\n      swap2\n      swap1\n      pop\n      jump\t// out\n\n    auxdata: 0xa26469706673582212205bca241d57c6b1288574098b80901e0f69a7e0ee04b727499094d4b5be8e37c464736f6c63430008120033\n}\n",
				"bytecode": {
					"linkReferences": {},
					"object": "608060405234801561001057600080fd5b506100417fa49807205ce4d355092ef5a8a18f56e8913cf4a201fbe287825b095693c217753361004660201b60201c565b6101a4565b610056828261013260201b60201c565b61012e57600160008084815260200190815260200160002060000160008373ffffffffffffffffffffffffffffffffffffffff1673ffffffffffffffffffffffffffffffffffffffff16815260200190815260200160002060006101000a81548160ff0219169083151502179055506100d361019c60201b60201c565b73ffffffffffffffffffffffffffffffffffffffff168173ffffffffffffffffffffffffffffffffffffffff16837f2f8788117e7eff1d82e926ec794901d17c78024a50270940304540a733656f0d60405160405180910390a45b5050565b600080600084815260200190815260200160002060000160008373ffffffffffffffffffffffffffffffffffffffff1673ffffffffffffffffffffffffffffffffffffffff16815260200190815260200160002060009054906101000a900460ff16905092915050565b600033905090565b611295806101b36000396000f3fe608060405234801561001057600080fd5b50600436106100b45760003560e01c806375b238fc1161007157806375b238fc1461018b5780638338c88b146101a957806391d14854146101c55780639beaab7b146101f5578063a217fddf14610213578063d547741f14610231576100b4565b806301ffc9a7146100b9578063248a9ca3146100e95780632e64cec1146101195780632f2ff15d1461013757806336568abe146101535780636057361d1461016f575b600080fd5b6100d360048036038101906100ce9190610b09565b61024d565b6040516100e09190610b51565b60405180910390f35b61010360048036038101906100fe9190610ba2565b6102c7565b6040516101109190610bde565b60405180910390f35b6101216102e6565b60405161012e9190610c12565b60405180910390f35b610151600480360381019061014c9190610c8b565b6102f0565b005b61016d60048036038101906101689190610c8b565b610311565b005b61018960048036038101906101849190610cf7565b610394565b005b610193610407565b6040516101a09190610bde565b60405180910390f35b6101c360048036038101906101be9190610d24565b61042b565b005b6101df60048036038101906101da9190610c8b565b6104c1565b6040516101ec9190610b51565b60405180910390f35b6101fd61052b565b60405161020a9190610bde565b60405180910390f35b61021b61054f565b6040516102289190610bde565b60405180910390f35b61024b60048036038101906102469190610c8b565b610556565b005b60007f7965db0b000000000000000000000000000000000000000000000000000000007bffffffffffffffffffffffffffffffffffffffffffffffffffffffff1916827bffffffffffffffffffffffffffffffffffffffffffffffffffffffff191614806102c057506102bf82610577565b5b9050919050565b6000806000838152602001908152602001600020600101549050919050565b6000600154905090565b6102f9826102c7565b610302816105e1565b61030c83836105f5565b505050565b6103196106d5565b73ffffffffffffffffffffffffffffffffffffffff168173ffffffffffffffffffffffffffffffffffffffff1614610386576040517f08c379a000000000000000000000000000000000000000000000000000000000815260040161037d90610dd4565b60405180910390fd5b61039082826106dd565b5050565b6103be7f2b8f168f361ac1393a163ed4adfa899a87be7b7c71645167bdaddd822ae453c8336104c1565b6103fd576040517f08c379a00000000000000000000000000000000000000000000000000000000081526004016103f490610e66565b60405180910390fd5b8060018190555050565b7fa49807205ce4d355092ef5a8a18f56e8913cf4a201fbe287825b095693c2177581565b6104557fa49807205ce4d355092ef5a8a18f56e8913cf4a201fbe287825b095693c21775336104c1565b610494576040517f08c379a000000000000000000000000000000000000000000000000000000000815260040161048b90610ef8565b60405180910390fd5b6104be7f2b8f168f361ac1393a163ed4adfa899a87be7b7c71645167bdaddd822ae453c8826105f5565b50565b600080600084815260200190815260200160002060000160008373ffffffffffffffffffffffffffffffffffffffff1673ffffffffffffffffffffffffffffffffffffffff16815260200190815260200160002060009054906101000a900460ff16905092915050565b7f2b8f168f361ac1393a163ed4adfa899a87be7b7c71645167bdaddd822ae453c881565b6000801b81565b61055f826102c7565b610568816105e1565b61057283836106dd565b505050565b60007f01ffc9a7000000000000000000000000000000000000000000000000000000007bffffffffffffffffffffffffffffffffffffffffffffffffffffffff1916827bffffffffffffffffffffffffffffffffffffffffffffffffffffffff1916149050919050565b6105f2816105ed6106d5565b6107be565b50565b6105ff82826104c1565b6106d157600160008084815260200190815260200160002060000160008373ffffffffffffffffffffffffffffffffffffffff1673ffffffffffffffffffffffffffffffffffffffff16815260200190815260200160002060006101000a81548160ff0219169083151502179055506106766106d5565b73ffffffffffffffffffffffffffffffffffffffff168173ffffffffffffffffffffffffffffffffffffffff16837f2f8788117e7eff1d82e926ec794901d17c78024a50270940304540a733656f0d60405160405180910390a45b5050565b600033905090565b6106e782826104c1565b156107ba57600080600084815260200190815260200160002060000160008373ffffffffffffffffffffffffffffffffffffffff1673ffffffffffffffffffffffffffffffffffffffff16815260200190815260200160002060006101000a81548160ff02191690831515021790555061075f6106d5565b73ffffffffffffffffffffffffffffffffffffffff168173ffffffffffffffffffffffffffffffffffffffff16837ff6391f5c32d9c69d2a47ea670b442974b53935d1edc7fd64eb21e047a839171b60405160405180910390a45b5050565b6107c882826104c1565b61083f576107d581610843565b6107e38360001c6020610870565b6040516020016107f4929190611021565b6040516020818303038152906040526040517f08c379a000000000000000000000000000000000000000000000000000000000815260040161083691906110a5565b60405180910390fd5b5050565b60606108698273ffffffffffffffffffffffffffffffffffffffff16601460ff16610870565b9050919050565b60606000600283600261088391906110f6565b61088d9190611138565b67ffffffffffffffff8111156108a6576108a561116c565b5b6040519080825280601f01601f1916602001820160405280156108d85781602001600182028036833780820191505090505b5090507f3000000000000000000000000000000000000000000000000000000000000000816000815181106109105761090f61119b565b5b60200101907effffffffffffffffffffffffffffffffffffffffffffffffffffffffffffff1916908160001a9053507f7800000000000000000000000000000000000000000000000000000000000000816001815181106109745761097361119b565b5b60200101907effffffffffffffffffffffffffffffffffffffffffffffffffffffffffffff1916908160001a905350600060018460026109b491906110f6565b6109be9190611138565b90505b6001811115610a5e577f3031323334353637383961626364656600000000000000000000000000000000600f861660108110610a00576109ff61119b565b5b1a60f81b828281518110610a1757610a1661119b565b5b60200101907effffffffffffffffffffffffffffffffffffffffffffffffffffffffffffff1916908160001a905350600485901c945080610a57906111ca565b90506109c1565b5060008414610aa2576040517f08c379a0000000000000000000000000000000000000000000000000000000008152600401610a999061123f565b60405180910390fd5b8091505092915050565b600080fd5b60007fffffffff0000000000000000000000000000000000000000000000000000000082169050919050565b610ae681610ab1565b8114610af157600080fd5b50565b600081359050610b0381610add565b92915050565b600060208284031215610b1f57610b1e610aac565b5b6000610b2d84828501610af4565b91505092915050565b60008115159050919050565b610b4b81610b36565b82525050565b6000602082019050610b666000830184610b42565b92915050565b6000819050919050565b610b7f81610b6c565b8114610b8a57600080fd5b50565b600081359050610b9c81610b76565b92915050565b600060208284031215610bb857610bb7610aac565b5b6000610bc684828501610b8d565b91505092915050565b610bd881610b6c565b82525050565b6000602082019050610bf36000830184610bcf565b92915050565b6000819050919050565b610c0c81610bf9565b82525050565b6000602082019050610c276000830184610c03565b92915050565b600073ffffffffffffffffffffffffffffffffffffffff82169050919050565b6000610c5882610c2d565b9050919050565b610c6881610c4d565b8114610c7357600080fd5b50565b600081359050610c8581610c5f565b92915050565b60008060408385031215610ca257610ca1610aac565b5b6000610cb085828601610b8d565b9250506020610cc185828601610c76565b9150509250929050565b610cd481610bf9565b8114610cdf57600080fd5b50565b600081359050610cf181610ccb565b92915050565b600060208284031215610d0d57610d0c610aac565b5b6000610d1b84828501610ce2565b91505092915050565b600060208284031215610d3a57610d39610aac565b5b6000610d4884828501610c76565b91505092915050565b600082825260208201905092915050565b7f416363657373436f6e74726f6c3a2063616e206f6e6c792072656e6f756e636560008201527f20726f6c657320666f722073656c660000000000000000000000000000000000602082015250565b6000610dbe602f83610d51565b9150610dc982610d62565b604082019050919050565b60006020820190508181036000830152610ded81610db1565b9050919050565b7f4a757374207468652055534552532063616e2075736520746869732066756e6360008201527f74696f6e00000000000000000000000000000000000000000000000000000000602082015250565b6000610e50602483610d51565b9150610e5b82610df4565b604082019050919050565b60006020820190508181036000830152610e7f81610e43565b9050919050565b7f4a757374207468652041646d696e2063616e2075736520746869732066756e6360008201527f74696f6e00000000000000000000000000000000000000000000000000000000602082015250565b6000610ee2602483610d51565b9150610eed82610e86565b604082019050919050565b60006020820190508181036000830152610f1181610ed5565b9050919050565b600081905092915050565b7f416363657373436f6e74726f6c3a206163636f756e7420000000000000000000600082015250565b6000610f59601783610f18565b9150610f6482610f23565b601782019050919050565b600081519050919050565b60005b83811015610f98578082015181840152602081019050610f7d565b60008484015250505050565b6000610faf82610f6f565b610fb98185610f18565b9350610fc9818560208601610f7a565b80840191505092915050565b7f206973206d697373696e6720726f6c6520000000000000000000000000000000600082015250565b600061100b601183610f18565b915061101682610fd5565b601182019050919050565b600061102c82610f4c565b91506110388285610fa4565b915061104382610ffe565b915061104f8284610fa4565b91508190509392505050565b6000601f19601f8301169050919050565b600061107782610f6f565b6110818185610d51565b9350611091818560208601610f7a565b61109a8161105b565b840191505092915050565b600060208201905081810360008301526110bf818461106c565b905092915050565b7f4e487b7100000000000000000000000000000000000000000000000000000000600052601160045260246000fd5b600061110182610bf9565b915061110c83610bf9565b925082820261111a81610bf9565b91508282048414831517611131576111306110c7565b5b5092915050565b600061114382610bf9565b915061114e83610bf9565b9250828201905080821115611166576111656110c7565b5b92915050565b7f4e487b7100000000000000000000000000000000000000000000000000000000600052604160045260246000fd5b7f4e487b7100000000000000000000000000000000000000000000000000000000600052603260045260246000fd5b60006111d582610bf9565b9150600082036111e8576111e76110c7565b5b600182039050919050565b7f537472696e67733a20686578206c656e67746820696e73756666696369656e74600082015250565b6000611229602083610d51565b9150611234826111f3565b602082019050919050565b600060208201905081810360008301526112588161121c565b905091905056fea26469706673582212205bca241d57c6b1288574098b80901e0f69a7e0ee04b727499094d4b5be8e37c464736f6c63430008120033",
					"opcodes": "PUSH1 0x80 PUSH1 0x40 MSTORE CALLVALUE DUP1 ISZERO PUSH2 0x10 JUMPI PUSH1 0x0 DUP1 REVERT JUMPDEST POP PUSH2 0x41 PUSH32 0xA49807205CE4D355092EF5A8A18F56E8913CF4A201FBE287825B095693C21775 CALLER PUSH2 0x46 PUSH1 0x20 SHL PUSH1 0x20 SHR JUMP JUMPDEST PUSH2 0x1A4 JUMP JUMPDEST PUSH2 0x56 DUP3 DUP3 PUSH2 0x132 PUSH1 0x20 SHL PUSH1 0x20 SHR JUMP JUMPDEST PUSH2 0x12E JUMPI PUSH1 0x1 PUSH1 0x0 DUP1 DUP5 DUP2 MSTORE PUSH1 0x20 ADD SWAP1 DUP2 MSTORE PUSH1 0x20 ADD PUSH1 0x0 KECCAK256 PUSH1 0x0 ADD PUSH1 0x0 DUP4 PUSH20 0xFFFFFFFFFFFFFFFFFFFFFFFFFFFFFFFFFFFFFFFF AND PUSH20 0xFFFFFFFFFFFFFFFFFFFFFFFFFFFFFFFFFFFFFFFF AND DUP2 MSTORE PUSH1 0x20 ADD SWAP1 DUP2 MSTORE PUSH1 0x20 ADD PUSH1 0x0 KECCAK256 PUSH1 0x0 PUSH2 0x100 EXP DUP2 SLOAD DUP2 PUSH1 0xFF MUL NOT AND SWAP1 DUP4 ISZERO ISZERO MUL OR SWAP1 SSTORE POP PUSH2 0xD3 PUSH2 0x19C PUSH1 0x20 SHL PUSH1 0x20 SHR JUMP JUMPDEST PUSH20 0xFFFFFFFFFFFFFFFFFFFFFFFFFFFFFFFFFFFFFFFF AND DUP2 PUSH20 0xFFFFFFFFFFFFFFFFFFFFFFFFFFFFFFFFFFFFFFFF AND DUP4 PUSH32 0x2F8788117E7EFF1D82E926EC794901D17C78024A50270940304540A733656F0D PUSH1 0x40 MLOAD PUSH1 0x40 MLOAD DUP1 SWAP2 SUB SWAP1 LOG4 JUMPDEST POP POP JUMP JUMPDEST PUSH1 0x0 DUP1 PUSH1 0x0 DUP5 DUP2 MSTORE PUSH1 0x20 ADD SWAP1 DUP2 MSTORE PUSH1 0x20 ADD PUSH1 0x0 KECCAK256 PUSH1 0x0 ADD PUSH1 0x0 DUP4 PUSH20 0xFFFFFFFFFFFFFFFFFFFFFFFFFFFFFFFFFFFFFFFF AND PUSH20 0xFFFFFFFFFFFFFFFFFFFFFFFFFFFFFFFFFFFFFFFF AND DUP2 MSTORE PUSH1 0x20 ADD SWAP1 DUP2 MSTORE PUSH1 0x20 ADD PUSH1 0x0 KECCAK256 PUSH1 0x0 SWAP1 SLOAD SWAP1 PUSH2 0x100 EXP SWAP1 DIV PUSH1 0xFF AND SWAP1 POP SWAP3 SWAP2 POP POP JUMP JUMPDEST PUSH1 0x0 CALLER SWAP1 POP SWAP1 JUMP JUMPDEST PUSH2 0x1295 DUP1 PUSH2 0x1B3 PUSH1 0x0 CODECOPY PUSH1 0x0 RETURN INVALID PUSH1 0x80 PUSH1 0x40 MSTORE CALLVALUE DUP1 ISZERO PUSH2 0x10 JUMPI PUSH1 0x0 DUP1 REVERT JUMPDEST POP PUSH1 0x4 CALLDATASIZE LT PUSH2 0xB4 JUMPI PUSH1 0x0 CALLDATALOAD PUSH1 0xE0 SHR DUP1 PUSH4 0x75B238FC GT PUSH2 0x71 JUMPI DUP1 PUSH4 0x75B238FC EQ PUSH2 0x18B JUMPI DUP1 PUSH4 0x8338C88B EQ PUSH2 0x1A9 JUMPI DUP1 PUSH4 0x91D14854 EQ PUSH2 0x1C5 JUMPI DUP1 PUSH4 0x9BEAAB7B EQ PUSH2 0x1F5 JUMPI DUP1 PUSH4 0xA217FDDF EQ PUSH2 0x213 JUMPI DUP1 PUSH4 0xD547741F EQ PUSH2 0x231 JUMPI PUSH2 0xB4 JUMP JUMPDEST DUP1 PUSH4 0x1FFC9A7 EQ PUSH2 0xB9 JUMPI DUP1 PUSH4 0x248A9CA3 EQ PUSH2 0xE9 JUMPI DUP1 PUSH4 0x2E64CEC1 EQ PUSH2 0x119 JUMPI DUP1 PUSH4 0x2F2FF15D EQ PUSH2 0x137 JUMPI DUP1 PUSH4 0x36568ABE EQ PUSH2 0x153 JUMPI DUP1 PUSH4 0x6057361D EQ PUSH2 0x16F JUMPI JUMPDEST PUSH1 0x0 DUP1 REVERT JUMPDEST PUSH2 0xD3 PUSH1 0x4 DUP1 CALLDATASIZE SUB DUP2 ADD SWAP1 PUSH2 0xCE SWAP2 SWAP1 PUSH2 0xB09 JUMP JUMPDEST PUSH2 0x24D JUMP JUMPDEST PUSH1 0x40 MLOAD PUSH2 0xE0 SWAP2 SWAP1 PUSH2 0xB51 JUMP JUMPDEST PUSH1 0x40 MLOAD DUP1 SWAP2 SUB SWAP1 RETURN JUMPDEST PUSH2 0x103 PUSH1 0x4 DUP1 CALLDATASIZE SUB DUP2 ADD SWAP1 PUSH2 0xFE SWAP2 SWAP1 PUSH2 0xBA2 JUMP JUMPDEST PUSH2 0x2C7 JUMP JUMPDEST PUSH1 0x40 MLOAD PUSH2 0x110 SWAP2 SWAP1 PUSH2 0xBDE JUMP JUMPDEST PUSH1 0x40 MLOAD DUP1 SWAP2 SUB SWAP1 RETURN JUMPDEST PUSH2 0x121 PUSH2 0x2E6 JUMP JUMPDEST PUSH1 0x40 MLOAD PUSH2 0x12E SWAP2 SWAP1 PUSH2 0xC12 JUMP JUMPDEST PUSH1 0x40 MLOAD DUP1 SWAP2 SUB SWAP1 RETURN JUMPDEST PUSH2 0x151 PUSH1 0x4 DUP1 CALLDATASIZE SUB DUP2 ADD SWAP1 PUSH2 0x14C SWAP2 SWAP1 PUSH2 0xC8B JUMP JUMPDEST PUSH2 0x2F0 JUMP JUMPDEST STOP JUMPDEST PUSH2 0x16D PUSH1 0x4 DUP1 CALLDATASIZE SUB DUP2 ADD SWAP1 PUSH2 0x168 SWAP2 SWAP1 PUSH2 0xC8B JUMP JUMPDEST PUSH2 0x311 JUMP JUMPDEST STOP JUMPDEST PUSH2 0x189 PUSH1 0x4 DUP1 CALLDATASIZE SUB DUP2 ADD SWAP1 PUSH2 0x184 SWAP2 SWAP1 PUSH2 0xCF7 JUMP JUMPDEST PUSH2 0x394 JUMP JUMPDEST STOP JUMPDEST PUSH2 0x193 PUSH2 0x407 JUMP JUMPDEST PUSH1 0x40 MLOAD PUSH2 0x1A0 SWAP2 SWAP1 PUSH2 0xBDE JUMP JUMPDEST PUSH1 0x40 MLOAD DUP1 SWAP2 SUB SWAP1 RETURN JUMPDEST PUSH2 0x1C3 PUSH1 0x4 DUP1 CALLDATASIZE SUB DUP2 ADD SWAP1 PUSH2 0x1BE SWAP2 SWAP1 PUSH2 0xD24 JUMP JUMPDEST PUSH2 0x42B JUMP JUMPDEST STOP JUMPDEST PUSH2 0x1DF PUSH1 0x4 DUP1 CALLDATASIZE SUB DUP2 ADD SWAP1 PUSH2 0x1DA SWAP2 SWAP1 PUSH2 0xC8B JUMP JUMPDEST PUSH2 0x4C1 JUMP JUMPDEST PUSH1 0x40 MLOAD PUSH2 0x1EC SWAP2 SWAP1 PUSH2 0xB51 JUMP JUMPDEST PUSH1 0x40 MLOAD DUP1 SWAP2 SUB SWAP1 RETURN JUMPDEST PUSH2 0x1FD PUSH2 0x52B JUMP JUMPDEST PUSH1 0x40 MLOAD PUSH2 0x20A SWAP2 SWAP1 PUSH2 0xBDE JUMP JUMPDEST PUSH1 0x40 MLOAD DUP1 SWAP2 SUB SWAP1 RETURN JUMPDEST PUSH2 0x21B PUSH2 0x54F JUMP JUMPDEST PUSH1 0x40 MLOAD PUSH2 0x228 SWAP2 SWAP1 PUSH2 0xBDE JUMP JUMPDEST PUSH1 0x40 MLOAD DUP1 SWAP2 SUB SWAP1 RETURN JUMPDEST PUSH2 0x24B PUSH1 0x4 DUP1 CALLDATASIZE SUB DUP2 ADD SWAP1 PUSH2 0x246 SWAP2 SWAP1 PUSH2 0xC8B JUMP JUMPDEST PUSH2 0x556 JUMP JUMPDEST STOP JUMPDEST PUSH1 0x0 PUSH32 0x7965DB0B00000000000000000000000000000000000000000000000000000000 PUSH28 0xFFFFFFFFFFFFFFFFFFFFFFFFFFFFFFFFFFFFFFFFFFFFFFFFFFFFFFFF NOT AND DUP3 PUSH28 0xFFFFFFFFFFFFFFFFFFFFFFFFFFFFFFFFFFFFFFFFFFFFFFFFFFFFFFFF NOT AND EQ DUP1 PUSH2 0x2C0 JUMPI POP PUSH2 0x2BF DUP3 PUSH2 0x577 JUMP JUMPDEST JUMPDEST SWAP1 POP SWAP2 SWAP1 POP JUMP JUMPDEST PUSH1 0x0 DUP1 PUSH1 0x0 DUP4 DUP2 MSTORE PUSH1 0x20 ADD SWAP1 DUP2 MSTORE PUSH1 0x20 ADD PUSH1 0x0 KECCAK256 PUSH1 0x1 ADD SLOAD SWAP1 POP SWAP2 SWAP1 POP JUMP JUMPDEST PUSH1 0x0 PUSH1 0x1 SLOAD SWAP1 POP SWAP1 JUMP JUMPDEST PUSH2 0x2F9 DUP3 PUSH2 0x2C7 JUMP JUMPDEST PUSH2 0x302 DUP2 PUSH2 0x5E1 JUMP JUMPDEST PUSH2 0x30C DUP4 DUP4 PUSH2 0x5F5 JUMP JUMPDEST POP POP POP JUMP JUMPDEST PUSH2 0x319 PUSH2 0x6D5 JUMP JUMPDEST PUSH20 0xFFFFFFFFFFFFFFFFFFFFFFFFFFFFFFFFFFFFFFFF AND DUP2 PUSH20 0xFFFFFFFFFFFFFFFFFFFFFFFFFFFFFFFFFFFFFFFF AND EQ PUSH2 0x386 JUMPI PUSH1 0x40 MLOAD PUSH32 0x8C379A000000000000000000000000000000000000000000000000000000000 DUP2 MSTORE PUSH1 0x4 ADD PUSH2 0x37D SWAP1 PUSH2 0xDD4 JUMP JUMPDEST PUSH1 0x40 MLOAD DUP1 SWAP2 SUB SWAP1 REVERT JUMPDEST PUSH2 0x390 DUP3 DUP3 PUSH2 0x6DD JUMP JUMPDEST POP POP JUMP JUMPDEST PUSH2 0x3BE PUSH32 0x2B8F168F361AC1393A163ED4ADFA899A87BE7B7C71645167BDADDD822AE453C8 CALLER PUSH2 0x4C1 JUMP JUMPDEST PUSH2 0x3FD JUMPI PUSH1 0x40 MLOAD PUSH32 0x8C379A000000000000000000000000000000000000000000000000000000000 DUP2 MSTORE PUSH1 0x4 ADD PUSH2 0x3F4 SWAP1 PUSH2 0xE66 JUMP JUMPDEST PUSH1 0x40 MLOAD DUP1 SWAP2 SUB SWAP1 REVERT JUMPDEST DUP1 PUSH1 0x1 DUP2 SWAP1 SSTORE POP POP JUMP JUMPDEST PUSH32 0xA49807205CE4D355092EF5A8A18F56E8913CF4A201FBE287825B095693C21775 DUP2 JUMP JUMPDEST PUSH2 0x455 PUSH32 0xA49807205CE4D355092EF5A8A18F56E8913CF4A201FBE287825B095693C21775 CALLER PUSH2 0x4C1 JUMP JUMPDEST PUSH2 0x494 JUMPI PUSH1 0x40 MLOAD PUSH32 0x8C379A000000000000000000000000000000000000000000000000000000000 DUP2 MSTORE PUSH1 0x4 ADD PUSH2 0x48B SWAP1 PUSH2 0xEF8 JUMP JUMPDEST PUSH1 0x40 MLOAD DUP1 SWAP2 SUB SWAP1 REVERT JUMPDEST PUSH2 0x4BE PUSH32 0x2B8F168F361AC1393A163ED4ADFA899A87BE7B7C71645167BDADDD822AE453C8 DUP3 PUSH2 0x5F5 JUMP JUMPDEST POP JUMP JUMPDEST PUSH1 0x0 DUP1 PUSH1 0x0 DUP5 DUP2 MSTORE PUSH1 0x20 ADD SWAP1 DUP2 MSTORE PUSH1 0x20 ADD PUSH1 0x0 KECCAK256 PUSH1 0x0 ADD PUSH1 0x0 DUP4 PUSH20 0xFFFFFFFFFFFFFFFFFFFFFFFFFFFFFFFFFFFFFFFF AND PUSH20 0xFFFFFFFFFFFFFFFFFFFFFFFFFFFFFFFFFFFFFFFF AND DUP2 MSTORE PUSH1 0x20 ADD SWAP1 DUP2 MSTORE PUSH1 0x20 ADD PUSH1 0x0 KECCAK256 PUSH1 0x0 SWAP1 SLOAD SWAP1 PUSH2 0x100 EXP SWAP1 DIV PUSH1 0xFF AND SWAP1 POP SWAP3 SWAP2 POP POP JUMP JUMPDEST PUSH32 0x2B8F168F361AC1393A163ED4ADFA899A87BE7B7C71645167BDADDD822AE453C8 DUP2 JUMP JUMPDEST PUSH1 0x0 DUP1 SHL DUP2 JUMP JUMPDEST PUSH2 0x55F DUP3 PUSH2 0x2C7 JUMP JUMPDEST PUSH2 0x568 DUP2 PUSH2 0x5E1 JUMP JUMPDEST PUSH2 0x572 DUP4 DUP4 PUSH2 0x6DD JUMP JUMPDEST POP POP POP JUMP JUMPDEST PUSH1 0x0 PUSH32 0x1FFC9A700000000000000000000000000000000000000000000000000000000 PUSH28 0xFFFFFFFFFFFFFFFFFFFFFFFFFFFFFFFFFFFFFFFFFFFFFFFFFFFFFFFF NOT AND DUP3 PUSH28 0xFFFFFFFFFFFFFFFFFFFFFFFFFFFFFFFFFFFFFFFFFFFFFFFFFFFFFFFF NOT AND EQ SWAP1 POP SWAP2 SWAP1 POP JUMP JUMPDEST PUSH2 0x5F2 DUP2 PUSH2 0x5ED PUSH2 0x6D5 JUMP JUMPDEST PUSH2 0x7BE JUMP JUMPDEST POP JUMP JUMPDEST PUSH2 0x5FF DUP3 DUP3 PUSH2 0x4C1 JUMP JUMPDEST PUSH2 0x6D1 JUMPI PUSH1 0x1 PUSH1 0x0 DUP1 DUP5 DUP2 MSTORE PUSH1 0x20 ADD SWAP1 DUP2 MSTORE PUSH1 0x20 ADD PUSH1 0x0 KECCAK256 PUSH1 0x0 ADD PUSH1 0x0 DUP4 PUSH20 0xFFFFFFFFFFFFFFFFFFFFFFFFFFFFFFFFFFFFFFFF AND PUSH20 0xFFFFFFFFFFFFFFFFFFFFFFFFFFFFFFFFFFFFFFFF AND DUP2 MSTORE PUSH1 0x20 ADD SWAP1 DUP2 MSTORE PUSH1 0x20 ADD PUSH1 0x0 KECCAK256 PUSH1 0x0 PUSH2 0x100 EXP DUP2 SLOAD DUP2 PUSH1 0xFF MUL NOT AND SWAP1 DUP4 ISZERO ISZERO MUL OR SWAP1 SSTORE POP PUSH2 0x676 PUSH2 0x6D5 JUMP JUMPDEST PUSH20 0xFFFFFFFFFFFFFFFFFFFFFFFFFFFFFFFFFFFFFFFF AND DUP2 PUSH20 0xFFFFFFFFFFFFFFFFFFFFFFFFFFFFFFFFFFFFFFFF AND DUP4 PUSH32 0x2F8788117E7EFF1D82E926EC794901D17C78024A50270940304540A733656F0D PUSH1 0x40 MLOAD PUSH1 0x40 MLOAD DUP1 SWAP2 SUB SWAP1 LOG4 JUMPDEST POP POP JUMP JUMPDEST PUSH1 0x0 CALLER SWAP1 POP SWAP1 JUMP JUMPDEST PUSH2 0x6E7 DUP3 DUP3 PUSH2 0x4C1 JUMP JUMPDEST ISZERO PUSH2 0x7BA JUMPI PUSH1 0x0 DUP1 PUSH1 0x0 DUP5 DUP2 MSTORE PUSH1 0x20 ADD SWAP1 DUP2 MSTORE PUSH1 0x20 ADD PUSH1 0x0 KECCAK256 PUSH1 0x0 ADD PUSH1 0x0 DUP4 PUSH20 0xFFFFFFFFFFFFFFFFFFFFFFFFFFFFFFFFFFFFFFFF AND PUSH20 0xFFFFFFFFFFFFFFFFFFFFFFFFFFFFFFFFFFFFFFFF AND DUP2 MSTORE PUSH1 0x20 ADD SWAP1 DUP2 MSTORE PUSH1 0x20 ADD PUSH1 0x0 KECCAK256 PUSH1 0x0 PUSH2 0x100 EXP DUP2 SLOAD DUP2 PUSH1 0xFF MUL NOT AND SWAP1 DUP4 ISZERO ISZERO MUL OR SWAP1 SSTORE POP PUSH2 0x75F PUSH2 0x6D5 JUMP JUMPDEST PUSH20 0xFFFFFFFFFFFFFFFFFFFFFFFFFFFFFFFFFFFFFFFF AND DUP2 PUSH20 0xFFFFFFFFFFFFFFFFFFFFFFFFFFFFFFFFFFFFFFFF AND DUP4 PUSH32 0xF6391F5C32D9C69D2A47EA670B442974B53935D1EDC7FD64EB21E047A839171B PUSH1 0x40 MLOAD PUSH1 0x40 MLOAD DUP1 SWAP2 SUB SWAP1 LOG4 JUMPDEST POP POP JUMP JUMPDEST PUSH2 0x7C8 DUP3 DUP3 PUSH2 0x4C1 JUMP JUMPDEST PUSH2 0x83F JUMPI PUSH2 0x7D5 DUP2 PUSH2 0x843 JUMP JUMPDEST PUSH2 0x7E3 DUP4 PUSH1 0x0 SHR PUSH1 0x20 PUSH2 0x870 JUMP JUMPDEST PUSH1 0x40 MLOAD PUSH1 0x20 ADD PUSH2 0x7F4 SWAP3 SWAP2 SWAP1 PUSH2 0x1021 JUMP JUMPDEST PUSH1 0x40 MLOAD PUSH1 0x20 DUP2 DUP4 SUB SUB DUP2 MSTORE SWAP1 PUSH1 0x40 MSTORE PUSH1 0x40 MLOAD PUSH32 0x8C379A000000000000000000000000000000000000000000000000000000000 DUP2 MSTORE PUSH1 0x4 ADD PUSH2 0x836 SWAP2 SWAP1 PUSH2 0x10A5 JUMP JUMPDEST PUSH1 0x40 MLOAD DUP1 SWAP2 SUB SWAP1 REVERT JUMPDEST POP POP JUMP JUMPDEST PUSH1 0x60 PUSH2 0x869 DUP3 PUSH20 0xFFFFFFFFFFFFFFFFFFFFFFFFFFFFFFFFFFFFFFFF AND PUSH1 0x14 PUSH1 0xFF AND PUSH2 0x870 JUMP JUMPDEST SWAP1 POP SWAP2 SWAP1 POP JUMP JUMPDEST PUSH1 0x60 PUSH1 0x0 PUSH1 0x2 DUP4 PUSH1 0x2 PUSH2 0x883 SWAP2 SWAP1 PUSH2 0x10F6 JUMP JUMPDEST PUSH2 0x88D SWAP2 SWAP1 PUSH2 0x1138 JUMP JUMPDEST PUSH8 0xFFFFFFFFFFFFFFFF DUP2 GT ISZERO PUSH2 0x8A6 JUMPI PUSH2 0x8A5 PUSH2 0x116C JUMP JUMPDEST JUMPDEST PUSH1 0x40 MLOAD SWAP1 DUP1 DUP3 MSTORE DUP1 PUSH1 0x1F ADD PUSH1 0x1F NOT AND PUSH1 0x20 ADD DUP3 ADD PUSH1 0x40 MSTORE DUP1 ISZERO PUSH2 0x8D8 JUMPI DUP2 PUSH1 0x20 ADD PUSH1 0x1 DUP3 MUL DUP1 CALLDATASIZE DUP4 CALLDATACOPY DUP1 DUP3 ADD SWAP2 POP POP SWAP1 POP JUMPDEST POP SWAP1 POP PUSH32 0x3000000000000000000000000000000000000000000000000000000000000000 DUP2 PUSH1 0x0 DUP2 MLOAD DUP2 LT PUSH2 0x910 JUMPI PUSH2 0x90F PUSH2 0x119B JUMP JUMPDEST JUMPDEST PUSH1 0x20 ADD ADD SWAP1 PUSH31 0xFFFFFFFFFFFFFFFFFFFFFFFFFFFFFFFFFFFFFFFFFFFFFFFFFFFFFFFFFFFFFF NOT AND SWAP1 DUP2 PUSH1 0x0 BYTE SWAP1 MSTORE8 POP PUSH32 0x7800000000000000000000000000000000000000000000000000000000000000 DUP2 PUSH1 0x1 DUP2 MLOAD DUP2 LT PUSH2 0x974 JUMPI PUSH2 0x973 PUSH2 0x119B JUMP JUMPDEST JUMPDEST PUSH1 0x20 ADD ADD SWAP1 PUSH31 0xFFFFFFFFFFFFFFFFFFFFFFFFFFFFFFFFFFFFFFFFFFFFFFFFFFFFFFFFFFFFFF NOT AND SWAP1 DUP2 PUSH1 0x0 BYTE SWAP1 MSTORE8 POP PUSH1 0x0 PUSH1 0x1 DUP5 PUSH1 0x2 PUSH2 0x9B4 SWAP2 SWAP1 PUSH2 0x10F6 JUMP JUMPDEST PUSH2 0x9BE SWAP2 SWAP1 PUSH2 0x1138 JUMP JUMPDEST SWAP1 POP JUMPDEST PUSH1 0x1 DUP2 GT ISZERO PUSH2 0xA5E JUMPI PUSH32 0x3031323334353637383961626364656600000000000000000000000000000000 PUSH1 0xF DUP7 AND PUSH1 0x10 DUP2 LT PUSH2 0xA00 JUMPI PUSH2 0x9FF PUSH2 0x119B JUMP JUMPDEST JUMPDEST BYTE PUSH1 0xF8 SHL DUP3 DUP3 DUP2 MLOAD DUP2 LT PUSH2 0xA17 JUMPI PUSH2 0xA16 PUSH2 0x119B JUMP JUMPDEST JUMPDEST PUSH1 0x20 ADD ADD SWAP1 PUSH31 0xFFFFFFFFFFFFFFFFFFFFFFFFFFFFFFFFFFFFFFFFFFFFFFFFFFFFFFFFFFFFFF NOT AND SWAP1 DUP2 PUSH1 0x0 BYTE SWAP1 MSTORE8 POP PUSH1 0x4 DUP6 SWAP1 SHR SWAP5 POP DUP1 PUSH2 0xA57 SWAP1 PUSH2 0x11CA JUMP JUMPDEST SWAP1 POP PUSH2 0x9C1 JUMP JUMPDEST POP PUSH1 0x0 DUP5 EQ PUSH2 0xAA2 JUMPI PUSH1 0x40 MLOAD PUSH32 0x8C379A000000000000000000000000000000000000000000000000000000000 DUP2 MSTORE PUSH1 0x4 ADD PUSH2 0xA99 SWAP1 PUSH2 0x123F JUMP JUMPDEST PUSH1 0x40 MLOAD DUP1 SWAP2 SUB SWAP1 REVERT JUMPDEST DUP1 SWAP2 POP POP SWAP3 SWAP2 POP POP JUMP JUMPDEST PUSH1 0x0 DUP1 REVERT JUMPDEST PUSH1 0x0 PUSH32 0xFFFFFFFF00000000000000000000000000000000000000000000000000000000 DUP3 AND SWAP1 POP SWAP2 SWAP1 POP JUMP JUMPDEST PUSH2 0xAE6 DUP2 PUSH2 0xAB1 JUMP JUMPDEST DUP2 EQ PUSH2 0xAF1 JUMPI PUSH1 0x0 DUP1 REVERT JUMPDEST POP JUMP JUMPDEST PUSH1 0x0 DUP2 CALLDATALOAD SWAP1 POP PUSH2 0xB03 DUP2 PUSH2 0xADD JUMP JUMPDEST SWAP3 SWAP2 POP POP JUMP JUMPDEST PUSH1 0x0 PUSH1 0x20 DUP3 DUP5 SUB SLT ISZERO PUSH2 0xB1F JUMPI PUSH2 0xB1E PUSH2 0xAAC JUMP JUMPDEST JUMPDEST PUSH1 0x0 PUSH2 0xB2D DUP5 DUP3 DUP6 ADD PUSH2 0xAF4 JUMP JUMPDEST SWAP2 POP POP SWAP3 SWAP2 POP POP JUMP JUMPDEST PUSH1 0x0 DUP2 ISZERO ISZERO SWAP1 POP SWAP2 SWAP1 POP JUMP JUMPDEST PUSH2 0xB4B DUP2 PUSH2 0xB36 JUMP JUMPDEST DUP3 MSTORE POP POP JUMP JUMPDEST PUSH1 0x0 PUSH1 0x20 DUP3 ADD SWAP1 POP PUSH2 0xB66 PUSH1 0x0 DUP4 ADD DUP5 PUSH2 0xB42 JUMP JUMPDEST SWAP3 SWAP2 POP POP JUMP JUMPDEST PUSH1 0x0 DUP2 SWAP1 POP SWAP2 SWAP1 POP JUMP JUMPDEST PUSH2 0xB7F DUP2 PUSH2 0xB6C JUMP JUMPDEST DUP2 EQ PUSH2 0xB8A JUMPI PUSH1 0x0 DUP1 REVERT JUMPDEST POP JUMP JUMPDEST PUSH1 0x0 DUP2 CALLDATALOAD SWAP1 POP PUSH2 0xB9C DUP2 PUSH2 0xB76 JUMP JUMPDEST SWAP3 SWAP2 POP POP JUMP JUMPDEST PUSH1 0x0 PUSH1 0x20 DUP3 DUP5 SUB SLT ISZERO PUSH2 0xBB8 JUMPI PUSH2 0xBB7 PUSH2 0xAAC JUMP JUMPDEST JUMPDEST PUSH1 0x0 PUSH2 0xBC6 DUP5 DUP3 DUP6 ADD PUSH2 0xB8D JUMP JUMPDEST SWAP2 POP POP SWAP3 SWAP2 POP POP JUMP JUMPDEST PUSH2 0xBD8 DUP2 PUSH2 0xB6C JUMP JUMPDEST DUP3 MSTORE POP POP JUMP JUMPDEST PUSH1 0x0 PUSH1 0x20 DUP3 ADD SWAP1 POP PUSH2 0xBF3 PUSH1 0x0 DUP4 ADD DUP5 PUSH2 0xBCF JUMP JUMPDEST SWAP3 SWAP2 POP POP JUMP JUMPDEST PUSH1 0x0 DUP2 SWAP1 POP SWAP2 SWAP1 POP JUMP JUMPDEST PUSH2 0xC0C DUP2 PUSH2 0xBF9 JUMP JUMPDEST DUP3 MSTORE POP POP JUMP JUMPDEST PUSH1 0x0 PUSH1 0x20 DUP3 ADD SWAP1 POP PUSH2 0xC27 PUSH1 0x0 DUP4 ADD DUP5 PUSH2 0xC03 JUMP JUMPDEST SWAP3 SWAP2 POP POP JUMP JUMPDEST PUSH1 0x0 PUSH20 0xFFFFFFFFFFFFFFFFFFFFFFFFFFFFFFFFFFFFFFFF DUP3 AND SWAP1 POP SWAP2 SWAP1 POP JUMP JUMPDEST PUSH1 0x0 PUSH2 0xC58 DUP3 PUSH2 0xC2D JUMP JUMPDEST SWAP1 POP SWAP2 SWAP1 POP JUMP JUMPDEST PUSH2 0xC68 DUP2 PUSH2 0xC4D JUMP JUMPDEST DUP2 EQ PUSH2 0xC73 JUMPI PUSH1 0x0 DUP1 REVERT JUMPDEST POP JUMP JUMPDEST PUSH1 0x0 DUP2 CALLDATALOAD SWAP1 POP PUSH2 0xC85 DUP2 PUSH2 0xC5F JUMP JUMPDEST SWAP3 SWAP2 POP POP JUMP JUMPDEST PUSH1 0x0 DUP1 PUSH1 0x40 DUP4 DUP6 SUB SLT ISZERO PUSH2 0xCA2 JUMPI PUSH2 0xCA1 PUSH2 0xAAC JUMP JUMPDEST JUMPDEST PUSH1 0x0 PUSH2 0xCB0 DUP6 DUP3 DUP7 ADD PUSH2 0xB8D JUMP JUMPDEST SWAP3 POP POP PUSH1 0x20 PUSH2 0xCC1 DUP6 DUP3 DUP7 ADD PUSH2 0xC76 JUMP JUMPDEST SWAP2 POP POP SWAP3 POP SWAP3 SWAP1 POP JUMP JUMPDEST PUSH2 0xCD4 DUP2 PUSH2 0xBF9 JUMP JUMPDEST DUP2 EQ PUSH2 0xCDF JUMPI PUSH1 0x0 DUP1 REVERT JUMPDEST POP JUMP JUMPDEST PUSH1 0x0 DUP2 CALLDATALOAD SWAP1 POP PUSH2 0xCF1 DUP2 PUSH2 0xCCB JUMP JUMPDEST SWAP3 SWAP2 POP POP JUMP JUMPDEST PUSH1 0x0 PUSH1 0x20 DUP3 DUP5 SUB SLT ISZERO PUSH2 0xD0D JUMPI PUSH2 0xD0C PUSH2 0xAAC JUMP JUMPDEST JUMPDEST PUSH1 0x0 PUSH2 0xD1B DUP5 DUP3 DUP6 ADD PUSH2 0xCE2 JUMP JUMPDEST SWAP2 POP POP SWAP3 SWAP2 POP POP JUMP JUMPDEST PUSH1 0x0 PUSH1 0x20 DUP3 DUP5 SUB SLT ISZERO PUSH2 0xD3A JUMPI PUSH2 0xD39 PUSH2 0xAAC JUMP JUMPDEST JUMPDEST PUSH1 0x0 PUSH2 0xD48 DUP5 DUP3 DUP6 ADD PUSH2 0xC76 JUMP JUMPDEST SWAP2 POP POP SWAP3 SWAP2 POP POP JUMP JUMPDEST PUSH1 0x0 DUP3 DUP3 MSTORE PUSH1 0x20 DUP3 ADD SWAP1 POP SWAP3 SWAP2 POP POP JUMP JUMPDEST PUSH32 0x416363657373436F6E74726F6C3A2063616E206F6E6C792072656E6F756E6365 PUSH1 0x0 DUP3 ADD MSTORE PUSH32 0x20726F6C657320666F722073656C660000000000000000000000000000000000 PUSH1 0x20 DUP3 ADD MSTORE POP JUMP JUMPDEST PUSH1 0x0 PUSH2 0xDBE PUSH1 0x2F DUP4 PUSH2 0xD51 JUMP JUMPDEST SWAP2 POP PUSH2 0xDC9 DUP3 PUSH2 0xD62 JUMP JUMPDEST PUSH1 0x40 DUP3 ADD SWAP1 POP SWAP2 SWAP1 POP JUMP JUMPDEST PUSH1 0x0 PUSH1 0x20 DUP3 ADD SWAP1 POP DUP2 DUP2 SUB PUSH1 0x0 DUP4 ADD MSTORE PUSH2 0xDED DUP2 PUSH2 0xDB1 JUMP JUMPDEST SWAP1 POP SWAP2 SWAP1 POP JUMP JUMPDEST PUSH32 0x4A757374207468652055534552532063616E2075736520746869732066756E63 PUSH1 0x0 DUP3 ADD MSTORE PUSH32 0x74696F6E00000000000000000000000000000000000000000000000000000000 PUSH1 0x20 DUP3 ADD MSTORE POP JUMP JUMPDEST PUSH1 0x0 PUSH2 0xE50 PUSH1 0x24 DUP4 PUSH2 0xD51 JUMP JUMPDEST SWAP2 POP PUSH2 0xE5B DUP3 PUSH2 0xDF4 JUMP JUMPDEST PUSH1 0x40 DUP3 ADD SWAP1 POP SWAP2 SWAP1 POP JUMP JUMPDEST PUSH1 0x0 PUSH1 0x20 DUP3 ADD SWAP1 POP DUP2 DUP2 SUB PUSH1 0x0 DUP4 ADD MSTORE PUSH2 0xE7F DUP2 PUSH2 0xE43 JUMP JUMPDEST SWAP1 POP SWAP2 SWAP1 POP JUMP JUMPDEST PUSH32 0x4A757374207468652041646D696E2063616E2075736520746869732066756E63 PUSH1 0x0 DUP3 ADD MSTORE PUSH32 0x74696F6E00000000000000000000000000000000000000000000000000000000 PUSH1 0x20 DUP3 ADD MSTORE POP JUMP JUMPDEST PUSH1 0x0 PUSH2 0xEE2 PUSH1 0x24 DUP4 PUSH2 0xD51 JUMP JUMPDEST SWAP2 POP PUSH2 0xEED DUP3 PUSH2 0xE86 JUMP JUMPDEST PUSH1 0x40 DUP3 ADD SWAP1 POP SWAP2 SWAP1 POP JUMP JUMPDEST PUSH1 0x0 PUSH1 0x20 DUP3 ADD SWAP1 POP DUP2 DUP2 SUB PUSH1 0x0 DUP4 ADD MSTORE PUSH2 0xF11 DUP2 PUSH2 0xED5 JUMP JUMPDEST SWAP1 POP SWAP2 SWAP1 POP JUMP JUMPDEST PUSH1 0x0 DUP2 SWAP1 POP SWAP3 SWAP2 POP POP JUMP JUMPDEST PUSH32 0x416363657373436F6E74726F6C3A206163636F756E7420000000000000000000 PUSH1 0x0 DUP3 ADD MSTORE POP JUMP JUMPDEST PUSH1 0x0 PUSH2 0xF59 PUSH1 0x17 DUP4 PUSH2 0xF18 JUMP JUMPDEST SWAP2 POP PUSH2 0xF64 DUP3 PUSH2 0xF23 JUMP JUMPDEST PUSH1 0x17 DUP3 ADD SWAP1 POP SWAP2 SWAP1 POP JUMP JUMPDEST PUSH1 0x0 DUP2 MLOAD SWAP1 POP SWAP2 SWAP1 POP JUMP JUMPDEST PUSH1 0x0 JUMPDEST DUP4 DUP2 LT ISZERO PUSH2 0xF98 JUMPI DUP1 DUP3 ADD MLOAD DUP2 DUP5 ADD MSTORE PUSH1 0x20 DUP2 ADD SWAP1 POP PUSH2 0xF7D JUMP JUMPDEST PUSH1 0x0 DUP5 DUP5 ADD MSTORE POP POP POP POP JUMP JUMPDEST PUSH1 0x0 PUSH2 0xFAF DUP3 PUSH2 0xF6F JUMP JUMPDEST PUSH2 0xFB9 DUP2 DUP6 PUSH2 0xF18 JUMP JUMPDEST SWAP4 POP PUSH2 0xFC9 DUP2 DUP6 PUSH1 0x20 DUP7 ADD PUSH2 0xF7A JUMP JUMPDEST DUP1 DUP5 ADD SWAP2 POP POP SWAP3 SWAP2 POP POP JUMP JUMPDEST PUSH32 0x206973206D697373696E6720726F6C6520000000000000000000000000000000 PUSH1 0x0 DUP3 ADD MSTORE POP JUMP JUMPDEST PUSH1 0x0 PUSH2 0x100B PUSH1 0x11 DUP4 PUSH2 0xF18 JUMP JUMPDEST SWAP2 POP PUSH2 0x1016 DUP3 PUSH2 0xFD5 JUMP JUMPDEST PUSH1 0x11 DUP3 ADD SWAP1 POP SWAP2 SWAP1 POP JUMP JUMPDEST PUSH1 0x0 PUSH2 0x102C DUP3 PUSH2 0xF4C JUMP JUMPDEST SWAP2 POP PUSH2 0x1038 DUP3 DUP6 PUSH2 0xFA4 JUMP JUMPDEST SWAP2 POP PUSH2 0x1043 DUP3 PUSH2 0xFFE JUMP JUMPDEST SWAP2 POP PUSH2 0x104F DUP3 DUP5 PUSH2 0xFA4 JUMP JUMPDEST SWAP2 POP DUP2 SWAP1 POP SWAP4 SWAP3 POP POP POP JUMP JUMPDEST PUSH1 0x0 PUSH1 0x1F NOT PUSH1 0x1F DUP4 ADD AND SWAP1 POP SWAP2 SWAP1 POP JUMP JUMPDEST PUSH1 0x0 PUSH2 0x1077 DUP3 PUSH2 0xF6F JUMP JUMPDEST PUSH2 0x1081 DUP2 DUP6 PUSH2 0xD51 JUMP JUMPDEST SWAP4 POP PUSH2 0x1091 DUP2 DUP6 PUSH1 0x20 DUP7 ADD PUSH2 0xF7A JUMP JUMPDEST PUSH2 0x109A DUP2 PUSH2 0x105B JUMP JUMPDEST DUP5 ADD SWAP2 POP POP SWAP3 SWAP2 POP POP JUMP JUMPDEST PUSH1 0x0 PUSH1 0x20 DUP3 ADD SWAP1 POP DUP2 DUP2 SUB PUSH1 0x0 DUP4 ADD MSTORE PUSH2 0x10BF DUP2 DUP5 PUSH2 0x106C JUMP JUMPDEST SWAP1 POP SWAP3 SWAP2 POP POP JUMP JUMPDEST PUSH32 0x4E487B7100000000000000000000000000000000000000000000000000000000 PUSH1 0x0 MSTORE PUSH1 0x11 PUSH1 0x4 MSTORE PUSH1 0x24 PUSH1 0x0 REVERT JUMPDEST PUSH1 0x0 PUSH2 0x1101 DUP3 PUSH2 0xBF9 JUMP JUMPDEST SWAP2 POP PUSH2 0x110C DUP4 PUSH2 0xBF9 JUMP JUMPDEST SWAP3 POP DUP3 DUP3 MUL PUSH2 0x111A DUP2 PUSH2 0xBF9 JUMP JUMPDEST SWAP2 POP DUP3 DUP3 DIV DUP5 EQ DUP4 ISZERO OR PUSH2 0x1131 JUMPI PUSH2 0x1130 PUSH2 0x10C7 JUMP JUMPDEST JUMPDEST POP SWAP3 SWAP2 POP POP JUMP JUMPDEST PUSH1 0x0 PUSH2 0x1143 DUP3 PUSH2 0xBF9 JUMP JUMPDEST SWAP2 POP PUSH2 0x114E DUP4 PUSH2 0xBF9 JUMP JUMPDEST SWAP3 POP DUP3 DUP3 ADD SWAP1 POP DUP1 DUP3 GT ISZERO PUSH2 0x1166 JUMPI PUSH2 0x1165 PUSH2 0x10C7 JUMP JUMPDEST JUMPDEST SWAP3 SWAP2 POP POP JUMP JUMPDEST PUSH32 0x4E487B7100000000000000000000000000000000000000000000000000000000 PUSH1 0x0 MSTORE PUSH1 0x41 PUSH1 0x4 MSTORE PUSH1 0x24 PUSH1 0x0 REVERT JUMPDEST PUSH32 0x4E487B7100000000000000000000000000000000000000000000000000000000 PUSH1 0x0 MSTORE PUSH1 0x32 PUSH1 0x4 MSTORE PUSH1 0x24 PUSH1 0x0 REVERT JUMPDEST PUSH1 0x0 PUSH2 0x11D5 DUP3 PUSH2 0xBF9 JUMP JUMPDEST SWAP2 POP PUSH1 0x0 DUP3 SUB PUSH2 0x11E8 JUMPI PUSH2 0x11E7 PUSH2 0x10C7 JUMP JUMPDEST JUMPDEST PUSH1 0x1 DUP3 SUB SWAP1 POP SWAP2 SWAP1 POP JUMP JUMPDEST PUSH32 0x537472696E67733A20686578206C656E67746820696E73756666696369656E74 PUSH1 0x0 DUP3 ADD MSTORE POP JUMP JUMPDEST PUSH1 0x0 PUSH2 0x1229 PUSH1 0x20 DUP4 PUSH2 0xD51 JUMP JUMPDEST SWAP2 POP PUSH2 0x1234 DUP3 PUSH2 0x11F3 JUMP JUMPDEST PUSH1 0x20 DUP3 ADD SWAP1 POP SWAP2 SWAP1 POP JUMP JUMPDEST PUSH1 0x0 PUSH1 0x20 DUP3 ADD SWAP1 POP DUP2 DUP2 SUB PUSH1 0x0 DUP4 ADD MSTORE PUSH2 0x1258 DUP2 PUSH2 0x121C JUMP JUMPDEST SWAP1 POP SWAP2 SWAP1 POP JUMP INVALID LOG2 PUSH5 0x6970667358 0x22 SLT KECCAK256 JUMPDEST 0xCA 0x24 SAR JUMPI 0xC6 0xB1 0x28 DUP6 PUSH21 0x98B80901E0F69A7E0EE04B727499094D4B5BE8E37 0xC4 PUSH5 0x736F6C6343 STOP ADDMOD SLT STOP CALLER "
				},
				"gasEstimates": {
					"creation": {
						"codeDepositCost": "951400",
						"executionCost": "infinite",
						"totalCost": "infinite"
					},
					"external": {
						"ADMIN_ROLE()": "329",
						"DEFAULT_ADMIN_ROLE()": "423",
						"WRITER_ROLE()": "395",
						"add_role(address)": "infinite",
						"getRoleAdmin(bytes32)": "infinite",
						"grantRole(bytes32,address)": "infinite",
						"hasRole(bytes32,address)": "3184",
						"renounceRole(bytes32,address)": "infinite",
						"retrieve()": "2482",
						"revokeRole(bytes32,address)": "infinite",
						"store(uint256)": "25005",
						"supportsInterface(bytes4)": "728"
					}
				},
				"methodIdentifiers": {
					"ADMIN_ROLE()": "75b238fc",
					"DEFAULT_ADMIN_ROLE()": "a217fddf",
					"WRITER_ROLE()": "9beaab7b",
					"add_role(address)": "8338c88b",
					"getRoleAdmin(bytes32)": "248a9ca3",
					"grantRole(bytes32,address)": "2f2ff15d",
					"hasRole(bytes32,address)": "91d14854",
					"renounceRole(bytes32,address)": "36568abe",
					"retrieve()": "2e64cec1",
					"revokeRole(bytes32,address)": "d547741f",
					"store(uint256)": "6057361d",
					"supportsInterface(bytes4)": "01ffc9a7"
				}
			},
			"storageLayout": {
				"storage": [
					{
						"astId": 24,
						"contract": "contracts/challenge/challenge_storage.sol:challenge_storage",
						"label": "_roles",
						"offset": 0,
						"slot": "0",
						"type": "t_mapping(t_bytes32,t_struct(RoleData)19_storage)"
					},
					{
						"astId": 1552,
						"contract": "contracts/challenge/challenge_storage.sol:challenge_storage",
						"label": "number",
						"offset": 0,
						"slot": "1",
						"type": "t_uint256"
					}
				],
				"types": {
					"t_address": {
						"encoding": "inplace",
						"label": "address",
						"numberOfBytes": "20"
					},
					"t_bool": {
						"encoding": "inplace",
						"label": "bool",
						"numberOfBytes": "1"
					},
					"t_bytes32": {
						"encoding": "inplace",
						"label": "bytes32",
						"numberOfBytes": "32"
					},
					"t_mapping(t_address,t_bool)": {
						"encoding": "mapping",
						"key": "t_address",
						"label": "mapping(address => bool)",
						"numberOfBytes": "32",
						"value": "t_bool"
					},
					"t_mapping(t_bytes32,t_struct(RoleData)19_storage)": {
						"encoding": "mapping",
						"key": "t_bytes32",
						"label": "mapping(bytes32 => struct AccessControl.RoleData)",
						"numberOfBytes": "32",
						"value": "t_struct(RoleData)19_storage"
					},
					"t_struct(RoleData)19_storage": {
						"encoding": "inplace",
						"label": "struct AccessControl.RoleData",
						"members": [
							{
								"astId": 16,
								"contract": "contracts/challenge/challenge_storage.sol:challenge_storage",
								"label": "members",
								"offset": 0,
								"slot": "0",
								"type": "t_mapping(t_address,t_bool)"
							},
							{
								"astId": 18,
								"contract": "contracts/challenge/challenge_storage.sol:challenge_storage",
								"label": "adminRole",
								"offset": 0,
								"slot": "1",
								"type": "t_bytes32"
							}
						],
						"numberOfBytes": "64"
					},
					"t_uint256": {
						"encoding": "inplace",
						"label": "uint256",
						"numberOfBytes": "32"
					}
				}
			},
			"userdoc": {
				"kind": "user",
				"methods": {},
				"version": 1
			}
		}
	}
}